{
  "contractName": "EventManager",
  "abi": [
    {
      "inputs": [
        {
          "internalType": "address",
          "name": "_ticketNFT",
          "type": "address"
        }
      ],
      "stateMutability": "nonpayable",
      "type": "constructor"
    },
    {
      "anonymous": false,
      "inputs": [
        {
          "indexed": false,
          "internalType": "uint256",
          "name": "ticketID",
          "type": "uint256"
        }
      ],
      "name": "TicketPurchased",
      "type": "event"
    },
    {
      "inputs": [],
      "name": "eventCount",
      "outputs": [
        {
          "internalType": "uint256",
          "name": "",
          "type": "uint256"
        }
      ],
      "stateMutability": "view",
      "type": "function",
      "constant": true
    },
    {
      "inputs": [
        {
          "internalType": "uint256",
          "name": "",
          "type": "uint256"
        }
      ],
      "name": "events",
      "outputs": [
        {
          "internalType": "bool",
          "name": "isFinalized",
          "type": "bool"
        },
        {
          "internalType": "string",
          "name": "name",
          "type": "string"
        },
        {
          "internalType": "string",
          "name": "details",
          "type": "string"
        },
        {
          "internalType": "uint256",
          "name": "date",
          "type": "uint256"
        },
        {
          "internalType": "uint256",
          "name": "cashBank",
          "type": "uint256"
        },
        {
          "internalType": "uint256",
          "name": "ticketPrice",
          "type": "uint256"
        },
        {
          "internalType": "address",
          "name": "owner",
          "type": "address"
        },
        {
          "internalType": "uint32",
          "name": "totalTickets",
          "type": "uint32"
        },
        {
          "internalType": "uint32",
          "name": "ticketsSold",
          "type": "uint32"
        }
      ],
      "stateMutability": "view",
      "type": "function",
      "constant": true
    },
    {
      "inputs": [],
      "name": "ticketNFT",
      "outputs": [
        {
          "internalType": "contract TicketNFT",
          "name": "",
          "type": "address"
        }
      ],
      "stateMutability": "view",
      "type": "function",
      "constant": true
    },
    {
      "inputs": [
        {
          "internalType": "string",
          "name": "_name",
          "type": "string"
        },
        {
          "internalType": "string",
          "name": "_details",
          "type": "string"
        },
        {
          "internalType": "uint256",
          "name": "_date",
          "type": "uint256"
        },
        {
          "internalType": "uint256",
          "name": "_ticketPrice",
          "type": "uint256"
        },
        {
          "internalType": "uint32",
          "name": "_totalTickets",
          "type": "uint32"
        }
      ],
      "name": "createEvent",
      "outputs": [],
      "stateMutability": "nonpayable",
      "type": "function"
    },
    {
      "inputs": [
        {
          "internalType": "uint256",
          "name": "_eventId",
          "type": "uint256"
        }
      ],
      "name": "addMoneyToCashBank",
      "outputs": [],
      "stateMutability": "payable",
      "type": "function",
      "payable": true
    },
    {
      "inputs": [
        {
          "internalType": "uint256",
          "name": "_eventId",
          "type": "uint256"
        },
        {
          "internalType": "string",
          "name": "_name",
          "type": "string"
        },
        {
          "internalType": "string",
          "name": "_details",
          "type": "string"
        },
        {
          "internalType": "uint256",
          "name": "_reward",
          "type": "uint256"
        },
        {
          "internalType": "uint8",
          "name": "_minRating",
          "type": "uint8"
        }
      ],
      "name": "createTask",
      "outputs": [],
      "stateMutability": "nonpayable",
      "type": "function"
    },
    {
      "inputs": [
        {
          "internalType": "uint256",
          "name": "_eventId",
          "type": "uint256"
        }
      ],
      "name": "getAllTasks",
      "outputs": [
        {
          "components": [
            {
              "internalType": "string",
              "name": "name",
              "type": "string"
            },
            {
              "internalType": "string",
              "name": "details",
              "type": "string"
            },
            {
              "internalType": "uint256",
              "name": "reward",
              "type": "uint256"
            },
            {
              "internalType": "uint8",
              "name": "minRating",
              "type": "uint8"
            },
            {
              "internalType": "bool",
              "name": "completed",
              "type": "bool"
            },
            {
              "internalType": "address",
              "name": "assignedCompany",
              "type": "address"
            },
            {
              "internalType": "address[]",
              "name": "raters",
              "type": "address[]"
            },
            {
              "internalType": "uint8[]",
              "name": "ratings",
              "type": "uint8[]"
            }
          ],
          "internalType": "struct EventManager.Task[]",
          "name": "",
          "type": "tuple[]"
        }
      ],
      "stateMutability": "view",
      "type": "function",
      "constant": true
    },
    {
      "inputs": [
        {
          "internalType": "uint256",
          "name": "_eventId",
          "type": "uint256"
        },
        {
          "internalType": "address",
          "name": "_companyAddress",
          "type": "address"
        },
        {
          "internalType": "string",
          "name": "_name",
          "type": "string"
        }
      ],
      "name": "addCompany",
      "outputs": [],
      "stateMutability": "nonpayable",
      "type": "function"
    },
    {
      "inputs": [
        {
          "internalType": "uint256",
          "name": "_eventId",
          "type": "uint256"
        },
        {
          "internalType": "string",
          "name": "_name",
          "type": "string"
        }
      ],
      "name": "requestToJoin",
      "outputs": [],
      "stateMutability": "nonpayable",
      "type": "function"
    },
    {
      "inputs": [
        {
          "internalType": "uint256",
          "name": "_eventId",
          "type": "uint256"
        },
        {
          "internalType": "address",
          "name": "_companyAddress",
          "type": "address"
        }
      ],
      "name": "approveCompany",
      "outputs": [],
      "stateMutability": "nonpayable",
      "type": "function"
    },
    {
      "inputs": [
        {
          "internalType": "uint256",
          "name": "_eventId",
          "type": "uint256"
        }
      ],
      "name": "getAllCompanies",
      "outputs": [
        {
          "components": [
            {
              "internalType": "address",
              "name": "companyAddress",
              "type": "address"
            },
            {
              "internalType": "string",
              "name": "name",
              "type": "string"
            },
            {
              "internalType": "bool",
              "name": "approved",
              "type": "bool"
            }
          ],
          "internalType": "struct EventManager.Company[]",
          "name": "",
          "type": "tuple[]"
        }
      ],
      "stateMutability": "view",
      "type": "function",
      "constant": true
    },
    {
      "inputs": [
        {
          "internalType": "uint256",
          "name": "_eventId",
          "type": "uint256"
        },
        {
          "internalType": "uint256",
          "name": "_taskId",
          "type": "uint256"
        },
        {
          "internalType": "address",
          "name": "_companyAddress",
          "type": "address"
        }
      ],
      "name": "assignCompanyToTask",
      "outputs": [],
      "stateMutability": "nonpayable",
      "type": "function"
    },
    {
      "inputs": [
        {
          "internalType": "uint256",
          "name": "_eventId",
          "type": "uint256"
        },
        {
          "internalType": "uint32",
          "name": "_seat",
          "type": "uint32"
        }
      ],
      "name": "purchaseTicket",
      "outputs": [],
      "stateMutability": "payable",
      "type": "function",
      "payable": true
    },
    {
      "inputs": [
        {
          "internalType": "uint256",
          "name": "_eventId",
          "type": "uint256"
        }
      ],
      "name": "getSeatAvailability",
      "outputs": [
        {
          "internalType": "bool[]",
          "name": "",
          "type": "bool[]"
        }
      ],
      "stateMutability": "view",
      "type": "function",
      "constant": true
    },
    {
      "inputs": [
        {
          "internalType": "uint256",
          "name": "_eventId",
          "type": "uint256"
        },
        {
          "internalType": "uint256",
          "name": "_taskId",
          "type": "uint256"
        }
      ],
      "name": "completeTask",
      "outputs": [],
      "stateMutability": "nonpayable",
      "type": "function"
    },
    {
      "inputs": [
        {
          "internalType": "uint256",
          "name": "_eventId",
          "type": "uint256"
        },
        {
          "internalType": "uint256",
          "name": "_taskId",
          "type": "uint256"
        },
        {
          "internalType": "uint8",
          "name": "_rating",
          "type": "uint8"
        }
      ],
      "name": "rateTask",
      "outputs": [],
      "stateMutability": "nonpayable",
      "type": "function"
    },
    {
      "inputs": [
        {
          "internalType": "uint256",
          "name": "_eventId",
          "type": "uint256"
        }
      ],
      "name": "finalizeEvent",
      "outputs": [],
      "stateMutability": "nonpayable",
      "type": "function"
    },
    {
      "inputs": [
        {
          "internalType": "uint256",
          "name": "_eventId",
          "type": "uint256"
        },
        {
          "internalType": "uint256",
          "name": "_taskId",
          "type": "uint256"
        }
      ],
      "name": "calculateAverageRating",
      "outputs": [
        {
          "internalType": "uint8",
          "name": "",
          "type": "uint8"
        }
      ],
      "stateMutability": "view",
      "type": "function",
      "constant": true
    }
  ],
  "bytecode": "0x60806040523480156200001157600080fd5b5060405162004ba138038062004ba18339818101604052810190620000379190620000e9565b80600260006101000a81548173ffffffffffffffffffffffffffffffffffffffff021916908373ffffffffffffffffffffffffffffffffffffffff160217905550506200011b565b600080fd5b600073ffffffffffffffffffffffffffffffffffffffff82169050919050565b6000620000b18262000084565b9050919050565b620000c381620000a4565b8114620000cf57600080fd5b50565b600081519050620000e381620000b8565b92915050565b6000602082840312156200010257620001016200007f565b5b60006200011284828501620000d2565b91505092915050565b614a76806200012b6000396000f3fe6080604052600436106101095760003560e01c80637772827d11610095578063b393391b11610064578063b393391b14610363578063b4879af51461038e578063cc2ec15b146103b7578063e3581cce146103f4578063ea4d35611461041d57610109565b80637772827d146102cc5780637984ab6e146102e85780637c3bc4e1146103115780639b71e6731461033a57610109565b806331ab7875116100dc57806331ab7875146101f6578063505c0b1b1461021257806366b59cfe1461023b5780636c2ebc0a1461026457806371be2e4a146102a157610109565b806308bfea2a1461010e5780630b7914301461014b578063108c8ae414610190578063138551b6146101b9575b600080fd5b34801561011a57600080fd5b5061013560048036038101906101309190612b2d565b610446565b6040516101429190612d58565b60405180910390f35b34801561015757600080fd5b50610172600480360381019061016d9190612b2d565b6105c3565b60405161018799989796959493929190612e10565b60405180910390f35b34801561019c57600080fd5b506101b760048036038101906101b29190612eab565b61076e565b005b3480156101c557600080fd5b506101e060048036038101906101db9190612b2d565b6108d0565b6040516101ed9190612f9a565b60405180910390f35b610210600480360381019061020b9190612b2d565b6109f3565b005b34801561021e57600080fd5b5061023960048036038101906102349190612fe8565b610b0c565b005b34801561024757600080fd5b50610262600480360381019061025d919061319c565b610e10565b005b34801561027057600080fd5b5061028b60048036038101906102869190612eab565b610f2f565b604051610298919061326b565b60405180910390f35b3480156102ad57600080fd5b506102b6611015565b6040516102c39190613286565b60405180910390f35b6102e660048036038101906102e191906132a1565b61101b565b005b3480156102f457600080fd5b5061030f600480360381019061030a919061330d565b6113ac565b005b34801561031d57600080fd5b50610338600480360381019061033391906133c0565b61176c565b005b34801561034657600080fd5b50610361600480360381019061035c9190612b2d565b61194c565b005b34801561036f57600080fd5b50610378611d45565b604051610385919061348e565b60405180910390f35b34801561039a57600080fd5b506103b560048036038101906103b091906134a9565b611d6b565b005b3480156103c357600080fd5b506103de60048036038101906103d99190612b2d565b611f93565b6040516103eb9190613808565b60405180910390f35b34801561040057600080fd5b5061041b6004803603810190610416919061382a565b6122d6565b005b34801561042957600080fd5b50610444600480360381019061043f919061387d565b612775565b005b60606000806000848152602001908152602001600020905080600801805480602002602001604051908101604052809291908181526020016000905b828210156105b757838290600052602060002090600302016040518060600160405290816000820160009054906101000a900473ffffffffffffffffffffffffffffffffffffffff1673ffffffffffffffffffffffffffffffffffffffff1673ffffffffffffffffffffffffffffffffffffffff16815260200160018201805461050b906138ec565b80601f0160208091040260200160405190810160405280929190818152602001828054610537906138ec565b80156105845780601f1061055957610100808354040283529160200191610584565b820191906000526020600020905b81548152906001019060200180831161056757829003601f168201915b505050505081526020016002820160009054906101000a900460ff16151515158152505081526020019060010190610482565b50505050915050919050565b60006020528060005260406000206000915090508060000160009054906101000a900460ff16908060010180546105f9906138ec565b80601f0160208091040260200160405190810160405280929190818152602001828054610625906138ec565b80156106725780601f1061064757610100808354040283529160200191610672565b820191906000526020600020905b81548152906001019060200180831161065557829003601f168201915b505050505090806002018054610687906138ec565b80601f01602080910402602001604051908101604052809291908181526020018280546106b3906138ec565b80156107005780601f106106d557610100808354040283529160200191610700565b820191906000526020600020905b8154815290600101906020018083116106e357829003601f168201915b5050505050908060030154908060040154908060050154908060060160009054906101000a900473ffffffffffffffffffffffffffffffffffffffff16908060090160009054906101000a900463ffffffff16908060090160049054906101000a900463ffffffff16905089565b600080600084815260200190815260200160002090508060000160009054906101000a900460ff16156107d6576040517f08c379a00000000000000000000000000000000000000000000000000000000081526004016107cd90613969565b60405180910390fd5b3373ffffffffffffffffffffffffffffffffffffffff1681600701838154811061080357610802613989565b5b906000526020600020906006020160030160029054906101000a900473ffffffffffffffffffffffffffffffffffffffff1673ffffffffffffffffffffffffffffffffffffffff161461088b576040517f08c379a000000000000000000000000000000000000000000000000000000000815260040161088290613a2a565b60405180910390fd5b60018160070183815481106108a3576108a2613989565b5b906000526020600020906006020160030160016101000a81548160ff021916908315150217905550505050565b60606000806000848152602001908152602001600020905060008160090160009054906101000a900463ffffffff1663ffffffff1667ffffffffffffffff81111561091e5761091d613045565b5b60405190808252806020026020018201604052801561094c5781602001602082028036833780820191505090505b50905060005b8260090160009054906101000a900463ffffffff1663ffffffff168163ffffffff1610156109e85782600a0160008263ffffffff1663ffffffff16815260200190815260200160002060009054906101000a900460ff1615828263ffffffff16815181106109c3576109c2613989565b5b60200260200101901515908115158152505080806109e090613a79565b915050610952565b508092505050919050565b600080600083815260200190815260200160002090508060000160009054906101000a900460ff1615610a5b576040517f08c379a0000000000000000000000000000000000000000000000000000000008152600401610a5290613969565b60405180910390fd5b3373ffffffffffffffffffffffffffffffffffffffff168160060160009054906101000a900473ffffffffffffffffffffffffffffffffffffffff1673ffffffffffffffffffffffffffffffffffffffff1614610aed576040517f08c379a0000000000000000000000000000000000000000000000000000000008152600401610ae490613b17565b60405180910390fd5b34816004016000828254610b019190613b37565b925050819055505050565b600080600085815260200190815260200160002090508060000160009054906101000a900460ff1615610b74576040517f08c379a0000000000000000000000000000000000000000000000000000000008152600401610b6b90613969565b60405180910390fd5b3373ffffffffffffffffffffffffffffffffffffffff168160060160009054906101000a900473ffffffffffffffffffffffffffffffffffffffff1673ffffffffffffffffffffffffffffffffffffffff1614610c06576040517f08c379a0000000000000000000000000000000000000000000000000000000008152600401610bfd90613bdd565b60405180910390fd5b806007018381548110610c1c57610c1b613989565b5b906000526020600020906006020160030160019054906101000a900460ff1615610c7b576040517f08c379a0000000000000000000000000000000000000000000000000000000008152600401610c7290613c6f565b60405180910390fd5b6000805b8260080180549050811015610d62578373ffffffffffffffffffffffffffffffffffffffff16836008018281548110610cbb57610cba613989565b5b906000526020600020906003020160000160009054906101000a900473ffffffffffffffffffffffffffffffffffffffff1673ffffffffffffffffffffffffffffffffffffffff16148015610d415750826008018181548110610d2157610d20613989565b5b906000526020600020906003020160020160009054906101000a900460ff165b15610d4f5760019150610d62565b8080610d5a90613c8f565b915050610c7f565b5080610da3576040517f08c379a0000000000000000000000000000000000000000000000000000000008152600401610d9a90613d49565b60405180910390fd5b82826007018581548110610dba57610db9613989565b5b906000526020600020906006020160030160026101000a81548173ffffffffffffffffffffffffffffffffffffffff021916908373ffffffffffffffffffffffffffffffffffffffff1602179055505050505050565b60016000815480929190610e2390613c8f565b919050555060008060006001548152602001908152602001600020905060008160000160006101000a81548160ff02191690831515021790555085816001019081610e6e9190613f0b565b5084816002019081610e809190613f0b565b50838160030181905550828160050181905550818160090160006101000a81548163ffffffff021916908363ffffffff16021790555060008160090160046101000a81548163ffffffff021916908363ffffffff160217905550338160060160006101000a81548173ffffffffffffffffffffffffffffffffffffffff021916908373ffffffffffffffffffffffffffffffffffffffff16021790555060008160040181905550505050505050565b60008060008085815260200190815260200160002090506000816007018481548110610f5e57610f5d613989565b5b90600052602060002090600602016005018054905090506000805b82811015610ffd57836007018681548110610f9757610f96613989565b5b90600052602060002090600602016005018181548110610fba57610fb9613989565b5b90600052602060002090602091828204019190069054906101000a900460ff1660ff1682610fe89190613b37565b91508080610ff590613c8f565b915050610f79565b50818161100a919061400c565b935050505092915050565b60015481565b600080600084815260200190815260200160002090508060000160009054906101000a900460ff1615611083576040517f08c379a000000000000000000000000000000000000000000000000000000000815260040161107a90613969565b60405180910390fd5b8060090160009054906101000a900463ffffffff1663ffffffff168160090160049054906101000a900463ffffffff1663ffffffff16106110f9576040517f08c379a00000000000000000000000000000000000000000000000000000000081526004016110f090614089565b60405180910390fd5b80600a0160008363ffffffff1663ffffffff16815260200190815260200160002060009054906101000a900460ff1615611168576040517f08c379a000000000000000000000000000000000000000000000000000000000815260040161115f906140f5565b60405180910390fd5b8060090160009054906101000a900463ffffffff1663ffffffff168263ffffffff1610801561119e575060008263ffffffff1610155b6111dd576040517f08c379a00000000000000000000000000000000000000000000000000000000081526004016111d490614161565b60405180910390fd5b80600501543414611223576040517f08c379a000000000000000000000000000000000000000000000000000000000815260040161121a906141cd565b60405180910390fd5b6000600260009054906101000a900473ffffffffffffffffffffffffffffffffffffffff1673ffffffffffffffffffffffffffffffffffffffff16634f0575da3384600101856002018660030154886040518663ffffffff1660e01b8152600401611292959493929190614271565b6020604051808303816000875af11580156112b1573d6000803e3d6000fd5b505050506040513d601f19601f820116820180604052508101906112d591906142e7565b905081600901600481819054906101000a900463ffffffff16809291906112fb90613a79565b91906101000a81548163ffffffff021916908363ffffffff160217905550503482600401600082825461132e9190613b37565b92505081905550600182600a0160008563ffffffff1663ffffffff16815260200190815260200160002060006101000a81548160ff0219169083151502179055507f0e0f5c745de6637f5404ab23a3074a8a62a2285b098ff831750d40f08078a8e68160405161139e9190613286565b60405180910390a150505050565b600080600087815260200190815260200160002090508060000160009054906101000a900460ff1615611414576040517f08c379a000000000000000000000000000000000000000000000000000000000815260040161140b90613969565b60405180910390fd5b3373ffffffffffffffffffffffffffffffffffffffff168160060160009054906101000a900473ffffffffffffffffffffffffffffffffffffffff1673ffffffffffffffffffffffffffffffffffffffff16146114a6576040517f08c379a000000000000000000000000000000000000000000000000000000000815260040161149d90614386565b60405180910390fd5b600083905060005b8260070180549050811015611505578260070181815481106114d3576114d2613989565b5b906000526020600020906006020160020154826114f09190613b37565b915080806114fd90613c8f565b9150506114ae565b50808260040154101561154d576040517f08c379a000000000000000000000000000000000000000000000000000000000815260040161154490614418565b60405180910390fd5b60006040518061010001604052808881526020018781526020018681526020018560ff168152602001600015158152602001600073ffffffffffffffffffffffffffffffffffffffff168152602001600067ffffffffffffffff8111156115b7576115b6613045565b5b6040519080825280602002602001820160405280156115e55781602001602082028036833780820191505090505b508152602001600067ffffffffffffffff81111561160657611605613045565b5b6040519080825280602002602001820160405280156116345781602001602082028036833780820191505090505b50815250905082600701819080600181540180825580915050600190039060005260206000209060060201600090919091909150600082015181600001908161167d9190613f0b565b5060208201518160010190816116939190613f0b565b506040820151816002015560608201518160030160006101000a81548160ff021916908360ff16021790555060808201518160030160016101000a81548160ff02191690831515021790555060a08201518160030160026101000a81548173ffffffffffffffffffffffffffffffffffffffff021916908373ffffffffffffffffffffffffffffffffffffffff16021790555060c0820151816004019080519060200190611742929190612995565b5060e082015181600501908051906020019061175f929190612a1f565b5050505050505050505050565b600080600085815260200190815260200160002090508060000160009054906101000a900460ff16156117d4576040517f08c379a00000000000000000000000000000000000000000000000000000000081526004016117cb90613969565b60405180910390fd5b3373ffffffffffffffffffffffffffffffffffffffff168160060160009054906101000a900473ffffffffffffffffffffffffffffffffffffffff1673ffffffffffffffffffffffffffffffffffffffff1614611866576040517f08c379a000000000000000000000000000000000000000000000000000000000815260040161185d906144aa565b60405180910390fd5b8060080160405180606001604052808573ffffffffffffffffffffffffffffffffffffffff16815260200184815260200160011515815250908060018154018082558091505060019003906000526020600020906003020160009091909190915060008201518160000160006101000a81548173ffffffffffffffffffffffffffffffffffffffff021916908373ffffffffffffffffffffffffffffffffffffffff16021790555060208201518160010190816119239190613f0b565b5060408201518160020160006101000a81548160ff021916908315150217905550505050505050565b600080600083815260200190815260200160002090508060000160009054906101000a900460ff16156119b4576040517f08c379a00000000000000000000000000000000000000000000000000000000081526004016119ab90613969565b60405180910390fd5b3373ffffffffffffffffffffffffffffffffffffffff168160060160009054906101000a900473ffffffffffffffffffffffffffffffffffffffff1673ffffffffffffffffffffffffffffffffffffffff1614611a46576040517f08c379a0000000000000000000000000000000000000000000000000000000008152600401611a3d9061453c565b60405180910390fd5b8060030154421015611a8d576040517f08c379a0000000000000000000000000000000000000000000000000000000008152600401611a84906145a8565b60405180910390fd5b6000805b8260070180549050811015611b34576000836007018281548110611ab857611ab7613989565b5b906000526020600020906006020190508060030160019054906101000a900460ff1615611b20576000611aeb8684610f2f565b90508160030160009054906101000a900460ff1660ff168160ff1610611b1e57816002015484611b1b9190613b37565b93505b505b508080611b2c90613c8f565b915050611a91565b50816004015481611b459190613b37565b471015611b87576040517f08c379a0000000000000000000000000000000000000000000000000000000008152600401611b7e90614614565b60405180910390fd5b60005b8260070180549050811015611ca9576000836007018281548110611bb157611bb0613989565b5b906000526020600020906006020190508060030160019054906101000a900460ff1615611c95576000611be48684610f2f565b90508160030160009054906101000a900460ff1660ff168160ff1610611c93578160030160029054906101000a900473ffffffffffffffffffffffffffffffffffffffff1673ffffffffffffffffffffffffffffffffffffffff166108fc83600201549081150290604051600060405180830381858888f19350505050158015611c72573d6000803e3d6000fd5b508160020154856004016000828254611c8b9190614634565b925050819055505b505b508080611ca190613c8f565b915050611b8a565b508160060160009054906101000a900473ffffffffffffffffffffffffffffffffffffffff1673ffffffffffffffffffffffffffffffffffffffff166108fc83600401549081150290604051600060405180830381858888f19350505050158015611d18573d6000803e3d6000fd5b506000826004018190555060018260000160006101000a81548160ff021916908315150217905550505050565b600260009054906101000a900473ffffffffffffffffffffffffffffffffffffffff1681565b600080600084815260200190815260200160002090508060000160009054906101000a900460ff1615611dd3576040517f08c379a0000000000000000000000000000000000000000000000000000000008152600401611dca90613969565b60405180910390fd5b60005b8160080180549050811015611ead573373ffffffffffffffffffffffffffffffffffffffff16826008018281548110611e1257611e11613989565b5b906000526020600020906003020160000160009054906101000a900473ffffffffffffffffffffffffffffffffffffffff1673ffffffffffffffffffffffffffffffffffffffff1603611e9a576040517f08c379a0000000000000000000000000000000000000000000000000000000008152600401611e91906146da565b60405180910390fd5b8080611ea590613c8f565b915050611dd6565b508060080160405180606001604052803373ffffffffffffffffffffffffffffffffffffffff16815260200184815260200160001515815250908060018154018082558091505060019003906000526020600020906003020160009091909190915060008201518160000160006101000a81548173ffffffffffffffffffffffffffffffffffffffff021916908373ffffffffffffffffffffffffffffffffffffffff1602179055506020820151816001019081611f6b9190613f0b565b5060408201518160020160006101000a81548160ff0219169083151502179055505050505050565b60606000806000848152602001908152602001600020905080600701805480602002602001604051908101604052809291908181526020016000905b828210156122ca578382906000526020600020906006020160405180610100016040529081600082018054612003906138ec565b80601f016020809104026020016040519081016040528092919081815260200182805461202f906138ec565b801561207c5780601f106120515761010080835404028352916020019161207c565b820191906000526020600020905b81548152906001019060200180831161205f57829003601f168201915b50505050508152602001600182018054612095906138ec565b80601f01602080910402602001604051908101604052809291908181526020018280546120c1906138ec565b801561210e5780601f106120e35761010080835404028352916020019161210e565b820191906000526020600020905b8154815290600101906020018083116120f157829003601f168201915b50505050508152602001600282015481526020016003820160009054906101000a900460ff1660ff1660ff1681526020016003820160019054906101000a900460ff161515151581526020016003820160029054906101000a900473ffffffffffffffffffffffffffffffffffffffff1673ffffffffffffffffffffffffffffffffffffffff1673ffffffffffffffffffffffffffffffffffffffff1681526020016004820180548060200260200160405190810160405280929190818152602001828054801561223457602002820191906000526020600020905b8160009054906101000a900473ffffffffffffffffffffffffffffffffffffffff1673ffffffffffffffffffffffffffffffffffffffff16815260200190600101908083116121ea575b50505050508152602001600582018054806020026020016040519081016040528092919081815260200182805480156122b257602002820191906000526020600020906000905b82829054906101000a900460ff1660ff168152602001906001019060208260000104928301926001038202915080841161227b5790505b50505050508152505081526020019060010190611fcf565b50505050915050919050565b600080600085815260200190815260200160002090508060000160009054906101000a900460ff161561233e576040517f08c379a000000000000000000000000000000000000000000000000000000000815260040161233590613969565b60405180910390fd5b80600701838154811061235457612353613989565b5b906000526020600020906006020160030160019054906101000a900460ff166123b2576040517f08c379a00000000000000000000000000000000000000000000000000000000081526004016123a99061476c565b60405180910390fd5b3373ffffffffffffffffffffffffffffffffffffffff168160070184815481106123df576123de613989565b5b906000526020600020906006020160030160029054906101000a900473ffffffffffffffffffffffffffffffffffffffff1673ffffffffffffffffffffffffffffffffffffffff1603612467576040517f08c379a000000000000000000000000000000000000000000000000000000000815260040161245e906147fe565b60405180910390fd5b6000805b8260080180549050811015612510573373ffffffffffffffffffffffffffffffffffffffff168360080182815481106124a7576124a6613989565b5b906000526020600020906003020160000160009054906101000a900473ffffffffffffffffffffffffffffffffffffffff1673ffffffffffffffffffffffffffffffffffffffff16036124fd5760019150612510565b808061250890613c8f565b91505061246b565b5080612551576040517f08c379a000000000000000000000000000000000000000000000000000000000815260040161254890614890565b60405180910390fd5b6000805b83600701868154811061256b5761256a613989565b5b906000526020600020906006020160040180549050811015612639573373ffffffffffffffffffffffffffffffffffffffff168460070187815481106125b4576125b3613989565b5b906000526020600020906006020160040182815481106125d7576125d6613989565b5b9060005260206000200160009054906101000a900473ffffffffffffffffffffffffffffffffffffffff1673ffffffffffffffffffffffffffffffffffffffff16036126265760019150612639565b808061263190613c8f565b915050612555565b50801561267b576040517f08c379a000000000000000000000000000000000000000000000000000000000815260040161267290614922565b60405180910390fd5b82600701858154811061269157612690613989565b5b9060005260206000209060060201600401339080600181540180825580915050600190039060005260206000200160009091909190916101000a81548173ffffffffffffffffffffffffffffffffffffffff021916908373ffffffffffffffffffffffffffffffffffffffff16021790555082600701858154811061271957612718613989565b5b90600052602060002090600602016005018490806001815401808255809150506001900390600052602060002090602091828204019190069091909190916101000a81548160ff021916908360ff160217905550505050505050565b600080600084815260200190815260200160002090508060000160009054906101000a900460ff16156127dd576040517f08c379a00000000000000000000000000000000000000000000000000000000081526004016127d490613969565b60405180910390fd5b3373ffffffffffffffffffffffffffffffffffffffff168160060160009054906101000a900473ffffffffffffffffffffffffffffffffffffffff1673ffffffffffffffffffffffffffffffffffffffff161461286f576040517f08c379a0000000000000000000000000000000000000000000000000000000008152600401612866906149b4565b60405180910390fd5b60005b8160080180549050811015612955578273ffffffffffffffffffffffffffffffffffffffff168260080182815481106128ae576128ad613989565b5b906000526020600020906003020160000160009054906101000a900473ffffffffffffffffffffffffffffffffffffffff1673ffffffffffffffffffffffffffffffffffffffff160361294257600182600801828154811061291357612912613989565b5b906000526020600020906003020160020160006101000a81548160ff0219169083151502179055505050612991565b808061294d90613c8f565b915050612872565b506040517f08c379a000000000000000000000000000000000000000000000000000000000815260040161298890614a20565b60405180910390fd5b5050565b828054828255906000526020600020908101928215612a0e579160200282015b82811115612a0d5782518260006101000a81548173ffffffffffffffffffffffffffffffffffffffff021916908373ffffffffffffffffffffffffffffffffffffffff160217905550916020019190600101906129b5565b5b509050612a1b9190612ac6565b5090565b82805482825590600052602060002090601f01602090048101928215612ab55791602002820160005b83821115612a8657835183826101000a81548160ff021916908360ff1602179055509260200192600101602081600001049283019260010302612a48565b8015612ab35782816101000a81549060ff0219169055600101602081600001049283019260010302612a86565b505b509050612ac29190612ac6565b5090565b5b80821115612adf576000816000905550600101612ac7565b5090565b6000604051905090565b600080fd5b600080fd5b6000819050919050565b612b0a81612af7565b8114612b1557600080fd5b50565b600081359050612b2781612b01565b92915050565b600060208284031215612b4357612b42612aed565b5b6000612b5184828501612b18565b91505092915050565b600081519050919050565b600082825260208201905092915050565b6000819050602082019050919050565b600073ffffffffffffffffffffffffffffffffffffffff82169050919050565b6000612bb182612b86565b9050919050565b612bc181612ba6565b82525050565b600081519050919050565b600082825260208201905092915050565b60005b83811015612c01578082015181840152602081019050612be6565b60008484015250505050565b6000601f19601f8301169050919050565b6000612c2982612bc7565b612c338185612bd2565b9350612c43818560208601612be3565b612c4c81612c0d565b840191505092915050565b60008115159050919050565b612c6c81612c57565b82525050565b6000606083016000830151612c8a6000860182612bb8565b5060208301518482036020860152612ca28282612c1e565b9150506040830151612cb76040860182612c63565b508091505092915050565b6000612cce8383612c72565b905092915050565b6000602082019050919050565b6000612cee82612b5a565b612cf88185612b65565b935083602082028501612d0a85612b76565b8060005b85811015612d465784840389528151612d278582612cc2565b9450612d3283612cd6565b925060208a01995050600181019050612d0e565b50829750879550505050505092915050565b60006020820190508181036000830152612d728184612ce3565b905092915050565b612d8381612c57565b82525050565b600082825260208201905092915050565b6000612da582612bc7565b612daf8185612d89565b9350612dbf818560208601612be3565b612dc881612c0d565b840191505092915050565b612ddc81612af7565b82525050565b612deb81612ba6565b82525050565b600063ffffffff82169050919050565b612e0a81612df1565b82525050565b600061012082019050612e26600083018c612d7a565b8181036020830152612e38818b612d9a565b90508181036040830152612e4c818a612d9a565b9050612e5b6060830189612dd3565b612e686080830188612dd3565b612e7560a0830187612dd3565b612e8260c0830186612de2565b612e8f60e0830185612e01565b612e9d610100830184612e01565b9a9950505050505050505050565b60008060408385031215612ec257612ec1612aed565b5b6000612ed085828601612b18565b9250506020612ee185828601612b18565b9150509250929050565b600081519050919050565b600082825260208201905092915050565b6000819050602082019050919050565b6000612f238383612c63565b60208301905092915050565b6000602082019050919050565b6000612f4782612eeb565b612f518185612ef6565b9350612f5c83612f07565b8060005b83811015612f8d578151612f748882612f17565b9750612f7f83612f2f565b925050600181019050612f60565b5085935050505092915050565b60006020820190508181036000830152612fb48184612f3c565b905092915050565b612fc581612ba6565b8114612fd057600080fd5b50565b600081359050612fe281612fbc565b92915050565b60008060006060848603121561300157613000612aed565b5b600061300f86828701612b18565b935050602061302086828701612b18565b925050604061303186828701612fd3565b9150509250925092565b600080fd5b600080fd5b7f4e487b7100000000000000000000000000000000000000000000000000000000600052604160045260246000fd5b61307d82612c0d565b810181811067ffffffffffffffff8211171561309c5761309b613045565b5b80604052505050565b60006130af612ae3565b90506130bb8282613074565b919050565b600067ffffffffffffffff8211156130db576130da613045565b5b6130e482612c0d565b9050602081019050919050565b82818337600083830152505050565b600061311361310e846130c0565b6130a5565b90508281526020810184848401111561312f5761312e613040565b5b61313a8482856130f1565b509392505050565b600082601f8301126131575761315661303b565b5b8135613167848260208601613100565b91505092915050565b61317981612df1565b811461318457600080fd5b50565b60008135905061319681613170565b92915050565b600080600080600060a086880312156131b8576131b7612aed565b5b600086013567ffffffffffffffff8111156131d6576131d5612af2565b5b6131e288828901613142565b955050602086013567ffffffffffffffff81111561320357613202612af2565b5b61320f88828901613142565b945050604061322088828901612b18565b935050606061323188828901612b18565b925050608061324288828901613187565b9150509295509295909350565b600060ff82169050919050565b6132658161324f565b82525050565b6000602082019050613280600083018461325c565b92915050565b600060208201905061329b6000830184612dd3565b92915050565b600080604083850312156132b8576132b7612aed565b5b60006132c685828601612b18565b92505060206132d785828601613187565b9150509250929050565b6132ea8161324f565b81146132f557600080fd5b50565b600081359050613307816132e1565b92915050565b600080600080600060a0868803121561332957613328612aed565b5b600061333788828901612b18565b955050602086013567ffffffffffffffff81111561335857613357612af2565b5b61336488828901613142565b945050604086013567ffffffffffffffff81111561338557613384612af2565b5b61339188828901613142565b93505060606133a288828901612b18565b92505060806133b3888289016132f8565b9150509295509295909350565b6000806000606084860312156133d9576133d8612aed565b5b60006133e786828701612b18565b93505060206133f886828701612fd3565b925050604084013567ffffffffffffffff81111561341957613418612af2565b5b61342586828701613142565b9150509250925092565b6000819050919050565b600061345461344f61344a84612b86565b61342f565b612b86565b9050919050565b600061346682613439565b9050919050565b60006134788261345b565b9050919050565b6134888161346d565b82525050565b60006020820190506134a3600083018461347f565b92915050565b600080604083850312156134c0576134bf612aed565b5b60006134ce85828601612b18565b925050602083013567ffffffffffffffff8111156134ef576134ee612af2565b5b6134fb85828601613142565b9150509250929050565b600081519050919050565b600082825260208201905092915050565b6000819050602082019050919050565b61353a81612af7565b82525050565b6135498161324f565b82525050565b600081519050919050565b600082825260208201905092915050565b6000819050602082019050919050565b60006135878383612bb8565b60208301905092915050565b6000602082019050919050565b60006135ab8261354f565b6135b5818561355a565b93506135c08361356b565b8060005b838110156135f15781516135d8888261357b565b97506135e383613593565b9250506001810190506135c4565b5085935050505092915050565b600081519050919050565b600082825260208201905092915050565b6000819050602082019050919050565b60006136368383613540565b60208301905092915050565b6000602082019050919050565b600061365a826135fe565b6136648185613609565b935061366f8361361a565b8060005b838110156136a0578151613687888261362a565b975061369283613642565b925050600181019050613673565b5085935050505092915050565b60006101008301600083015184820360008601526136cb8282612c1e565b915050602083015184820360208601526136e58282612c1e565b91505060408301516136fa6040860182613531565b50606083015161370d6060860182613540565b5060808301516137206080860182612c63565b5060a083015161373360a0860182612bb8565b5060c083015184820360c086015261374b82826135a0565b91505060e083015184820360e0860152613765828261364f565b9150508091505092915050565b600061377e83836136ad565b905092915050565b6000602082019050919050565b600061379e82613505565b6137a88185613510565b9350836020820285016137ba85613521565b8060005b858110156137f657848403895281516137d78582613772565b94506137e283613786565b925060208a019950506001810190506137be565b50829750879550505050505092915050565b600060208201905081810360008301526138228184613793565b905092915050565b60008060006060848603121561384357613842612aed565b5b600061385186828701612b18565b935050602061386286828701612b18565b9250506040613873868287016132f8565b9150509250925092565b6000806040838503121561389457613893612aed565b5b60006138a285828601612b18565b92505060206138b385828601612fd3565b9150509250929050565b7f4e487b7100000000000000000000000000000000000000000000000000000000600052602260045260246000fd5b6000600282049050600182168061390457607f821691505b602082108103613917576139166138bd565b5b50919050565b7f4576656e7420697320616c72656164792066696e616c697a6564000000000000600082015250565b6000613953601a83612d89565b915061395e8261391d565b602082019050919050565b6000602082019050818103600083015261398281613946565b9050919050565b7f4e487b7100000000000000000000000000000000000000000000000000000000600052603260045260246000fd5b7f4f6e6c79207468652061737369676e656420636f6d70616e792063616e20636f60008201527f6d706c65746520746865207461736b2e00000000000000000000000000000000602082015250565b6000613a14603083612d89565b9150613a1f826139b8565b604082019050919050565b60006020820190508181036000830152613a4381613a07565b9050919050565b7f4e487b7100000000000000000000000000000000000000000000000000000000600052601160045260246000fd5b6000613a8482612df1565b915063ffffffff8203613a9a57613a99613a4a565b5b600182019050919050565b7f4f6e6c7920746865206576656e74206f776e65722063616e20616464206d6f6e60008201527f65792e0000000000000000000000000000000000000000000000000000000000602082015250565b6000613b01602383612d89565b9150613b0c82613aa5565b604082019050919050565b60006020820190508181036000830152613b3081613af4565b9050919050565b6000613b4282612af7565b9150613b4d83612af7565b9250828201905080821115613b6557613b64613a4a565b5b92915050565b7f4f6e6c7920746865206576656e74206f776e65722063616e2061737369676e2060008201527f636f6d70616e6965732e00000000000000000000000000000000000000000000602082015250565b6000613bc7602a83612d89565b9150613bd282613b6b565b604082019050919050565b60006020820190508181036000830152613bf681613bba565b9050919050565b7f43616e6e6f742061737369676e206120636f6d70616e7920746f206120636f6d60008201527f706c65746564207461736b2e0000000000000000000000000000000000000000602082015250565b6000613c59602c83612d89565b9150613c6482613bfd565b604082019050919050565b60006020820190508181036000830152613c8881613c4c565b9050919050565b6000613c9a82612af7565b91507fffffffffffffffffffffffffffffffffffffffffffffffffffffffffffffffff8203613ccc57613ccb613a4a565b5b600182019050919050565b7f436f6d70616e79206973206e6f7420617070726f76656420666f72207468697360008201527f206576656e742e00000000000000000000000000000000000000000000000000602082015250565b6000613d33602783612d89565b9150613d3e82613cd7565b604082019050919050565b60006020820190508181036000830152613d6281613d26565b9050919050565b60008190508160005260206000209050919050565b60006020601f8301049050919050565b600082821b905092915050565b600060088302613dcb7fffffffffffffffffffffffffffffffffffffffffffffffffffffffffffffffff82613d8e565b613dd58683613d8e565b95508019841693508086168417925050509392505050565b6000613e08613e03613dfe84612af7565b61342f565b612af7565b9050919050565b6000819050919050565b613e2283613ded565b613e36613e2e82613e0f565b848454613d9b565b825550505050565b600090565b613e4b613e3e565b613e56818484613e19565b505050565b5b81811015613e7a57613e6f600082613e43565b600181019050613e5c565b5050565b601f821115613ebf57613e9081613d69565b613e9984613d7e565b81016020851015613ea8578190505b613ebc613eb485613d7e565b830182613e5b565b50505b505050565b600082821c905092915050565b6000613ee260001984600802613ec4565b1980831691505092915050565b6000613efb8383613ed1565b9150826002028217905092915050565b613f1482612bc7565b67ffffffffffffffff811115613f2d57613f2c613045565b5b613f3782546138ec565b613f42828285613e7e565b600060209050601f831160018114613f755760008415613f63578287015190505b613f6d8582613eef565b865550613fd5565b601f198416613f8386613d69565b60005b82811015613fab57848901518255600182019150602085019450602081019050613f86565b86831015613fc85784890151613fc4601f891682613ed1565b8355505b6001600288020188555050505b505050505050565b7f4e487b7100000000000000000000000000000000000000000000000000000000600052601260045260246000fd5b600061401782612af7565b915061402283612af7565b92508261403257614031613fdd565b5b828204905092915050565b7f4576656e7420697320736f6c64206f75742e0000000000000000000000000000600082015250565b6000614073601283612d89565b915061407e8261403d565b602082019050919050565b600060208201905081810360008301526140a281614066565b9050919050565b7f54686973207365617420697320616c72656164792074616b656e2e0000000000600082015250565b60006140df601b83612d89565b91506140ea826140a9565b602082019050919050565b6000602082019050818103600083015261410e816140d2565b9050919050565b7f496e76616c69642073656174206e756d6265722e000000000000000000000000600082015250565b600061414b601483612d89565b915061415682614115565b602082019050919050565b6000602082019050818103600083015261417a8161413e565b9050919050565b7f496e636f7272656374207469636b65742070726963652e000000000000000000600082015250565b60006141b7601783612d89565b91506141c282614181565b602082019050919050565b600060208201905081810360008301526141e6816141aa565b9050919050565b600081546141fa816138ec565b6142048186612d89565b9450600182166000811461421f576001811461423557614268565b60ff198316865281151560200286019350614268565b61423e85613d69565b60005b8381101561426057815481890152600182019150602081019050614241565b808801955050505b50505092915050565b600060a0820190506142866000830188612de2565b818103602083015261429881876141ed565b905081810360408301526142ac81866141ed565b90506142bb6060830185612dd3565b6142c86080830184612e01565b9695505050505050565b6000815190506142e181612b01565b92915050565b6000602082840312156142fd576142fc612aed565b5b600061430b848285016142d2565b91505092915050565b7f4f6e6c7920746865206576656e74206f776e65722063616e206372656174652060008201527f7461736b732e0000000000000000000000000000000000000000000000000000602082015250565b6000614370602683612d89565b915061437b82614314565b604082019050919050565b6000602082019050818103600083015261439f81614363565b9050919050565b7f4e6f7420656e6f756768206d6f6e657920696e2074686520636173682062616e60008201527f6b20746f20636f76657220616c6c207461736b732e0000000000000000000000602082015250565b6000614402603583612d89565b915061440d826143a6565b604082019050919050565b60006020820190508181036000830152614431816143f5565b9050919050565b7f4f6e6c7920746865206576656e74206f776e65722063616e2061646420636f6d60008201527f70616e6965732e00000000000000000000000000000000000000000000000000602082015250565b6000614494602783612d89565b915061449f82614438565b604082019050919050565b600060208201905081810360008301526144c381614487565b9050919050565b7f4f6e6c7920746865206576656e74206f776e65722063616e2066696e616c697a60008201527f6520746865206576656e742e0000000000000000000000000000000000000000602082015250565b6000614526602c83612d89565b9150614531826144ca565b604082019050919050565b6000602082019050818103600083015261455581614519565b9050919050565b7f4576656e74206461746520686173206e6f7420706173736564207965742e0000600082015250565b6000614592601e83612d89565b915061459d8261455c565b602082019050919050565b600060208201905081810360008301526145c181614585565b9050919050565b7f496e73756666696369656e7420636f6e74726163742062616c616e63652e0000600082015250565b60006145fe601e83612d89565b9150614609826145c8565b602082019050919050565b6000602082019050818103600083015261462d816145f1565b9050919050565b600061463f82612af7565b915061464a83612af7565b925082820390508181111561466257614661613a4a565b5b92915050565b7f436f6d70616e7920616c72656164792072657175657374656420746f206a6f6960008201527f6e2e000000000000000000000000000000000000000000000000000000000000602082015250565b60006146c4602283612d89565b91506146cf82614668565b604082019050919050565b600060208201905081810360008301526146f3816146b7565b9050919050565b7f5461736b206d75737420626520636f6d706c6574656420746f2062652072617460008201527f65642e0000000000000000000000000000000000000000000000000000000000602082015250565b6000614756602383612d89565b9150614761826146fa565b604082019050919050565b6000602082019050818103600083015261478581614749565b9050919050565b7f457865637574696e6720636f6d70616e792063616e6e6f74207261746520746860008201527f656972206f776e207461736b2e00000000000000000000000000000000000000602082015250565b60006147e8602d83612d89565b91506147f38261478c565b604082019050919050565b60006020820190508181036000830152614817816147db565b9050919050565b7f4f6e6c7920636f6d70616e69657320696e20746865206576656e742063616e2060008201527f72617465207461736b732e000000000000000000000000000000000000000000602082015250565b600061487a602b83612d89565b91506148858261481e565b604082019050919050565b600060208201905081810360008301526148a98161486d565b9050919050565b7f596f757220636f6d70616e792068617320616c7265616479207261746564207460008201527f686973207461736b2e0000000000000000000000000000000000000000000000602082015250565b600061490c602983612d89565b9150614917826148b0565b604082019050919050565b6000602082019050818103600083015261493b816148ff565b9050919050565b7f4f6e6c7920746865206576656e74206f776e65722063616e20617070726f766560008201527f20636f6d70616e6965732e000000000000000000000000000000000000000000602082015250565b600061499e602b83612d89565b91506149a982614942565b604082019050919050565b600060208201905081810360008301526149cd81614991565b9050919050565b7f436f6d70616e79206e6f7420666f756e642e0000000000000000000000000000600082015250565b6000614a0a601283612d89565b9150614a15826149d4565b602082019050919050565b60006020820190508181036000830152614a39816149fd565b905091905056fea264697066735822122063048966f60bacf083e216eb5855a781ab4925d5076ec8e6063ddfd2d68a8d2664736f6c63430008140033",
  "immutableReferences": {},
  "source": "// SPDX-License-Identifier: MIT\npragma solidity ^0.8.20;\n\nimport \"@openzeppelin/contracts/token/ERC721/ERC721.sol\";\nimport \"./TicketNFT.sol\";\n\ncontract EventManager {\n    event TicketPurchased(uint256 ticketID);\n\n    struct Task {\n        string name;\n        string details;\n        uint256 reward;\n        uint8 minRating;\n        bool completed;\n        address assignedCompany;\n        address[] raters;\n        uint8[] ratings;\n    }\n\n    struct Company {\n        address companyAddress;\n        string name;\n        bool approved;\n    }\n\n    struct Event {\n        bool isFinalized;\n        string name;\n        string details;\n        uint256 date;\n        uint256 cashBank;\n        uint256 ticketPrice;\n        address owner;\n        Task[] tasks;\n        Company[] companies;\n        uint32 totalTickets;\n        uint32 ticketsSold;\n        mapping(uint32 => bool) seatTaken;\n    }\n\n    mapping(uint => Event) public events;\n    uint public eventCount;\n    TicketNFT public ticketNFT;\n\n    constructor(address _ticketNFT) {\n        ticketNFT = TicketNFT(_ticketNFT);\n    }\n\n    function createEvent(\n        string memory _name, \n        string memory _details, \n        uint256 _date, \n        uint256 _ticketPrice,\n        uint32 _totalTickets\n    ) public {\n        eventCount++;\n        Event storage newEvent = events[eventCount];\n        newEvent.isFinalized = false;\n        newEvent.name = _name;\n        newEvent.details = _details;\n        newEvent.date = _date;\n        newEvent.ticketPrice = _ticketPrice;\n        newEvent.totalTickets = _totalTickets;\n        newEvent.ticketsSold = 0;\n        newEvent.owner = msg.sender;\n        newEvent.cashBank = 0;\n    }\n\n    function addMoneyToCashBank(uint _eventId) public payable {\n        Event storage eventInstance = events[_eventId];\n        require(!eventInstance.isFinalized, \"Event is already finalized\");\n        require(eventInstance.owner == msg.sender, \"Only the event owner can add money.\");\n        eventInstance.cashBank += msg.value;\n    }\n\n    function createTask(\n        uint _eventId, \n        string memory _name, \n        string memory _details, \n        uint256 _reward, \n        uint8 _minRating\n    ) public {\n        Event storage eventInstance = events[_eventId];\n        require(!eventInstance.isFinalized, \"Event is already finalized\");\n        require(eventInstance.owner == msg.sender, \"Only the event owner can create tasks.\");\n        uint256 totalRewardRequired = _reward;\n        for (uint i = 0; i < eventInstance.tasks.length; i++) \n            totalRewardRequired += eventInstance.tasks[i].reward;\n        require(eventInstance.cashBank >= totalRewardRequired, \"Not enough money in the cash bank to cover all tasks.\");\n\n        Task memory newTask = Task({\n            name: _name,\n            details: _details,\n            reward: _reward,\n            minRating: _minRating,\n            completed: false,\n            assignedCompany: address(0),\n            raters: new address[](0),\n            ratings: new uint8[](0)\n        });\n        eventInstance.tasks.push(newTask);\n    }\n\n    function getAllTasks(uint _eventId) public view returns (Task[] memory) {\n        Event storage eventInstance = events[_eventId];\n        return eventInstance.tasks;\n    }\n\n    function addCompany(uint _eventId, address _companyAddress, string memory _name) public {\n        Event storage eventInstance = events[_eventId];\n        require(!eventInstance.isFinalized, \"Event is already finalized\");\n        require(eventInstance.owner == msg.sender, \"Only the event owner can add companies.\");\n        eventInstance.companies.push(Company({\n            companyAddress: _companyAddress,\n            name: _name,\n            approved: true\n        }));\n    }\n\n    function requestToJoin(uint _eventId, string memory _name) public {\n        Event storage eventInstance = events[_eventId];\n        require(!eventInstance.isFinalized, \"Event is already finalized\");\n        for (uint i = 0; i < eventInstance.companies.length; i++) {\n            require(eventInstance.companies[i].companyAddress != msg.sender, \"Company already requested to join.\");\n        }\n        eventInstance.companies.push(Company({\n            companyAddress: msg.sender,\n            name: _name,\n            approved: false\n        }));\n    }\n\n    function approveCompany(uint _eventId, address _companyAddress) public {\n        Event storage eventInstance = events[_eventId];\n        require(!eventInstance.isFinalized, \"Event is already finalized\");\n        require(eventInstance.owner == msg.sender, \"Only the event owner can approve companies.\");\n        for (uint i = 0; i < eventInstance.companies.length; i++) {\n            if (eventInstance.companies[i].companyAddress == _companyAddress) {\n                eventInstance.companies[i].approved = true;\n                return;\n            }\n        }\n        revert(\"Company not found.\");\n    }\n\n    function getAllCompanies(uint _eventId) public view returns (Company[] memory) {\n        Event storage eventInstance = events[_eventId];\n        return eventInstance.companies;\n    }\n\n    function assignCompanyToTask(uint _eventId, uint _taskId, address _companyAddress) public {\n        Event storage eventInstance = events[_eventId];\n        require(!eventInstance.isFinalized, \"Event is already finalized\");\n        require(eventInstance.owner == msg.sender, \"Only the event owner can assign companies.\");\n        require(!eventInstance.tasks[_taskId].completed, \"Cannot assign a company to a completed task.\");\n        bool companyApproved = false;\n        for (uint i = 0; i < eventInstance.companies.length; i++) {\n            if (eventInstance.companies[i].companyAddress == _companyAddress && eventInstance.companies[i].approved) {\n                companyApproved = true;\n                break;\n            }\n        }\n        require(companyApproved, \"Company is not approved for this event.\");\n        \n        eventInstance.tasks[_taskId].assignedCompany = _companyAddress;\n    }\n\n    function purchaseTicket(\n        uint _eventId,\n        uint32 _seat\n    ) public payable {\n        Event storage eventInstance = events[_eventId];\n        require(!eventInstance.isFinalized, \"Event is already finalized\");\n        require(eventInstance.ticketsSold < eventInstance.totalTickets, \"Event is sold out.\");\n        require(!eventInstance.seatTaken[_seat], \"This seat is already taken.\");\n        require(_seat < eventInstance.totalTickets && _seat >= 0, \"Invalid seat number.\");\n        require(msg.value == eventInstance.ticketPrice, \"Incorrect ticket price.\");\n\n        uint256 ticketID = ticketNFT.mint(\n            msg.sender, \n            eventInstance.name, \n            eventInstance.details, \n            eventInstance.date, \n            _seat\n        );\n        eventInstance.ticketsSold++;\n        eventInstance.cashBank += msg.value;\n        eventInstance.seatTaken[_seat] = true;\n\n        emit TicketPurchased(ticketID);\n    }\n\n    function getSeatAvailability(uint _eventId) public view returns (bool[] memory) {\n        Event storage eventInstance = events[_eventId];\n        bool[] memory availability = new bool[](eventInstance.totalTickets);\n        \n        for (uint32 i = 0; i < eventInstance.totalTickets; i++) {\n            availability[i] = !eventInstance.seatTaken[i];\n        }\n        \n        return availability;\n    }\n\n    function completeTask(uint _eventId, uint _taskId) public {\n        Event storage eventInstance = events[_eventId];\n        require(!eventInstance.isFinalized, \"Event is already finalized\");\n        require(eventInstance.tasks[_taskId].assignedCompany == msg.sender, \"Only the assigned company can complete the task.\");\n        eventInstance.tasks[_taskId].completed = true;\n    }\n\n    function rateTask(uint _eventId, uint _taskId, uint8 _rating) public {\n        Event storage eventInstance = events[_eventId];\n        require(!eventInstance.isFinalized, \"Event is already finalized\");\n        require(eventInstance.tasks[_taskId].completed, \"Task must be completed to be rated.\");\n        require(eventInstance.tasks[_taskId].assignedCompany != msg.sender, \"Executing company cannot rate their own task.\");\n        bool isCompanyInEvent = false;\n        for (uint i = 0; i < eventInstance.companies.length; i++) {\n            if (eventInstance.companies[i].companyAddress == msg.sender) {\n                isCompanyInEvent = true;\n                break;\n            }\n        }\n        require(isCompanyInEvent, \"Only companies in the event can rate tasks.\");\n        bool thisCompanyAlreadyRated = false;\n        for (uint i = 0; i < eventInstance.tasks[_taskId].raters.length; i++) {\n            if (eventInstance.tasks[_taskId].raters[i] == msg.sender) {\n                thisCompanyAlreadyRated = true;\n                break;\n            }\n        }\n        require(!thisCompanyAlreadyRated, \"Your company has already rated this task.\");\n        eventInstance.tasks[_taskId].raters.push(msg.sender);\n        eventInstance.tasks[_taskId].ratings.push(_rating);\n    }\n\n    function finalizeEvent(uint _eventId) public {\n        Event storage eventInstance = events[_eventId];\n        require(!eventInstance.isFinalized, \"Event is already finalized\");\n        require(eventInstance.owner == msg.sender, \"Only the event owner can finalize the event.\");\n        require(block.timestamp >= eventInstance.date, \"Event date has not passed yet.\");\n        uint totalRewards = 0;\n        for (uint i = 0; i < eventInstance.tasks.length; i++) {\n            Task storage task = eventInstance.tasks[i];\n            if (task.completed) {\n                uint8 averageRating = calculateAverageRating(_eventId, i);\n                if (averageRating >= task.minRating) {\n                    totalRewards += task.reward;\n                }\n            }\n        }\n        require(address(this).balance >= totalRewards + eventInstance.cashBank, \"Insufficient contract balance.\");\n        \n        for (uint i = 0; i < eventInstance.tasks.length; i++) {\n            Task storage task = eventInstance.tasks[i];\n            if (task.completed) {\n                uint8 averageRating = calculateAverageRating(_eventId, i);\n                if (averageRating >= task.minRating) {\n                    payable(task.assignedCompany).transfer(task.reward);\n                    eventInstance.cashBank -= task.reward;\n                }\n            }\n        }\n\n        payable(eventInstance.owner).transfer(eventInstance.cashBank);\n        eventInstance.cashBank = 0;\n        eventInstance.isFinalized = true;\n    }\n\n    function calculateAverageRating(uint _eventId, uint _taskId) public view returns (uint8) {\n        Event storage eventInstance = events[_eventId];\n        uint256 numOfRatings = eventInstance.tasks[_taskId].ratings.length;\n        uint256 ratingSum = 0;\n\n        for (uint i = 0; i < numOfRatings; i++) {\n            ratingSum += eventInstance.tasks[_taskId].ratings[i];\n        }\n\n        return uint8(ratingSum / numOfRatings);\n    }\n}",
  "sourcePath": "/Users/itaybiton/Desktop/DappTruffle/EventCoin/contracts/EventManager.sol",
  "compiler": {
    "name": "solc",
    "version": "0.8.20+commit.a1b79de6.Emscripten.clang"
  },
  "schemaVersion": "3.4.16",
  "updatedAt": "2024-08-26T20:33:24.123Z",
  "networkType": "ethereum",
  "devdoc": {
    "kind": "dev",
    "methods": {},
    "version": 1
  },
  "userdoc": {
    "kind": "user",
    "methods": {},
    "version": 1
  }
}