{
  "contractName": "TicketNFT",
  "abi": [
    {
      "inputs": [],
      "stateMutability": "nonpayable",
      "type": "constructor"
    },
    {
      "inputs": [
        {
          "internalType": "address",
          "name": "sender",
          "type": "address"
        },
        {
          "internalType": "uint256",
          "name": "tokenId",
          "type": "uint256"
        },
        {
          "internalType": "address",
          "name": "owner",
          "type": "address"
        }
      ],
      "name": "ERC721IncorrectOwner",
      "type": "error"
    },
    {
      "inputs": [
        {
          "internalType": "address",
          "name": "operator",
          "type": "address"
        },
        {
          "internalType": "uint256",
          "name": "tokenId",
          "type": "uint256"
        }
      ],
      "name": "ERC721InsufficientApproval",
      "type": "error"
    },
    {
      "inputs": [
        {
          "internalType": "address",
          "name": "approver",
          "type": "address"
        }
      ],
      "name": "ERC721InvalidApprover",
      "type": "error"
    },
    {
      "inputs": [
        {
          "internalType": "address",
          "name": "operator",
          "type": "address"
        }
      ],
      "name": "ERC721InvalidOperator",
      "type": "error"
    },
    {
      "inputs": [
        {
          "internalType": "address",
          "name": "owner",
          "type": "address"
        }
      ],
      "name": "ERC721InvalidOwner",
      "type": "error"
    },
    {
      "inputs": [
        {
          "internalType": "address",
          "name": "receiver",
          "type": "address"
        }
      ],
      "name": "ERC721InvalidReceiver",
      "type": "error"
    },
    {
      "inputs": [
        {
          "internalType": "address",
          "name": "sender",
          "type": "address"
        }
      ],
      "name": "ERC721InvalidSender",
      "type": "error"
    },
    {
      "inputs": [
        {
          "internalType": "uint256",
          "name": "tokenId",
          "type": "uint256"
        }
      ],
      "name": "ERC721NonexistentToken",
      "type": "error"
    },
    {
      "anonymous": false,
      "inputs": [
        {
          "indexed": true,
          "internalType": "address",
          "name": "owner",
          "type": "address"
        },
        {
          "indexed": true,
          "internalType": "address",
          "name": "approved",
          "type": "address"
        },
        {
          "indexed": true,
          "internalType": "uint256",
          "name": "tokenId",
          "type": "uint256"
        }
      ],
      "name": "Approval",
      "type": "event"
    },
    {
      "anonymous": false,
      "inputs": [
        {
          "indexed": true,
          "internalType": "address",
          "name": "owner",
          "type": "address"
        },
        {
          "indexed": true,
          "internalType": "address",
          "name": "operator",
          "type": "address"
        },
        {
          "indexed": false,
          "internalType": "bool",
          "name": "approved",
          "type": "bool"
        }
      ],
      "name": "ApprovalForAll",
      "type": "event"
    },
    {
      "anonymous": false,
      "inputs": [
        {
          "indexed": false,
          "internalType": "uint256",
          "name": "_fromTokenId",
          "type": "uint256"
        },
        {
          "indexed": false,
          "internalType": "uint256",
          "name": "_toTokenId",
          "type": "uint256"
        }
      ],
      "name": "BatchMetadataUpdate",
      "type": "event"
    },
    {
      "anonymous": false,
      "inputs": [
        {
          "indexed": false,
          "internalType": "uint256",
          "name": "_tokenId",
          "type": "uint256"
        }
      ],
      "name": "MetadataUpdate",
      "type": "event"
    },
    {
      "anonymous": false,
      "inputs": [
        {
          "indexed": true,
          "internalType": "address",
          "name": "from",
          "type": "address"
        },
        {
          "indexed": true,
          "internalType": "address",
          "name": "to",
          "type": "address"
        },
        {
          "indexed": true,
          "internalType": "uint256",
          "name": "tokenId",
          "type": "uint256"
        }
      ],
      "name": "Transfer",
      "type": "event"
    },
    {
      "inputs": [
        {
          "internalType": "address",
          "name": "to",
          "type": "address"
        },
        {
          "internalType": "uint256",
          "name": "tokenId",
          "type": "uint256"
        }
      ],
      "name": "approve",
      "outputs": [],
      "stateMutability": "nonpayable",
      "type": "function"
    },
    {
      "inputs": [
        {
          "internalType": "address",
          "name": "owner",
          "type": "address"
        }
      ],
      "name": "balanceOf",
      "outputs": [
        {
          "internalType": "uint256",
          "name": "",
          "type": "uint256"
        }
      ],
      "stateMutability": "view",
      "type": "function",
      "constant": true
    },
    {
      "inputs": [
        {
          "internalType": "uint256",
          "name": "tokenId",
          "type": "uint256"
        }
      ],
      "name": "getApproved",
      "outputs": [
        {
          "internalType": "address",
          "name": "",
          "type": "address"
        }
      ],
      "stateMutability": "view",
      "type": "function",
      "constant": true
    },
    {
      "inputs": [
        {
          "internalType": "address",
          "name": "owner",
          "type": "address"
        },
        {
          "internalType": "address",
          "name": "operator",
          "type": "address"
        }
      ],
      "name": "isApprovedForAll",
      "outputs": [
        {
          "internalType": "bool",
          "name": "",
          "type": "bool"
        }
      ],
      "stateMutability": "view",
      "type": "function",
      "constant": true
    },
    {
      "inputs": [],
      "name": "name",
      "outputs": [
        {
          "internalType": "string",
          "name": "",
          "type": "string"
        }
      ],
      "stateMutability": "view",
      "type": "function",
      "constant": true
    },
    {
      "inputs": [],
      "name": "nextTokenId",
      "outputs": [
        {
          "internalType": "uint256",
          "name": "",
          "type": "uint256"
        }
      ],
      "stateMutability": "view",
      "type": "function",
      "constant": true
    },
    {
      "inputs": [
        {
          "internalType": "uint256",
          "name": "tokenId",
          "type": "uint256"
        }
      ],
      "name": "ownerOf",
      "outputs": [
        {
          "internalType": "address",
          "name": "",
          "type": "address"
        }
      ],
      "stateMutability": "view",
      "type": "function",
      "constant": true
    },
    {
      "inputs": [
        {
          "internalType": "address",
          "name": "from",
          "type": "address"
        },
        {
          "internalType": "address",
          "name": "to",
          "type": "address"
        },
        {
          "internalType": "uint256",
          "name": "tokenId",
          "type": "uint256"
        }
      ],
      "name": "safeTransferFrom",
      "outputs": [],
      "stateMutability": "nonpayable",
      "type": "function"
    },
    {
      "inputs": [
        {
          "internalType": "address",
          "name": "from",
          "type": "address"
        },
        {
          "internalType": "address",
          "name": "to",
          "type": "address"
        },
        {
          "internalType": "uint256",
          "name": "tokenId",
          "type": "uint256"
        },
        {
          "internalType": "bytes",
          "name": "data",
          "type": "bytes"
        }
      ],
      "name": "safeTransferFrom",
      "outputs": [],
      "stateMutability": "nonpayable",
      "type": "function"
    },
    {
      "inputs": [
        {
          "internalType": "address",
          "name": "operator",
          "type": "address"
        },
        {
          "internalType": "bool",
          "name": "approved",
          "type": "bool"
        }
      ],
      "name": "setApprovalForAll",
      "outputs": [],
      "stateMutability": "nonpayable",
      "type": "function"
    },
    {
      "inputs": [
        {
          "internalType": "bytes4",
          "name": "interfaceId",
          "type": "bytes4"
        }
      ],
      "name": "supportsInterface",
      "outputs": [
        {
          "internalType": "bool",
          "name": "",
          "type": "bool"
        }
      ],
      "stateMutability": "view",
      "type": "function",
      "constant": true
    },
    {
      "inputs": [],
      "name": "symbol",
      "outputs": [
        {
          "internalType": "string",
          "name": "",
          "type": "string"
        }
      ],
      "stateMutability": "view",
      "type": "function",
      "constant": true
    },
    {
      "inputs": [
        {
          "internalType": "uint256",
          "name": "",
          "type": "uint256"
        }
      ],
      "name": "ticketDetails",
      "outputs": [
        {
          "internalType": "string",
          "name": "eventName",
          "type": "string"
        },
        {
          "internalType": "string",
          "name": "eventDetails",
          "type": "string"
        },
        {
          "internalType": "uint256",
          "name": "eventDate",
          "type": "uint256"
        },
        {
          "internalType": "uint32",
          "name": "seat",
          "type": "uint32"
        }
      ],
      "stateMutability": "view",
      "type": "function",
      "constant": true
    },
    {
      "inputs": [
        {
          "internalType": "uint256",
          "name": "tokenId",
          "type": "uint256"
        }
      ],
      "name": "tokenURI",
      "outputs": [
        {
          "internalType": "string",
          "name": "",
          "type": "string"
        }
      ],
      "stateMutability": "view",
      "type": "function",
      "constant": true
    },
    {
      "inputs": [
        {
          "internalType": "address",
          "name": "from",
          "type": "address"
        },
        {
          "internalType": "address",
          "name": "to",
          "type": "address"
        },
        {
          "internalType": "uint256",
          "name": "tokenId",
          "type": "uint256"
        }
      ],
      "name": "transferFrom",
      "outputs": [],
      "stateMutability": "nonpayable",
      "type": "function"
    },
    {
      "inputs": [
        {
          "internalType": "address",
          "name": "to",
          "type": "address"
        },
        {
          "internalType": "string",
          "name": "_eventName",
          "type": "string"
        },
        {
          "internalType": "string",
          "name": "_eventDetails",
          "type": "string"
        },
        {
          "internalType": "uint256",
          "name": "_eventDate",
          "type": "uint256"
        },
        {
          "internalType": "uint32",
          "name": "_seat",
          "type": "uint32"
        }
      ],
      "name": "mint",
      "outputs": [
        {
          "internalType": "uint256",
          "name": "",
          "type": "uint256"
        }
      ],
      "stateMutability": "nonpayable",
      "type": "function"
    },
    {
      "inputs": [
        {
          "internalType": "address",
          "name": "owner",
          "type": "address"
        }
      ],
      "name": "getOwnedTokens",
      "outputs": [
        {
          "internalType": "uint256[]",
          "name": "",
          "type": "uint256[]"
        }
      ],
      "stateMutability": "view",
      "type": "function",
      "constant": true
    }
  ],
  "bytecode": "0x60806040523480156200001157600080fd5b506040518060400160405280600c81526020017f4576656e74205469636b657400000000000000000000000000000000000000008152506040518060400160405280600481526020017f45544b540000000000000000000000000000000000000000000000000000000081525081600090816200008f919062000324565b508060019081620000a1919062000324565b5050506200040b565b600081519050919050565b7f4e487b7100000000000000000000000000000000000000000000000000000000600052604160045260246000fd5b7f4e487b7100000000000000000000000000000000000000000000000000000000600052602260045260246000fd5b600060028204905060018216806200012c57607f821691505b602082108103620001425762000141620000e4565b5b50919050565b60008190508160005260206000209050919050565b60006020601f8301049050919050565b600082821b905092915050565b600060088302620001ac7fffffffffffffffffffffffffffffffffffffffffffffffffffffffffffffffff826200016d565b620001b886836200016d565b95508019841693508086168417925050509392505050565b6000819050919050565b6000819050919050565b600062000205620001ff620001f984620001d0565b620001da565b620001d0565b9050919050565b6000819050919050565b6200022183620001e4565b6200023962000230826200020c565b8484546200017a565b825550505050565b600090565b6200025062000241565b6200025d81848462000216565b505050565b5b8181101562000285576200027960008262000246565b60018101905062000263565b5050565b601f821115620002d4576200029e8162000148565b620002a9846200015d565b81016020851015620002b9578190505b620002d1620002c8856200015d565b83018262000262565b50505b505050565b600082821c905092915050565b6000620002f960001984600802620002d9565b1980831691505092915050565b6000620003148383620002e6565b9150826002028217905092915050565b6200032f82620000aa565b67ffffffffffffffff8111156200034b576200034a620000b5565b5b62000357825462000113565b6200036482828562000289565b600060209050601f8311600181146200039c576000841562000387578287015190505b62000393858262000306565b86555062000403565b601f198416620003ac8662000148565b60005b82811015620003d657848901518255600182019150602085019450602081019050620003af565b86831015620003f65784890151620003f2601f891682620002e6565b8355505b6001600288020188555050505b505050505050565b613899806200041b6000396000f3fe608060405234801561001057600080fd5b506004361061010b5760003560e01c80636352211e116100a2578063a22cb46511610071578063a22cb465146102e1578063b88d4fde146102fd578063c87b56dd14610319578063d9d6165514610349578063e985e9c5146103795761010b565b80636352211e1461024557806370a082311461027557806375794a3c146102a557806395d89b41146102c35761010b565b8063095ea7b3116100de578063095ea7b3146101c157806323b872dd146101dd57806342842e0e146101f95780634f0575da146102155761010b565b806301ffc9a714610110578063033fab351461014057806306fdde0314610173578063081812fc14610191575b600080fd5b61012a60048036038101906101259190612289565b6103a9565b60405161013791906122d1565b60405180910390f35b61015a60048036038101906101559190612322565b61040a565b60405161016a949392919061240d565b60405180910390f35b61017b61055a565b6040516101889190612460565b60405180910390f35b6101ab60048036038101906101a69190612322565b6105ec565b6040516101b891906124c3565b60405180910390f35b6101db60048036038101906101d6919061250a565b610608565b005b6101f760048036038101906101f2919061254a565b61061e565b005b610213600480360381019061020e919061254a565b610720565b005b61022f600480360381019061022a91906126fe565b610740565b60405161023c91906127b1565b60405180910390f35b61025f600480360381019061025a9190612322565b610892565b60405161026c91906124c3565b60405180910390f35b61028f600480360381019061028a91906127cc565b6108a4565b60405161029c91906127b1565b60405180910390f35b6102ad61095e565b6040516102ba91906127b1565b60405180910390f35b6102cb610964565b6040516102d89190612460565b60405180910390f35b6102fb60048036038101906102f69190612825565b6109f6565b005b61031760048036038101906103129190612906565b610a0c565b005b610333600480360381019061032e9190612322565b610a29565b6040516103409190612460565b60405180910390f35b610363600480360381019061035e91906127cc565b610b3c565b6040516103709190612a47565b60405180910390f35b610393600480360381019061038e9190612a69565b610bd3565b6040516103a091906122d1565b60405180910390f35b6000634906490660e01b7bffffffffffffffffffffffffffffffffffffffffffffffffffffffff1916827bffffffffffffffffffffffffffffffffffffffffffffffffffffffff19161480610403575061040282610c67565b5b9050919050565b600860205280600052604060002060009150905080600001805461042d90612ad8565b80601f016020809104026020016040519081016040528092919081815260200182805461045990612ad8565b80156104a65780601f1061047b576101008083540402835291602001916104a6565b820191906000526020600020905b81548152906001019060200180831161048957829003601f168201915b5050505050908060010180546104bb90612ad8565b80601f01602080910402602001604051908101604052809291908181526020018280546104e790612ad8565b80156105345780601f1061050957610100808354040283529160200191610534565b820191906000526020600020905b81548152906001019060200180831161051757829003601f168201915b5050505050908060020154908060030160009054906101000a900463ffffffff16905084565b60606000805461056990612ad8565b80601f016020809104026020016040519081016040528092919081815260200182805461059590612ad8565b80156105e25780601f106105b7576101008083540402835291602001916105e2565b820191906000526020600020905b8154815290600101906020018083116105c557829003601f168201915b5050505050905090565b60006105f782610d49565b5061060182610dd1565b9050919050565b61061a8282610615610e0e565b610e16565b5050565b600073ffffffffffffffffffffffffffffffffffffffff168273ffffffffffffffffffffffffffffffffffffffff16036106905760006040517f64a0ae9200000000000000000000000000000000000000000000000000000000815260040161068791906124c3565b60405180910390fd5b60006106a4838361069f610e0e565b610e28565b90508373ffffffffffffffffffffffffffffffffffffffff168173ffffffffffffffffffffffffffffffffffffffff161461071a578382826040517f64283d7b00000000000000000000000000000000000000000000000000000000815260040161071193929190612b09565b60405180910390fd5b50505050565b61073b83838360405180602001604052806000815250610a0c565b505050565b60008060075490506107528782611042565b60405180608001604052808781526020018681526020018581526020018463ffffffff168152506008600083815260200190815260200160002060008201518160000190816107a19190612cec565b5060208201518160010190816107b79190612cec565b506040820151816002015560608201518160030160006101000a81548163ffffffff021916908363ffffffff160217905550905050600960008873ffffffffffffffffffffffffffffffffffffffff1673ffffffffffffffffffffffffffffffffffffffff168152602001908152602001600020819080600181540180825580915050600190039060005260206000200160009091909190915055600061086087878787611060565b905061086c82826110f7565b6007600081548092919061087f90612ded565b9190505550819250505095945050505050565b600061089d82610d49565b9050919050565b60008073ffffffffffffffffffffffffffffffffffffffff168273ffffffffffffffffffffffffffffffffffffffff16036109175760006040517f89c62b6400000000000000000000000000000000000000000000000000000000815260040161090e91906124c3565b60405180910390fd5b600360008373ffffffffffffffffffffffffffffffffffffffff1673ffffffffffffffffffffffffffffffffffffffff168152602001908152602001600020549050919050565b60075481565b60606001805461097390612ad8565b80601f016020809104026020016040519081016040528092919081815260200182805461099f90612ad8565b80156109ec5780601f106109c1576101008083540402835291602001916109ec565b820191906000526020600020905b8154815290600101906020018083116109cf57829003601f168201915b5050505050905090565b610a08610a01610e0e565b8383611153565b5050565b610a1784848461061e565b610a23848484846112c2565b50505050565b6060610a3482610d49565b506000600660008481526020019081526020016000208054610a5590612ad8565b80601f0160208091040260200160405190810160405280929190818152602001828054610a8190612ad8565b8015610ace5780601f10610aa357610100808354040283529160200191610ace565b820191906000526020600020905b815481529060010190602001808311610ab157829003601f168201915b505050505090506000610adf611479565b90506000815103610af4578192505050610b37565b600082511115610b29578082604051602001610b11929190612e71565b60405160208183030381529060405292505050610b37565b610b3284611490565b925050505b919050565b6060600960008373ffffffffffffffffffffffffffffffffffffffff1673ffffffffffffffffffffffffffffffffffffffff168152602001908152602001600020805480602002602001604051908101604052809291908181526020018280548015610bc757602002820191906000526020600020905b815481526020019060010190808311610bb3575b50505050509050919050565b6000600560008473ffffffffffffffffffffffffffffffffffffffff1673ffffffffffffffffffffffffffffffffffffffff16815260200190815260200160002060008373ffffffffffffffffffffffffffffffffffffffff1673ffffffffffffffffffffffffffffffffffffffff16815260200190815260200160002060009054906101000a900460ff16905092915050565b60007f80ac58cd000000000000000000000000000000000000000000000000000000007bffffffffffffffffffffffffffffffffffffffffffffffffffffffff1916827bffffffffffffffffffffffffffffffffffffffffffffffffffffffff19161480610d3257507f5b5e139f000000000000000000000000000000000000000000000000000000007bffffffffffffffffffffffffffffffffffffffffffffffffffffffff1916827bffffffffffffffffffffffffffffffffffffffffffffffffffffffff1916145b80610d425750610d41826114f9565b5b9050919050565b600080610d5583611563565b9050600073ffffffffffffffffffffffffffffffffffffffff168173ffffffffffffffffffffffffffffffffffffffff1603610dc857826040517f7e273289000000000000000000000000000000000000000000000000000000008152600401610dbf91906127b1565b60405180910390fd5b80915050919050565b60006004600083815260200190815260200160002060009054906101000a900473ffffffffffffffffffffffffffffffffffffffff169050919050565b600033905090565b610e2383838360016115a0565b505050565b600080610e3484611563565b9050600073ffffffffffffffffffffffffffffffffffffffff168373ffffffffffffffffffffffffffffffffffffffff1614610e7657610e75818486611765565b5b600073ffffffffffffffffffffffffffffffffffffffff168173ffffffffffffffffffffffffffffffffffffffff1614610f0757610eb86000856000806115a0565b6001600360008373ffffffffffffffffffffffffffffffffffffffff1673ffffffffffffffffffffffffffffffffffffffff168152602001908152602001600020600082825403925050819055505b600073ffffffffffffffffffffffffffffffffffffffff168573ffffffffffffffffffffffffffffffffffffffff1614610f8a576001600360008773ffffffffffffffffffffffffffffffffffffffff1673ffffffffffffffffffffffffffffffffffffffff168152602001908152602001600020600082825401925050819055505b846002600086815260200190815260200160002060006101000a81548173ffffffffffffffffffffffffffffffffffffffff021916908373ffffffffffffffffffffffffffffffffffffffff160217905550838573ffffffffffffffffffffffffffffffffffffffff168273ffffffffffffffffffffffffffffffffffffffff167fddf252ad1be2c89b69c2b068fc378daa952ba7f163c4a11628f55a4df523b3ef60405160405180910390a4809150509392505050565b61105c828260405180602001604052806000815250611829565b5050565b606060008561106e85611845565b61107d8563ffffffff16611845565b60405160200161108f9392919061318d565b604051602081830303815290604052905060006110ab826119cd565b905086866110b887611845565b6110c78763ffffffff16611845565b846040516020016110dc9594939291906134a7565b60405160208183030381529060405292505050949350505050565b806006600084815260200190815260200160002090816111179190612cec565b507ff8e1a15aba9398e019f0b49df1a4fde98ee17ae345cb5f6b5e2c27f5033e8ce78260405161114791906127b1565b60405180910390a15050565b600073ffffffffffffffffffffffffffffffffffffffff168273ffffffffffffffffffffffffffffffffffffffff16036111c457816040517f5b08ba180000000000000000000000000000000000000000000000000000000081526004016111bb91906124c3565b60405180910390fd5b80600560008573ffffffffffffffffffffffffffffffffffffffff1673ffffffffffffffffffffffffffffffffffffffff16815260200190815260200160002060008473ffffffffffffffffffffffffffffffffffffffff1673ffffffffffffffffffffffffffffffffffffffff16815260200190815260200160002060006101000a81548160ff0219169083151502179055508173ffffffffffffffffffffffffffffffffffffffff168373ffffffffffffffffffffffffffffffffffffffff167f17307eab39ab6107e8899845ad3d59bd9653f200f220920489ca2b5937696c31836040516112b591906122d1565b60405180910390a3505050565b60008373ffffffffffffffffffffffffffffffffffffffff163b1115611473578273ffffffffffffffffffffffffffffffffffffffff1663150b7a02611306610e0e565b8685856040518563ffffffff1660e01b815260040161132894939291906135c0565b6020604051808303816000875af192505050801561136457506040513d601f19601f820116820180604052508101906113619190613621565b60015b6113e8573d8060008114611394576040519150601f19603f3d011682016040523d82523d6000602084013e611399565b606091505b5060008151036113e057836040517f64a0ae920000000000000000000000000000000000000000000000000000000081526004016113d791906124c3565b60405180910390fd5b805181602001fd5b63150b7a0260e01b7bffffffffffffffffffffffffffffffffffffffffffffffffffffffff1916817bffffffffffffffffffffffffffffffffffffffffffffffffffffffff19161461147157836040517f64a0ae9200000000000000000000000000000000000000000000000000000000815260040161146891906124c3565b60405180910390fd5b505b50505050565b606060405180602001604052806000815250905090565b606061149b82610d49565b5060006114a6611479565b905060008151116114c657604051806020016040528060008152506114f1565b806114d084611e42565b6040516020016114e1929190612e71565b6040516020818303038152906040525b915050919050565b60007f01ffc9a7000000000000000000000000000000000000000000000000000000007bffffffffffffffffffffffffffffffffffffffffffffffffffffffff1916827bffffffffffffffffffffffffffffffffffffffffffffffffffffffff1916149050919050565b60006002600083815260200190815260200160002060009054906101000a900473ffffffffffffffffffffffffffffffffffffffff169050919050565b80806115d95750600073ffffffffffffffffffffffffffffffffffffffff168273ffffffffffffffffffffffffffffffffffffffff1614155b1561170d5760006115e984610d49565b9050600073ffffffffffffffffffffffffffffffffffffffff168373ffffffffffffffffffffffffffffffffffffffff161415801561165457508273ffffffffffffffffffffffffffffffffffffffff168173ffffffffffffffffffffffffffffffffffffffff1614155b801561166757506116658184610bd3565b155b156116a957826040517fa9fbf51f0000000000000000000000000000000000000000000000000000000081526004016116a091906124c3565b60405180910390fd5b811561170b57838573ffffffffffffffffffffffffffffffffffffffff168273ffffffffffffffffffffffffffffffffffffffff167f8c5be1e5ebec7d5bd14f71427d1e84f3dd0314c0f7b2291e5b200ac8c7c3b92560405160405180910390a45b505b836004600085815260200190815260200160002060006101000a81548173ffffffffffffffffffffffffffffffffffffffff021916908373ffffffffffffffffffffffffffffffffffffffff16021790555050505050565b611770838383611f10565b61182457600073ffffffffffffffffffffffffffffffffffffffff168373ffffffffffffffffffffffffffffffffffffffff16036117e557806040517f7e2732890000000000000000000000000000000000000000000000000000000081526004016117dc91906127b1565b60405180910390fd5b81816040517f177e802f00000000000000000000000000000000000000000000000000000000815260040161181b92919061364e565b60405180910390fd5b505050565b6118338383611fd1565b61184060008484846112c2565b505050565b60606000820361188c576040518060400160405280600181526020017f300000000000000000000000000000000000000000000000000000000000000081525090506119c8565b600082905060005b600082146118be5780806118a790612ded565b915050600a826118b791906136a6565b9150611894565b60008167ffffffffffffffff8111156118da576118d96125a7565b5b6040519080825280601f01601f19166020018201604052801561190c5781602001600182028036833780820191505090505b50905060008290505b600086146119c05760018161192a91906136d7565b90506000600a808861193c91906136a6565b611946919061370b565b8761195191906136d7565b603061195d919061375a565b905060008160f81b90508084848151811061197b5761197a61378f565b5b60200101907effffffffffffffffffffffffffffffffffffffffffffffffffffffffffffff1916908160001a905350600a886119b791906136a6565b97505050611915565b819450505050505b919050565b606060006003600284516119e191906137be565b6119eb91906136a6565b60046119f7919061370b565b905060008167ffffffffffffffff811115611a1557611a146125a7565b5b6040519080825280601f01601f191660200182016040528015611a475781602001600182028036833780820191505090505b509050600060405180606001604052806040815260200161382460409139905060008290506000805b8751821015611d29576000888380611a8790612ded565b945081518110611a9a57611a9961378f565b5b602001015160f81c60f81b60f81c60ff169050600089518410611abe576000611aec565b898480611aca90612ded565b955081518110611add57611adc61378f565b5b602001015160f81c60f81b60f81c5b60ff16905060008a518510611b02576000611b30565b8a8580611b0e90612ded565b965081518110611b2157611b2061378f565b5b602001015160f81c60f81b60f81c5b60ff169050600081600884901b601086901b611b4c91906137be565b611b5691906137be565b905087603f601283901c1681518110611b7257611b7161378f565b5b602001015160f81c60f81b878680611b8990612ded565b975081518110611b9c57611b9b61378f565b5b60200101907effffffffffffffffffffffffffffffffffffffffffffffffffffffffffffff1916908160001a90535087603f600c83901c1681518110611be557611be461378f565b5b602001015160f81c60f81b878680611bfc90612ded565b975081518110611c0f57611c0e61378f565b5b60200101907effffffffffffffffffffffffffffffffffffffffffffffffffffffffffffff1916908160001a90535087603f600683901c1681518110611c5857611c5761378f565b5b602001015160f81c60f81b878680611c6f90612ded565b975081518110611c8257611c8161378f565b5b60200101907effffffffffffffffffffffffffffffffffffffffffffffffffffffffffffff1916908160001a90535087603f821681518110611cc757611cc661378f565b5b602001015160f81c60f81b878680611cde90612ded565b975081518110611cf157611cf061378f565b5b60200101907effffffffffffffffffffffffffffffffffffffffffffffffffffffffffffff1916908160001a90535050505050611a70565b600060038951611d3991906137f2565b1115611daf577f3d0000000000000000000000000000000000000000000000000000000000000083600188611d6e91906136d7565b81518110611d7f57611d7e61378f565b5b60200101907effffffffffffffffffffffffffffffffffffffffffffffffffffffffffffff1916908160001a9053505b600160038951611dbf91906137f2565b03611e34577f3d0000000000000000000000000000000000000000000000000000000000000083600288611df391906136d7565b81518110611e0457611e0361378f565b5b60200101907effffffffffffffffffffffffffffffffffffffffffffffffffffffffffffff1916908160001a9053505b849650505050505050919050565b606060006001611e51846120ca565b01905060008167ffffffffffffffff811115611e7057611e6f6125a7565b5b6040519080825280601f01601f191660200182016040528015611ea25781602001600182028036833780820191505090505b509050600082602001820190505b600115611f05578080600190039150507f3031323334353637383961626364656600000000000000000000000000000000600a86061a8153600a8581611ef957611ef8613677565b5b04945060008503611eb0575b819350505050919050565b60008073ffffffffffffffffffffffffffffffffffffffff168373ffffffffffffffffffffffffffffffffffffffff1614158015611fc857508273ffffffffffffffffffffffffffffffffffffffff168473ffffffffffffffffffffffffffffffffffffffff161480611f895750611f888484610bd3565b5b80611fc757508273ffffffffffffffffffffffffffffffffffffffff16611faf83610dd1565b73ffffffffffffffffffffffffffffffffffffffff16145b5b90509392505050565b600073ffffffffffffffffffffffffffffffffffffffff168273ffffffffffffffffffffffffffffffffffffffff16036120435760006040517f64a0ae9200000000000000000000000000000000000000000000000000000000815260040161203a91906124c3565b60405180910390fd5b600061205183836000610e28565b9050600073ffffffffffffffffffffffffffffffffffffffff168173ffffffffffffffffffffffffffffffffffffffff16146120c55760006040517f73c6ac6e0000000000000000000000000000000000000000000000000000000081526004016120bc91906124c3565b60405180910390fd5b505050565b600080600090507a184f03e93ff9f4daa797ed6e38ed64bf6a1f0100000000000000008310612128577a184f03e93ff9f4daa797ed6e38ed64bf6a1f010000000000000000838161211e5761211d613677565b5b0492506040810190505b6d04ee2d6d415b85acef81000000008310612165576d04ee2d6d415b85acef8100000000838161215b5761215a613677565b5b0492506020810190505b662386f26fc10000831061219457662386f26fc10000838161218a57612189613677565b5b0492506010810190505b6305f5e10083106121bd576305f5e10083816121b3576121b2613677565b5b0492506008810190505b61271083106121e25761271083816121d8576121d7613677565b5b0492506004810190505b6064831061220557606483816121fb576121fa613677565b5b0492506002810190505b600a8310612214576001810190505b80915050919050565b6000604051905090565b600080fd5b600080fd5b60007fffffffff0000000000000000000000000000000000000000000000000000000082169050919050565b61226681612231565b811461227157600080fd5b50565b6000813590506122838161225d565b92915050565b60006020828403121561229f5761229e612227565b5b60006122ad84828501612274565b91505092915050565b60008115159050919050565b6122cb816122b6565b82525050565b60006020820190506122e660008301846122c2565b92915050565b6000819050919050565b6122ff816122ec565b811461230a57600080fd5b50565b60008135905061231c816122f6565b92915050565b60006020828403121561233857612337612227565b5b60006123468482850161230d565b91505092915050565b600081519050919050565b600082825260208201905092915050565b60005b8381101561238957808201518184015260208101905061236e565b60008484015250505050565b6000601f19601f8301169050919050565b60006123b18261234f565b6123bb818561235a565b93506123cb81856020860161236b565b6123d481612395565b840191505092915050565b6123e8816122ec565b82525050565b600063ffffffff82169050919050565b612407816123ee565b82525050565b6000608082019050818103600083015261242781876123a6565b9050818103602083015261243b81866123a6565b905061244a60408301856123df565b61245760608301846123fe565b95945050505050565b6000602082019050818103600083015261247a81846123a6565b905092915050565b600073ffffffffffffffffffffffffffffffffffffffff82169050919050565b60006124ad82612482565b9050919050565b6124bd816124a2565b82525050565b60006020820190506124d860008301846124b4565b92915050565b6124e7816124a2565b81146124f257600080fd5b50565b600081359050612504816124de565b92915050565b6000806040838503121561252157612520612227565b5b600061252f858286016124f5565b92505060206125408582860161230d565b9150509250929050565b60008060006060848603121561256357612562612227565b5b6000612571868287016124f5565b9350506020612582868287016124f5565b92505060406125938682870161230d565b9150509250925092565b600080fd5b600080fd5b7f4e487b7100000000000000000000000000000000000000000000000000000000600052604160045260246000fd5b6125df82612395565b810181811067ffffffffffffffff821117156125fe576125fd6125a7565b5b80604052505050565b600061261161221d565b905061261d82826125d6565b919050565b600067ffffffffffffffff82111561263d5761263c6125a7565b5b61264682612395565b9050602081019050919050565b82818337600083830152505050565b600061267561267084612622565b612607565b905082815260208101848484011115612691576126906125a2565b5b61269c848285612653565b509392505050565b600082601f8301126126b9576126b861259d565b5b81356126c9848260208601612662565b91505092915050565b6126db816123ee565b81146126e657600080fd5b50565b6000813590506126f8816126d2565b92915050565b600080600080600060a0868803121561271a57612719612227565b5b6000612728888289016124f5565b955050602086013567ffffffffffffffff8111156127495761274861222c565b5b612755888289016126a4565b945050604086013567ffffffffffffffff8111156127765761277561222c565b5b612782888289016126a4565b93505060606127938882890161230d565b92505060806127a4888289016126e9565b9150509295509295909350565b60006020820190506127c660008301846123df565b92915050565b6000602082840312156127e2576127e1612227565b5b60006127f0848285016124f5565b91505092915050565b612802816122b6565b811461280d57600080fd5b50565b60008135905061281f816127f9565b92915050565b6000806040838503121561283c5761283b612227565b5b600061284a858286016124f5565b925050602061285b85828601612810565b9150509250929050565b600067ffffffffffffffff8211156128805761287f6125a7565b5b61288982612395565b9050602081019050919050565b60006128a96128a484612865565b612607565b9050828152602081018484840111156128c5576128c46125a2565b5b6128d0848285612653565b509392505050565b600082601f8301126128ed576128ec61259d565b5b81356128fd848260208601612896565b91505092915050565b600080600080608085870312156129205761291f612227565b5b600061292e878288016124f5565b945050602061293f878288016124f5565b93505060406129508782880161230d565b925050606085013567ffffffffffffffff8111156129715761297061222c565b5b61297d878288016128d8565b91505092959194509250565b600081519050919050565b600082825260208201905092915050565b6000819050602082019050919050565b6129be816122ec565b82525050565b60006129d083836129b5565b60208301905092915050565b6000602082019050919050565b60006129f482612989565b6129fe8185612994565b9350612a09836129a5565b8060005b83811015612a3a578151612a2188826129c4565b9750612a2c836129dc565b925050600181019050612a0d565b5085935050505092915050565b60006020820190508181036000830152612a6181846129e9565b905092915050565b60008060408385031215612a8057612a7f612227565b5b6000612a8e858286016124f5565b9250506020612a9f858286016124f5565b9150509250929050565b7f4e487b7100000000000000000000000000000000000000000000000000000000600052602260045260246000fd5b60006002820490506001821680612af057607f821691505b602082108103612b0357612b02612aa9565b5b50919050565b6000606082019050612b1e60008301866124b4565b612b2b60208301856123df565b612b3860408301846124b4565b949350505050565b60008190508160005260206000209050919050565b60006020601f8301049050919050565b600082821b905092915050565b600060088302612ba27fffffffffffffffffffffffffffffffffffffffffffffffffffffffffffffffff82612b65565b612bac8683612b65565b95508019841693508086168417925050509392505050565b6000819050919050565b6000612be9612be4612bdf846122ec565b612bc4565b6122ec565b9050919050565b6000819050919050565b612c0383612bce565b612c17612c0f82612bf0565b848454612b72565b825550505050565b600090565b612c2c612c1f565b612c37818484612bfa565b505050565b5b81811015612c5b57612c50600082612c24565b600181019050612c3d565b5050565b601f821115612ca057612c7181612b40565b612c7a84612b55565b81016020851015612c89578190505b612c9d612c9585612b55565b830182612c3c565b50505b505050565b600082821c905092915050565b6000612cc360001984600802612ca5565b1980831691505092915050565b6000612cdc8383612cb2565b9150826002028217905092915050565b612cf58261234f565b67ffffffffffffffff811115612d0e57612d0d6125a7565b5b612d188254612ad8565b612d23828285612c5f565b600060209050601f831160018114612d565760008415612d44578287015190505b612d4e8582612cd0565b865550612db6565b601f198416612d6486612b40565b60005b82811015612d8c57848901518255600182019150602085019450602081019050612d67565b86831015612da95784890151612da5601f891682612cb2565b8355505b6001600288020188555050505b505050505050565b7f4e487b7100000000000000000000000000000000000000000000000000000000600052601160045260246000fd5b6000612df8826122ec565b91507fffffffffffffffffffffffffffffffffffffffffffffffffffffffffffffffff8203612e2a57612e29612dbe565b5b600182019050919050565b600081905092915050565b6000612e4b8261234f565b612e558185612e35565b9350612e6581856020860161236b565b80840191505092915050565b6000612e7d8285612e40565b9150612e898284612e40565b91508190509392505050565b7f3c73766720786d6c6e733d22687474703a2f2f7777772e77332e6f72672f323060008201527f30302f737667222077696474683d2233303022206865696768743d223230302260208201527f3e00000000000000000000000000000000000000000000000000000000000000604082015250565b6000612f17604183612e35565b9150612f2282612e95565b604182019050919050565b7f3c726563742077696474683d223130302522206865696768743d22313030252260008201527f2066696c6c3d222334434146353022202f3e0000000000000000000000000000602082015250565b6000612f89603283612e35565b9150612f9482612f2d565b603282019050919050565b7f3c7465787420783d2231302220793d2232302220666f6e742d73697a653d223260008201527f30222066696c6c3d227768697465223e4576656e743a20000000000000000000602082015250565b6000612ffb603783612e35565b915061300682612f9f565b603782019050919050565b7f3c2f746578743e00000000000000000000000000000000000000000000000000600082015250565b6000613047600783612e35565b915061305282613011565b600782019050919050565b7f3c7465787420783d2231302220793d2235302220666f6e742d73697a653d223160008201527f36222066696c6c3d227768697465223e446174653a2000000000000000000000602082015250565b60006130b9603683612e35565b91506130c48261305d565b603682019050919050565b7f3c7465787420783d2231302220793d2238302220666f6e742d73697a653d223160008201527f36222066696c6c3d227768697465223e536561743a2000000000000000000000602082015250565b600061312b603683612e35565b9150613136826130cf565b603682019050919050565b7f3c2f7376673e0000000000000000000000000000000000000000000000000000600082015250565b6000613177600683612e35565b915061318282613141565b600682019050919050565b600061319882612f0a565b91506131a382612f7c565b91506131ae82612fee565b91506131ba8286612e40565b91506131c58261303a565b91506131d0826130ac565b91506131dc8285612e40565b91506131e78261303a565b91506131f28261311e565b91506131fe8284612e40565b91506132098261303a565b91506132148261316a565b9150819050949350505050565b7f646174613a6170706c69636174696f6e2f6a736f6e3b757466382c0000000000600082015250565b6000613257601b83612e35565b915061326282613221565b601b82019050919050565b7f7b226e616d65223a220000000000000000000000000000000000000000000000600082015250565b60006132a3600983612e35565b91506132ae8261326d565b600982019050919050565b7f222c000000000000000000000000000000000000000000000000000000000000600082015250565b60006132ef600283612e35565b91506132fa826132b9565b600282019050919050565b7f226465736372697074696f6e223a220000000000000000000000000000000000600082015250565b600061333b600f83612e35565b915061334682613305565b600f82019050919050565b7f2264617465223a22000000000000000000000000000000000000000000000000600082015250565b6000613387600883612e35565b915061339282613351565b600882019050919050565b7f2273656174223a22000000000000000000000000000000000000000000000000600082015250565b60006133d3600883612e35565b91506133de8261339d565b600882019050919050565b7f22696d616765223a22646174613a696d6167652f7376672b786d6c3b6261736560008201527f36342c0000000000000000000000000000000000000000000000000000000000602082015250565b6000613445602383612e35565b9150613450826133e9565b602382019050919050565b7f227d000000000000000000000000000000000000000000000000000000000000600082015250565b6000613491600283612e35565b915061349c8261345b565b600282019050919050565b60006134b28261324a565b91506134bd82613296565b91506134c98288612e40565b91506134d4826132e2565b91506134df8261332e565b91506134eb8287612e40565b91506134f6826132e2565b91506135018261337a565b915061350d8286612e40565b9150613518826132e2565b9150613523826133c6565b915061352f8285612e40565b915061353a826132e2565b915061354582613438565b91506135518284612e40565b915061355c82613484565b91508190509695505050505050565b600081519050919050565b600082825260208201905092915050565b60006135928261356b565b61359c8185613576565b93506135ac81856020860161236b565b6135b581612395565b840191505092915050565b60006080820190506135d560008301876124b4565b6135e260208301866124b4565b6135ef60408301856123df565b81810360608301526136018184613587565b905095945050505050565b60008151905061361b8161225d565b92915050565b60006020828403121561363757613636612227565b5b60006136458482850161360c565b91505092915050565b600060408201905061366360008301856124b4565b61367060208301846123df565b9392505050565b7f4e487b7100000000000000000000000000000000000000000000000000000000600052601260045260246000fd5b60006136b1826122ec565b91506136bc836122ec565b9250826136cc576136cb613677565b5b828204905092915050565b60006136e2826122ec565b91506136ed836122ec565b925082820390508181111561370557613704612dbe565b5b92915050565b6000613716826122ec565b9150613721836122ec565b925082820261372f816122ec565b9150828204841483151761374657613745612dbe565b5b5092915050565b600060ff82169050919050565b60006137658261374d565b91506137708361374d565b9250828201905060ff81111561378957613788612dbe565b5b92915050565b7f4e487b7100000000000000000000000000000000000000000000000000000000600052603260045260246000fd5b60006137c9826122ec565b91506137d4836122ec565b92508282019050808211156137ec576137eb612dbe565b5b92915050565b60006137fd826122ec565b9150613808836122ec565b92508261381857613817613677565b5b82820690509291505056fe4142434445464748494a4b4c4d4e4f505152535455565758595a6162636465666768696a6b6c6d6e6f707172737475767778797a303132333435363738392b2fa26469706673582212205a223498766aaaee7d7105bc033ab438a1d0577d1ff06591f821caa0f94bce3f64736f6c63430008140033",
  "immutableReferences": {},
  "source": "// SPDX-License-Identifier: MIT\npragma solidity ^0.8.20;\n\nimport \"@openzeppelin/contracts/token/ERC721/extensions/ERC721URIStorage.sol\";\n\ncontract TicketNFT is ERC721URIStorage {\n    uint256 public nextTokenId;\n\n    struct TicketDetails {\n        string eventName;\n        string eventDetails;\n        uint256 eventDate;\n        uint32 seat;\n    }\n\n    mapping(uint256 => TicketDetails) public ticketDetails;\n    mapping(address => uint256[]) private _ownedTokens;\n\n    constructor() ERC721(\"Event Ticket\", \"ETKT\") {}\n\n    function mint(\n        address to,\n        string memory _eventName,\n        string memory _eventDetails,\n        uint256 _eventDate,\n        uint32 _seat\n    ) external returns (uint256) {\n        uint256 tokenId = nextTokenId;\n        _safeMint(to, tokenId);\n        ticketDetails[tokenId] = TicketDetails({\n            eventName: _eventName,\n            eventDetails: _eventDetails,\n            eventDate: _eventDate,\n            seat: _seat\n        });\n        _ownedTokens[to].push(tokenId);\n        // Generate tokenURI\n        string memory tokenURI = _generateTokenURI(\n            _eventName,\n            _eventDetails,\n            _eventDate,\n            _seat\n        );\n        _setTokenURI(tokenId, tokenURI);\n        nextTokenId++;\n        return tokenId;\n    }\n\n    function getOwnedTokens(address owner) public view returns (uint256[] memory) {\n        return _ownedTokens[owner];\n    }\n\n    function _generateTokenURI(\n        string memory _eventName,\n        string memory _eventDetails,\n        uint256 _eventDate,\n        uint32 _seat\n    ) internal pure returns (string memory) {\n        string memory svgImage = string(abi.encodePacked(\n            '<svg xmlns=\"http://www.w3.org/2000/svg\" width=\"300\" height=\"200\">',\n            '<rect width=\"100%\" height=\"100%\" fill=\"#4CAF50\" />',\n            '<text x=\"10\" y=\"20\" font-size=\"20\" fill=\"white\">Event: ', _eventName, '</text>',\n            '<text x=\"10\" y=\"50\" font-size=\"16\" fill=\"white\">Date: ', uint2str(_eventDate), '</text>',\n            '<text x=\"10\" y=\"80\" font-size=\"16\" fill=\"white\">Seat: ', uint2str(_seat), '</text>',\n            '</svg>'\n        ));\n        string memory base64SVG = Base64.encode(bytes(svgImage));\n\n        return string(abi.encodePacked(\n            'data:application/json;utf8,',\n            '{\"name\":\"', _eventName, '\",',\n            '\"description\":\"', _eventDetails, '\",',\n            '\"date\":\"', uint2str(_eventDate), '\",',\n            '\"seat\":\"', uint2str(_seat), '\",',\n            '\"image\":\"data:image/svg+xml;base64,', base64SVG, '\"}'\n        ));\n    }\n\n    function uint2str(uint256 _i) internal pure returns (string memory) {\n        if (_i == 0) {\n            return \"0\";\n        }\n        uint256 j = _i;\n        uint256 len;\n        while (j != 0) {\n            len++;\n            j /= 10;\n        }\n        bytes memory bstr = new bytes(len);\n        uint256 k = len;\n        while (_i != 0) {\n            k = k - 1;\n            uint8 temp = (48 + uint8(_i - _i / 10 * 10));\n            bytes1 b1 = bytes1(temp);\n            bstr[k] = b1;\n            _i /= 10;\n        }\n        return string(bstr);\n    }\n}\n\nlibrary Base64 {\n    string internal constant TABLE = \"ABCDEFGHIJKLMNOPQRSTUVWXYZabcdefghijklmnopqrstuvwxyz0123456789+/\";\n    \n    function encode(bytes memory data) internal pure returns (string memory) {\n        uint256 encodedLen = 4 * ((data.length + 2) / 3);\n        string memory result = new string(encodedLen);\n        bytes memory table = bytes(TABLE);\n        bytes memory encoded = bytes(result);\n        \n        uint256 i = 0;\n        uint256 j = 0;\n        while (i < data.length) {\n            uint256 a = uint8(data[i++]);\n            uint256 b = i < data.length ? uint8(data[i++]) : 0;\n            uint256 c = i < data.length ? uint8(data[i++]) : 0;\n            \n            uint256 triple = (a << 16) + (b << 8) + c;\n            \n            encoded[j++] = table[(triple >> 18) & 0x3F];\n            encoded[j++] = table[(triple >> 12) & 0x3F];\n            encoded[j++] = table[(triple >> 6) & 0x3F];\n            encoded[j++] = table[triple & 0x3F];\n        }\n        \n        if (data.length % 3 > 0) {\n            encoded[encodedLen - 1] = '=';\n        }\n        if (data.length % 3 == 1) {\n            encoded[encodedLen - 2] = '=';\n        }\n        \n        return result;\n    }\n}",
  "sourcePath": "/Users/itaybiton/Desktop/DappTruffle/EventCoin/contracts/TicketNFT.sol",
  "compiler": {
    "name": "solc",
    "version": "0.8.20+commit.a1b79de6.Emscripten.clang"
  },
  "schemaVersion": "3.4.16",
  "updatedAt": "2024-08-26T18:27:03.500Z",
  "networkType": "ethereum",
  "devdoc": {
    "errors": {
      "ERC721IncorrectOwner(address,uint256,address)": [
        {
          "details": "Indicates an error related to the ownership over a particular token. Used in transfers.",
          "params": {
            "owner": "Address of the current owner of a token.",
            "sender": "Address whose tokens are being transferred.",
            "tokenId": "Identifier number of a token."
          }
        }
      ],
      "ERC721InsufficientApproval(address,uint256)": [
        {
          "details": "Indicates a failure with the `operator`s approval. Used in transfers.",
          "params": {
            "operator": "Address that may be allowed to operate on tokens without being their owner.",
            "tokenId": "Identifier number of a token."
          }
        }
      ],
      "ERC721InvalidApprover(address)": [
        {
          "details": "Indicates a failure with the `approver` of a token to be approved. Used in approvals.",
          "params": {
            "approver": "Address initiating an approval operation."
          }
        }
      ],
      "ERC721InvalidOperator(address)": [
        {
          "details": "Indicates a failure with the `operator` to be approved. Used in approvals.",
          "params": {
            "operator": "Address that may be allowed to operate on tokens without being their owner."
          }
        }
      ],
      "ERC721InvalidOwner(address)": [
        {
          "details": "Indicates that an address can't be an owner. For example, `address(0)` is a forbidden owner in EIP-20. Used in balance queries.",
          "params": {
            "owner": "Address of the current owner of a token."
          }
        }
      ],
      "ERC721InvalidReceiver(address)": [
        {
          "details": "Indicates a failure with the token `receiver`. Used in transfers.",
          "params": {
            "receiver": "Address to which tokens are being transferred."
          }
        }
      ],
      "ERC721InvalidSender(address)": [
        {
          "details": "Indicates a failure with the token `sender`. Used in transfers.",
          "params": {
            "sender": "Address whose tokens are being transferred."
          }
        }
      ],
      "ERC721NonexistentToken(uint256)": [
        {
          "details": "Indicates a `tokenId` whose `owner` is the zero address.",
          "params": {
            "tokenId": "Identifier number of a token."
          }
        }
      ]
    },
    "events": {
      "Approval(address,address,uint256)": {
        "details": "Emitted when `owner` enables `approved` to manage the `tokenId` token."
      },
      "ApprovalForAll(address,address,bool)": {
        "details": "Emitted when `owner` enables or disables (`approved`) `operator` to manage all of its assets."
      },
      "BatchMetadataUpdate(uint256,uint256)": {
        "details": "This event emits when the metadata of a range of tokens is changed. So that the third-party platforms such as NFT market could timely update the images and related attributes of the NFTs."
      },
      "MetadataUpdate(uint256)": {
        "details": "This event emits when the metadata of a token is changed. So that the third-party platforms such as NFT market could timely update the images and related attributes of the NFT."
      },
      "Transfer(address,address,uint256)": {
        "details": "Emitted when `tokenId` token is transferred from `from` to `to`."
      }
    },
    "kind": "dev",
    "methods": {
      "approve(address,uint256)": {
        "details": "See {IERC721-approve}."
      },
      "balanceOf(address)": {
        "details": "See {IERC721-balanceOf}."
      },
      "getApproved(uint256)": {
        "details": "See {IERC721-getApproved}."
      },
      "isApprovedForAll(address,address)": {
        "details": "See {IERC721-isApprovedForAll}."
      },
      "name()": {
        "details": "See {IERC721Metadata-name}."
      },
      "ownerOf(uint256)": {
        "details": "See {IERC721-ownerOf}."
      },
      "safeTransferFrom(address,address,uint256)": {
        "details": "See {IERC721-safeTransferFrom}."
      },
      "safeTransferFrom(address,address,uint256,bytes)": {
        "details": "See {IERC721-safeTransferFrom}."
      },
      "setApprovalForAll(address,bool)": {
        "details": "See {IERC721-setApprovalForAll}."
      },
      "supportsInterface(bytes4)": {
        "details": "See {IERC165-supportsInterface}"
      },
      "symbol()": {
        "details": "See {IERC721Metadata-symbol}."
      },
      "tokenURI(uint256)": {
        "details": "See {IERC721Metadata-tokenURI}."
      },
      "transferFrom(address,address,uint256)": {
        "details": "See {IERC721-transferFrom}."
      }
    },
    "version": 1
  },
  "userdoc": {
    "kind": "user",
    "methods": {},
    "version": 1
  }
}