{
  "contractName": "EventManager",
  "abi": [
    {
      "inputs": [
        {
          "internalType": "address",
          "name": "_ticketNFT",
          "type": "address"
        }
      ],
      "stateMutability": "nonpayable",
      "type": "constructor"
    },
    {
      "inputs": [],
      "name": "eventCount",
      "outputs": [
        {
          "internalType": "uint256",
          "name": "",
          "type": "uint256"
        }
      ],
      "stateMutability": "view",
      "type": "function"
    },
    {
      "inputs": [
        {
          "internalType": "uint256",
          "name": "",
          "type": "uint256"
        }
      ],
      "name": "events",
      "outputs": [
        {
          "internalType": "string",
          "name": "name",
          "type": "string"
        },
        {
          "internalType": "string",
          "name": "details",
          "type": "string"
        },
        {
          "internalType": "uint256",
          "name": "date",
          "type": "uint256"
        },
        {
          "internalType": "uint256",
          "name": "cashBank",
          "type": "uint256"
        },
        {
          "internalType": "uint256",
          "name": "ticketPrice",
          "type": "uint256"
        },
        {
          "internalType": "address",
          "name": "owner",
          "type": "address"
        },
        {
          "internalType": "uint256",
          "name": "totalTickets",
          "type": "uint256"
        },
        {
          "internalType": "uint256",
          "name": "ticketsSold",
          "type": "uint256"
        }
      ],
      "stateMutability": "view",
      "type": "function"
    },
    {
      "inputs": [],
      "name": "ticketNFT",
      "outputs": [
        {
          "internalType": "contract TicketNFT",
          "name": "",
          "type": "address"
        }
      ],
      "stateMutability": "view",
      "type": "function"
    },
    {
      "inputs": [
        {
          "internalType": "string",
          "name": "_name",
          "type": "string"
        },
        {
          "internalType": "string",
          "name": "_details",
          "type": "string"
        },
        {
          "internalType": "uint256",
          "name": "_date",
          "type": "uint256"
        },
        {
          "internalType": "uint256",
          "name": "_ticketPrice",
          "type": "uint256"
        },
        {
          "internalType": "uint256",
          "name": "_totalTickets",
          "type": "uint256"
        }
      ],
      "name": "createEvent",
      "outputs": [],
      "stateMutability": "nonpayable",
      "type": "function"
    },
    {
      "inputs": [
        {
          "internalType": "uint256",
          "name": "_eventId",
          "type": "uint256"
        }
      ],
      "name": "addMoneyToCashBank",
      "outputs": [],
      "stateMutability": "payable",
      "type": "function"
    },
    {
      "inputs": [
        {
          "internalType": "uint256",
          "name": "_eventId",
          "type": "uint256"
        },
        {
          "internalType": "string",
          "name": "_name",
          "type": "string"
        },
        {
          "internalType": "string",
          "name": "_details",
          "type": "string"
        },
        {
          "internalType": "uint256",
          "name": "_reward",
          "type": "uint256"
        },
        {
          "internalType": "uint8",
          "name": "_minRating",
          "type": "uint8"
        }
      ],
      "name": "createTask",
      "outputs": [],
      "stateMutability": "nonpayable",
      "type": "function"
    },
    {
      "inputs": [
        {
          "internalType": "uint256",
          "name": "_eventId",
          "type": "uint256"
        }
      ],
      "name": "getAllTasks",
      "outputs": [
        {
          "components": [
            {
              "internalType": "string",
              "name": "name",
              "type": "string"
            },
            {
              "internalType": "string",
              "name": "details",
              "type": "string"
            },
            {
              "internalType": "uint256",
              "name": "reward",
              "type": "uint256"
            },
            {
              "internalType": "uint8",
              "name": "minRating",
              "type": "uint8"
            },
            {
              "internalType": "bool",
              "name": "completed",
              "type": "bool"
            },
            {
              "internalType": "address",
              "name": "assignedCompany",
              "type": "address"
            },
            {
              "internalType": "address[]",
              "name": "raters",
              "type": "address[]"
            },
            {
              "internalType": "uint8[]",
              "name": "ratings",
              "type": "uint8[]"
            }
          ],
          "internalType": "struct EventManager.Task[]",
          "name": "",
          "type": "tuple[]"
        }
      ],
      "stateMutability": "view",
      "type": "function"
    },
    {
      "inputs": [
        {
          "internalType": "uint256",
          "name": "_eventId",
          "type": "uint256"
        },
        {
          "internalType": "address",
          "name": "_companyAddress",
          "type": "address"
        },
        {
          "internalType": "string",
          "name": "_name",
          "type": "string"
        }
      ],
      "name": "addCompany",
      "outputs": [],
      "stateMutability": "nonpayable",
      "type": "function"
    },
    {
      "inputs": [
        {
          "internalType": "uint256",
          "name": "_eventId",
          "type": "uint256"
        },
        {
          "internalType": "string",
          "name": "_name",
          "type": "string"
        }
      ],
      "name": "requestToJoin",
      "outputs": [],
      "stateMutability": "nonpayable",
      "type": "function"
    },
    {
      "inputs": [
        {
          "internalType": "uint256",
          "name": "_eventId",
          "type": "uint256"
        },
        {
          "internalType": "address",
          "name": "_companyAddress",
          "type": "address"
        }
      ],
      "name": "approveCompany",
      "outputs": [],
      "stateMutability": "nonpayable",
      "type": "function"
    },
    {
      "inputs": [
        {
          "internalType": "uint256",
          "name": "_eventId",
          "type": "uint256"
        }
      ],
      "name": "getAllCompanies",
      "outputs": [
        {
          "components": [
            {
              "internalType": "address",
              "name": "companyAddress",
              "type": "address"
            },
            {
              "internalType": "string",
              "name": "name",
              "type": "string"
            },
            {
              "internalType": "bool",
              "name": "approved",
              "type": "bool"
            }
          ],
          "internalType": "struct EventManager.Company[]",
          "name": "",
          "type": "tuple[]"
        }
      ],
      "stateMutability": "view",
      "type": "function"
    },
    {
      "inputs": [
        {
          "internalType": "uint256",
          "name": "_eventId",
          "type": "uint256"
        },
        {
          "internalType": "uint256",
          "name": "_taskId",
          "type": "uint256"
        },
        {
          "internalType": "address",
          "name": "_companyAddress",
          "type": "address"
        }
      ],
      "name": "assignCompanyToTask",
      "outputs": [],
      "stateMutability": "nonpayable",
      "type": "function"
    },
    {
      "inputs": [
        {
          "internalType": "uint256",
          "name": "_eventId",
          "type": "uint256"
        },
        {
          "internalType": "uint256",
          "name": "_seat",
          "type": "uint256"
        }
      ],
      "name": "purchaseTicket",
      "outputs": [],
      "stateMutability": "payable",
      "type": "function"
    },
    {
      "inputs": [
        {
          "internalType": "uint256",
          "name": "_eventId",
          "type": "uint256"
        }
      ],
      "name": "getSeatAvailability",
      "outputs": [
        {
          "internalType": "bool[]",
          "name": "",
          "type": "bool[]"
        }
      ],
      "stateMutability": "view",
      "type": "function"
    },
    {
      "inputs": [
        {
          "internalType": "uint256",
          "name": "_eventId",
          "type": "uint256"
        },
        {
          "internalType": "uint256",
          "name": "_taskId",
          "type": "uint256"
        }
      ],
      "name": "completeTask",
      "outputs": [],
      "stateMutability": "nonpayable",
      "type": "function"
    },
    {
      "inputs": [
        {
          "internalType": "uint256",
          "name": "_eventId",
          "type": "uint256"
        },
        {
          "internalType": "uint256",
          "name": "_taskId",
          "type": "uint256"
        },
        {
          "internalType": "uint8",
          "name": "_rating",
          "type": "uint8"
        }
      ],
      "name": "rateTask",
      "outputs": [],
      "stateMutability": "nonpayable",
      "type": "function"
    },
    {
      "inputs": [
        {
          "internalType": "uint256",
          "name": "_eventId",
          "type": "uint256"
        }
      ],
      "name": "finalizeEvent",
      "outputs": [],
      "stateMutability": "nonpayable",
      "type": "function"
    },
    {
      "inputs": [
        {
          "internalType": "uint256",
          "name": "_eventId",
          "type": "uint256"
        },
        {
          "internalType": "uint256",
          "name": "_taskId",
          "type": "uint256"
        }
      ],
      "name": "calculateAverageRating",
      "outputs": [
        {
          "internalType": "uint8",
          "name": "",
          "type": "uint8"
        }
      ],
      "stateMutability": "view",
      "type": "function"
    }
  ],
  "bytecode": "0x608060405234801562000010575f80fd5b50604051620041c0380380620041c08339818101604052810190620000369190620000e2565b8060025f6101000a81548173ffffffffffffffffffffffffffffffffffffffff021916908373ffffffffffffffffffffffffffffffffffffffff1602179055505062000112565b5f80fd5b5f73ffffffffffffffffffffffffffffffffffffffff82169050919050565b5f620000ac8262000081565b9050919050565b620000be81620000a0565b8114620000c9575f80fd5b50565b5f81519050620000dc81620000b3565b92915050565b5f60208284031215620000fa57620000f96200007d565b5b5f6200010984828501620000cc565b91505092915050565b6140a080620001205f395ff3fe608060405260043610610108575f3560e01c80637984ab6e11610094578063b4879af511610063578063b4879af514610363578063bdbbb0cb1461038b578063cc2ec15b146103a7578063e3581cce146103e3578063ea4d35611461040b57610108565b80637984ab6e146102c15780637c3bc4e1146102e95780639b71e67314610311578063b393391b1461033957610108565b806331ab7875116100db57806331ab7875146101ef5780633c2fc56c1461020b578063505c0b1b146102335780636c2ebc0a1461025b57806371be2e4a1461029757610108565b806308bfea2a1461010c5780630b79143014610148578063108c8ae41461018b578063138551b6146101b3575b5f80fd5b348015610117575f80fd5b50610132600480360381019061012d91906123eb565b610433565b60405161013f9190612601565b60405180910390f35b348015610153575f80fd5b5061016e600480360381019061016991906123eb565b6105a5565b604051610182989796959493929190612687565b60405180910390f35b348015610196575f80fd5b506101b160048036038101906101ac9190612711565b610713565b005b3480156101be575f80fd5b506101d960048036038101906101d491906123eb565b61081c565b6040516101e691906127f7565b60405180910390f35b610209600480360381019061020491906123eb565b6108f3565b005b348015610216575f80fd5b50610231600480360381019061022c9190612943565b6109b5565b005b34801561023e575f80fd5b5061025960048036038101906102549190612a1c565b610a7b565b005b348015610266575f80fd5b50610281600480360381019061027c9190612711565b610d1d565b60405161028e9190612a87565b60405180910390f35b3480156102a2575f80fd5b506102ab610df8565b6040516102b89190612aa0565b60405180910390f35b3480156102cc575f80fd5b506102e760048036038101906102e29190612ae3565b610dfe565b005b3480156102f4575f80fd5b5061030f600480360381019061030a9190612b92565b6110fc565b005b34801561031c575f80fd5b50610337600480360381019061033291906123eb565b61127f565b005b348015610344575f80fd5b5061034d6114f2565b60405161035a9190612c59565b60405180910390f35b34801561036e575f80fd5b5061038960048036038101906103849190612c72565b611517565b005b6103a560048036038101906103a09190612711565b6116dd565b005b3480156103b2575f80fd5b506103cd60048036038101906103c891906123eb565b611941565b6040516103da9190612fb7565b60405180910390f35b3480156103ee575f80fd5b5061040960048036038101906104049190612fd7565b611c71565b005b348015610416575f80fd5b50610431600480360381019061042c9190613027565b6120a1565b005b60605f805f8481526020019081526020015f20905080600701805480602002602001604051908101604052809291908181526020015f905b82821015610599578382905f5260205f2090600302016040518060600160405290815f82015f9054906101000a900473ffffffffffffffffffffffffffffffffffffffff1673ffffffffffffffffffffffffffffffffffffffff1673ffffffffffffffffffffffffffffffffffffffff1681526020016001820180546104f090613092565b80601f016020809104026020016040519081016040528092919081815260200182805461051c90613092565b80156105675780601f1061053e57610100808354040283529160200191610567565b820191905f5260205f20905b81548152906001019060200180831161054a57829003601f168201915b50505050508152602001600282015f9054906101000a900460ff1615151515815250508152602001906001019061046b565b50505050915050919050565b5f602052805f5260405f205f91509050805f0180546105c390613092565b80601f01602080910402602001604051908101604052809291908181526020018280546105ef90613092565b801561063a5780601f106106115761010080835404028352916020019161063a565b820191905f5260205f20905b81548152906001019060200180831161061d57829003601f168201915b50505050509080600101805461064f90613092565b80601f016020809104026020016040519081016040528092919081815260200182805461067b90613092565b80156106c65780601f1061069d576101008083540402835291602001916106c6565b820191905f5260205f20905b8154815290600101906020018083116106a957829003601f168201915b505050505090806002015490806003015490806004015490806005015f9054906101000a900473ffffffffffffffffffffffffffffffffffffffff16908060080154908060090154905088565b5f805f8481526020019081526020015f2090503373ffffffffffffffffffffffffffffffffffffffff16816006018381548110610753576107526130c2565b5b905f5260205f20906006020160030160029054906101000a900473ffffffffffffffffffffffffffffffffffffffff1673ffffffffffffffffffffffffffffffffffffffff16146107d9576040517f08c379a00000000000000000000000000000000000000000000000000000000081526004016107d09061315f565b60405180910390fd5b60018160060183815481106107f1576107f06130c2565b5b905f5260205f20906006020160030160016101000a81548160ff021916908315150217905550505050565b60605f805f8481526020019081526020015f2090505f816008015467ffffffffffffffff8111156108505761084f61281f565b5b60405190808252806020026020018201604052801561087e5781602001602082028036833780820191505090505b5090505f5b82600801548110156108e85782600a015f8281526020019081526020015f205f9054906101000a900460ff16158282815181106108c3576108c26130c2565b5b60200260200101901515908115158152505080806108e0906131aa565b915050610883565b508092505050919050565b5f805f8381526020019081526020015f2090503373ffffffffffffffffffffffffffffffffffffffff16816005015f9054906101000a900473ffffffffffffffffffffffffffffffffffffffff1673ffffffffffffffffffffffffffffffffffffffff1614610997576040517f08c379a000000000000000000000000000000000000000000000000000000000815260040161098e90613261565b60405180910390fd5b34816003015f8282546109aa919061327f565b925050819055505050565b60015f8154809291906109c7906131aa565b91905055505f805f60015481526020019081526020015f20905085815f0190816109f19190613446565b5084816001019081610a039190613446565b508381600201819055508281600401819055508181600801819055505f816009018190555033816005015f6101000a81548173ffffffffffffffffffffffffffffffffffffffff021916908373ffffffffffffffffffffffffffffffffffffffff1602179055505f8160030181905550505050505050565b5f805f8581526020019081526020015f2090503373ffffffffffffffffffffffffffffffffffffffff16816005015f9054906101000a900473ffffffffffffffffffffffffffffffffffffffff1673ffffffffffffffffffffffffffffffffffffffff1614610b1f576040517f08c379a0000000000000000000000000000000000000000000000000000000008152600401610b1690613585565b60405180910390fd5b806006018381548110610b3557610b346130c2565b5b905f5260205f20906006020160030160019054906101000a900460ff1615610b92576040517f08c379a0000000000000000000000000000000000000000000000000000000008152600401610b8990613613565b60405180910390fd5b5f805b8260070180549050811015610c71578373ffffffffffffffffffffffffffffffffffffffff16836007018281548110610bd157610bd06130c2565b5b905f5260205f2090600302015f015f9054906101000a900473ffffffffffffffffffffffffffffffffffffffff1673ffffffffffffffffffffffffffffffffffffffff16148015610c505750826007018181548110610c3357610c326130c2565b5b905f5260205f2090600302016002015f9054906101000a900460ff165b15610c5e5760019150610c71565b8080610c69906131aa565b915050610b95565b5080610cb2576040517f08c379a0000000000000000000000000000000000000000000000000000000008152600401610ca9906136a1565b60405180910390fd5b82826006018581548110610cc957610cc86130c2565b5b905f5260205f20906006020160030160026101000a81548173ffffffffffffffffffffffffffffffffffffffff021916908373ffffffffffffffffffffffffffffffffffffffff1602179055505050505050565b5f805f808581526020019081526020015f2090505f816006018481548110610d4857610d476130c2565b5b905f5260205f2090600602016005018054905090505f805b82811015610de057836006018681548110610d7e57610d7d6130c2565b5b905f5260205f2090600602016005018181548110610d9f57610d9e6130c2565b5b905f5260205f2090602091828204019190069054906101000a900460ff1660ff1682610dcb919061327f565b91508080610dd8906131aa565b915050610d60565b508181610ded91906136ec565b935050505092915050565b60015481565b5f805f8781526020019081526020015f2090503373ffffffffffffffffffffffffffffffffffffffff16816005015f9054906101000a900473ffffffffffffffffffffffffffffffffffffffff1673ffffffffffffffffffffffffffffffffffffffff1614610ea2576040517f08c379a0000000000000000000000000000000000000000000000000000000008152600401610e999061378c565b60405180910390fd5b8281600301541015610ee9576040517f08c379a0000000000000000000000000000000000000000000000000000000008152600401610ee09061381a565b60405180910390fd5b5f6040518061010001604052808781526020018681526020018581526020018460ff1681526020015f151581526020015f73ffffffffffffffffffffffffffffffffffffffff1681526020015f67ffffffffffffffff811115610f4f57610f4e61281f565b5b604051908082528060200260200182016040528015610f7d5781602001602082028036833780820191505090505b5081526020015f67ffffffffffffffff811115610f9d57610f9c61281f565b5b604051908082528060200260200182016040528015610fcb5781602001602082028036833780820191505090505b5081525090508160060181908060018154018082558091505060019003905f5260205f2090600602015f909190919091505f820151815f01908161100f9190613446565b5060208201518160010190816110259190613446565b50604082015181600201556060820151816003015f6101000a81548160ff021916908360ff16021790555060808201518160030160016101000a81548160ff02191690831515021790555060a08201518160030160026101000a81548173ffffffffffffffffffffffffffffffffffffffff021916908373ffffffffffffffffffffffffffffffffffffffff16021790555060c08201518160040190805190602001906110d3929190612263565b5060e08201518160050190805190602001906110f09291906122ea565b50505050505050505050565b5f805f8581526020019081526020015f2090503373ffffffffffffffffffffffffffffffffffffffff16816005015f9054906101000a900473ffffffffffffffffffffffffffffffffffffffff1673ffffffffffffffffffffffffffffffffffffffff16146111a0576040517f08c379a0000000000000000000000000000000000000000000000000000000008152600401611197906138a8565b60405180910390fd5b8060070160405180606001604052808573ffffffffffffffffffffffffffffffffffffffff16815260200184815260200160011515815250908060018154018082558091505060019003905f5260205f2090600302015f909190919091505f820151815f015f6101000a81548173ffffffffffffffffffffffffffffffffffffffff021916908373ffffffffffffffffffffffffffffffffffffffff16021790555060208201518160010190816112579190613446565b506040820151816002015f6101000a81548160ff021916908315150217905550505050505050565b5f805f8381526020019081526020015f2090503373ffffffffffffffffffffffffffffffffffffffff16816005015f9054906101000a900473ffffffffffffffffffffffffffffffffffffffff1673ffffffffffffffffffffffffffffffffffffffff1614611323576040517f08c379a000000000000000000000000000000000000000000000000000000000815260040161131a90613936565b60405180910390fd5b806002015442101561136a576040517f08c379a00000000000000000000000000000000000000000000000000000000081526004016113619061399e565b60405180910390fd5b5f5b8160060180549050811015611482575f826006018281548110611392576113916130c2565b5b905f5260205f20906006020190508060030160019054906101000a900460ff161561146e575f6113c28584610d1d565b9050816003015f9054906101000a900460ff1660ff168160ff161061146c578160030160029054906101000a900473ffffffffffffffffffffffffffffffffffffffff1673ffffffffffffffffffffffffffffffffffffffff166108fc836002015490811502906040515f60405180830381858888f1935050505015801561144c573d5f803e3d5ffd5b508160020154846003015f82825461146491906139bc565b925050819055505b505b50808061147a906131aa565b91505061136c565b50806005015f9054906101000a900473ffffffffffffffffffffffffffffffffffffffff1673ffffffffffffffffffffffffffffffffffffffff166108fc826003015490811502906040515f60405180830381858888f193505050501580156114ed573d5f803e3d5ffd5b505050565b60025f9054906101000a900473ffffffffffffffffffffffffffffffffffffffff1681565b5f805f8481526020019081526020015f2090505f5b81600701805490508110156115ff573373ffffffffffffffffffffffffffffffffffffffff16826007018281548110611568576115676130c2565b5b905f5260205f2090600302015f015f9054906101000a900473ffffffffffffffffffffffffffffffffffffffff1673ffffffffffffffffffffffffffffffffffffffff16036115ec576040517f08c379a00000000000000000000000000000000000000000000000000000000081526004016115e390613a5f565b60405180910390fd5b80806115f7906131aa565b91505061152c565b508060070160405180606001604052803373ffffffffffffffffffffffffffffffffffffffff1681526020018481526020015f1515815250908060018154018082558091505060019003905f5260205f2090600302015f909190919091505f820151815f015f6101000a81548173ffffffffffffffffffffffffffffffffffffffff021916908373ffffffffffffffffffffffffffffffffffffffff16021790555060208201518160010190816116b69190613446565b506040820151816002015f6101000a81548160ff0219169083151502179055505050505050565b5f805f8481526020019081526020015f209050806008015481600901541061173a576040517f08c379a000000000000000000000000000000000000000000000000000000000815260040161173190613ac7565b60405180910390fd5b80600a015f8381526020019081526020015f205f9054906101000a900460ff161561179a576040517f08c379a000000000000000000000000000000000000000000000000000000000815260040161179190613b2f565b60405180910390fd5b8060080154821080156117ad57505f8210155b6117ec576040517f08c379a00000000000000000000000000000000000000000000000000000000081526004016117e390613b97565b60405180910390fd5b80600401543414611832576040517f08c379a000000000000000000000000000000000000000000000000000000000815260040161182990613bff565b60405180910390fd5b60025f9054906101000a900473ffffffffffffffffffffffffffffffffffffffff1673ffffffffffffffffffffffffffffffffffffffff166329867dac33835f01846001018560020154876040518663ffffffff1660e01b815260040161189d959493929190613c9e565b6020604051808303815f875af11580156118b9573d5f803e3d5ffd5b505050506040513d601f19601f820116820180604052508101906118dd9190613d11565b50806009015f8154809291906118f2906131aa565b919050555034816003015f82825461190a919061327f565b92505081905550600181600a015f8481526020019081526020015f205f6101000a81548160ff021916908315150217905550505050565b60605f805f8481526020019081526020015f20905080600601805480602002602001604051908101604052809291908181526020015f905b82821015611c65578382905f5260205f209060060201604051806101000160405290815f820180546119aa90613092565b80601f01602080910402602001604051908101604052809291908181526020018280546119d690613092565b8015611a215780601f106119f857610100808354040283529160200191611a21565b820191905f5260205f20905b815481529060010190602001808311611a0457829003601f168201915b50505050508152602001600182018054611a3a90613092565b80601f0160208091040260200160405190810160405280929190818152602001828054611a6690613092565b8015611ab15780601f10611a8857610100808354040283529160200191611ab1565b820191905f5260205f20905b815481529060010190602001808311611a9457829003601f168201915b5050505050815260200160028201548152602001600382015f9054906101000a900460ff1660ff1660ff1681526020016003820160019054906101000a900460ff161515151581526020016003820160029054906101000a900473ffffffffffffffffffffffffffffffffffffffff1673ffffffffffffffffffffffffffffffffffffffff1673ffffffffffffffffffffffffffffffffffffffff16815260200160048201805480602002602001604051908101604052809291908181526020018280548015611bd357602002820191905f5260205f20905b815f9054906101000a900473ffffffffffffffffffffffffffffffffffffffff1673ffffffffffffffffffffffffffffffffffffffff1681526020019060010190808311611b8a575b5050505050815260200160058201805480602002602001604051908101604052809291908181526020018280548015611c4d57602002820191905f5260205f20905f905b82829054906101000a900460ff1660ff16815260200190600101906020825f01049283019260010382029150808411611c175790505b50505050508152505081526020019060010190611979565b50505050915050919050565b5f805f8581526020019081526020015f209050806006018381548110611c9a57611c996130c2565b5b905f5260205f20906006020160030160019054906101000a900460ff16611cf6576040517f08c379a0000000000000000000000000000000000000000000000000000000008152600401611ced90613dac565b60405180910390fd5b3373ffffffffffffffffffffffffffffffffffffffff16816006018481548110611d2357611d226130c2565b5b905f5260205f20906006020160030160029054906101000a900473ffffffffffffffffffffffffffffffffffffffff1673ffffffffffffffffffffffffffffffffffffffff1603611da9576040517f08c379a0000000000000000000000000000000000000000000000000000000008152600401611da090613e3a565b60405180910390fd5b5f805b8260070180549050811015611e4d573373ffffffffffffffffffffffffffffffffffffffff16836007018281548110611de857611de76130c2565b5b905f5260205f2090600302015f015f9054906101000a900473ffffffffffffffffffffffffffffffffffffffff1673ffffffffffffffffffffffffffffffffffffffff1603611e3a5760019150611e4d565b8080611e45906131aa565b915050611dac565b5080611e8e576040517f08c379a0000000000000000000000000000000000000000000000000000000008152600401611e8590613ec8565b60405180910390fd5b5f805b836006018681548110611ea757611ea66130c2565b5b905f5260205f20906006020160040180549050811015611f6e573373ffffffffffffffffffffffffffffffffffffffff16846006018781548110611eee57611eed6130c2565b5b905f5260205f2090600602016004018281548110611f0f57611f0e6130c2565b5b905f5260205f20015f9054906101000a900473ffffffffffffffffffffffffffffffffffffffff1673ffffffffffffffffffffffffffffffffffffffff1603611f5b5760019150611f6e565b8080611f66906131aa565b915050611e91565b508015611fb0576040517f08c379a0000000000000000000000000000000000000000000000000000000008152600401611fa790613f56565b60405180910390fd5b826006018581548110611fc657611fc56130c2565b5b905f5260205f20906006020160040133908060018154018082558091505060019003905f5260205f20015f9091909190916101000a81548173ffffffffffffffffffffffffffffffffffffffff021916908373ffffffffffffffffffffffffffffffffffffffff160217905550826006018581548110612049576120486130c2565b5b905f5260205f20906006020160050184908060018154018082558091505060019003905f5260205f2090602091828204019190069091909190916101000a81548160ff021916908360ff160217905550505050505050565b5f805f8481526020019081526020015f2090503373ffffffffffffffffffffffffffffffffffffffff16816005015f9054906101000a900473ffffffffffffffffffffffffffffffffffffffff1673ffffffffffffffffffffffffffffffffffffffff1614612145576040517f08c379a000000000000000000000000000000000000000000000000000000000815260040161213c90613fe4565b60405180910390fd5b5f5b8160070180549050811015612223578273ffffffffffffffffffffffffffffffffffffffff16826007018281548110612183576121826130c2565b5b905f5260205f2090600302015f015f9054906101000a900473ffffffffffffffffffffffffffffffffffffffff1673ffffffffffffffffffffffffffffffffffffffff16036122105760018260070182815481106121e4576121e36130c2565b5b905f5260205f2090600302016002015f6101000a81548160ff021916908315150217905550505061225f565b808061221b906131aa565b915050612147565b506040517f08c379a00000000000000000000000000000000000000000000000000000000081526004016122569061404c565b60405180910390fd5b5050565b828054828255905f5260205f209081019282156122d9579160200282015b828111156122d8578251825f6101000a81548173ffffffffffffffffffffffffffffffffffffffff021916908373ffffffffffffffffffffffffffffffffffffffff16021790555091602001919060010190612281565b5b5090506122e6919061238c565b5090565b828054828255905f5260205f2090601f0160209004810192821561237b579160200282015f5b8382111561234d57835183826101000a81548160ff021916908360ff16021790555092602001926001016020815f01049283019260010302612310565b80156123795782816101000a81549060ff02191690556001016020815f0104928301926001030261234d565b505b509050612388919061238c565b5090565b5b808211156123a3575f815f90555060010161238d565b5090565b5f604051905090565b5f80fd5b5f80fd5b5f819050919050565b6123ca816123b8565b81146123d4575f80fd5b50565b5f813590506123e5816123c1565b92915050565b5f60208284031215612400576123ff6123b0565b5b5f61240d848285016123d7565b91505092915050565b5f81519050919050565b5f82825260208201905092915050565b5f819050602082019050919050565b5f73ffffffffffffffffffffffffffffffffffffffff82169050919050565b5f6124688261243f565b9050919050565b6124788161245e565b82525050565b5f81519050919050565b5f82825260208201905092915050565b5f5b838110156124b557808201518184015260208101905061249a565b5f8484015250505050565b5f601f19601f8301169050919050565b5f6124da8261247e565b6124e48185612488565b93506124f4818560208601612498565b6124fd816124c0565b840191505092915050565b5f8115159050919050565b61251c81612508565b82525050565b5f606083015f8301516125375f86018261246f565b506020830151848203602086015261254f82826124d0565b91505060408301516125646040860182612513565b508091505092915050565b5f61257a8383612522565b905092915050565b5f602082019050919050565b5f61259882612416565b6125a28185612420565b9350836020820285016125b485612430565b805f5b858110156125ef57848403895281516125d0858261256f565b94506125db83612582565b925060208a019950506001810190506125b7565b50829750879550505050505092915050565b5f6020820190508181035f830152612619818461258e565b905092915050565b5f82825260208201905092915050565b5f61263b8261247e565b6126458185612621565b9350612655818560208601612498565b61265e816124c0565b840191505092915050565b612672816123b8565b82525050565b6126818161245e565b82525050565b5f610100820190508181035f8301526126a0818b612631565b905081810360208301526126b4818a612631565b90506126c36040830189612669565b6126d06060830188612669565b6126dd6080830187612669565b6126ea60a0830186612678565b6126f760c0830185612669565b61270460e0830184612669565b9998505050505050505050565b5f8060408385031215612727576127266123b0565b5b5f612734858286016123d7565b9250506020612745858286016123d7565b9150509250929050565b5f81519050919050565b5f82825260208201905092915050565b5f819050602082019050919050565b5f6127838383612513565b60208301905092915050565b5f602082019050919050565b5f6127a58261274f565b6127af8185612759565b93506127ba83612769565b805f5b838110156127ea5781516127d18882612778565b97506127dc8361278f565b9250506001810190506127bd565b5085935050505092915050565b5f6020820190508181035f83015261280f818461279b565b905092915050565b5f80fd5b5f80fd5b7f4e487b71000000000000000000000000000000000000000000000000000000005f52604160045260245ffd5b612855826124c0565b810181811067ffffffffffffffff821117156128745761287361281f565b5b80604052505050565b5f6128866123a7565b9050612892828261284c565b919050565b5f67ffffffffffffffff8211156128b1576128b061281f565b5b6128ba826124c0565b9050602081019050919050565b828183375f83830152505050565b5f6128e76128e284612897565b61287d565b9050828152602081018484840111156129035761290261281b565b5b61290e8482856128c7565b509392505050565b5f82601f83011261292a57612929612817565b5b813561293a8482602086016128d5565b91505092915050565b5f805f805f60a0868803121561295c5761295b6123b0565b5b5f86013567ffffffffffffffff811115612979576129786123b4565b5b61298588828901612916565b955050602086013567ffffffffffffffff8111156129a6576129a56123b4565b5b6129b288828901612916565b94505060406129c3888289016123d7565b93505060606129d4888289016123d7565b92505060806129e5888289016123d7565b9150509295509295909350565b6129fb8161245e565b8114612a05575f80fd5b50565b5f81359050612a16816129f2565b92915050565b5f805f60608486031215612a3357612a326123b0565b5b5f612a40868287016123d7565b9350506020612a51868287016123d7565b9250506040612a6286828701612a08565b9150509250925092565b5f60ff82169050919050565b612a8181612a6c565b82525050565b5f602082019050612a9a5f830184612a78565b92915050565b5f602082019050612ab35f830184612669565b92915050565b612ac281612a6c565b8114612acc575f80fd5b50565b5f81359050612add81612ab9565b92915050565b5f805f805f60a08688031215612afc57612afb6123b0565b5b5f612b09888289016123d7565b955050602086013567ffffffffffffffff811115612b2a57612b296123b4565b5b612b3688828901612916565b945050604086013567ffffffffffffffff811115612b5757612b566123b4565b5b612b6388828901612916565b9350506060612b74888289016123d7565b9250506080612b8588828901612acf565b9150509295509295909350565b5f805f60608486031215612ba957612ba86123b0565b5b5f612bb6868287016123d7565b9350506020612bc786828701612a08565b925050604084013567ffffffffffffffff811115612be857612be76123b4565b5b612bf486828701612916565b9150509250925092565b5f819050919050565b5f612c21612c1c612c178461243f565b612bfe565b61243f565b9050919050565b5f612c3282612c07565b9050919050565b5f612c4382612c28565b9050919050565b612c5381612c39565b82525050565b5f602082019050612c6c5f830184612c4a565b92915050565b5f8060408385031215612c8857612c876123b0565b5b5f612c95858286016123d7565b925050602083013567ffffffffffffffff811115612cb657612cb56123b4565b5b612cc285828601612916565b9150509250929050565b5f81519050919050565b5f82825260208201905092915050565b5f819050602082019050919050565b612cfe816123b8565b82525050565b612d0d81612a6c565b82525050565b5f81519050919050565b5f82825260208201905092915050565b5f819050602082019050919050565b5f612d47838361246f565b60208301905092915050565b5f602082019050919050565b5f612d6982612d13565b612d738185612d1d565b9350612d7e83612d2d565b805f5b83811015612dae578151612d958882612d3c565b9750612da083612d53565b925050600181019050612d81565b5085935050505092915050565b5f81519050919050565b5f82825260208201905092915050565b5f819050602082019050919050565b5f612def8383612d04565b60208301905092915050565b5f602082019050919050565b5f612e1182612dbb565b612e1b8185612dc5565b9350612e2683612dd5565b805f5b83811015612e56578151612e3d8882612de4565b9750612e4883612dfb565b925050600181019050612e29565b5085935050505092915050565b5f61010083015f8301518482035f860152612e7e82826124d0565b91505060208301518482036020860152612e9882826124d0565b9150506040830151612ead6040860182612cf5565b506060830151612ec06060860182612d04565b506080830151612ed36080860182612513565b5060a0830151612ee660a086018261246f565b5060c083015184820360c0860152612efe8282612d5f565b91505060e083015184820360e0860152612f188282612e07565b9150508091505092915050565b5f612f308383612e63565b905092915050565b5f602082019050919050565b5f612f4e82612ccc565b612f588185612cd6565b935083602082028501612f6a85612ce6565b805f5b85811015612fa55784840389528151612f868582612f25565b9450612f9183612f38565b925060208a01995050600181019050612f6d565b50829750879550505050505092915050565b5f6020820190508181035f830152612fcf8184612f44565b905092915050565b5f805f60608486031215612fee57612fed6123b0565b5b5f612ffb868287016123d7565b935050602061300c868287016123d7565b925050604061301d86828701612acf565b9150509250925092565b5f806040838503121561303d5761303c6123b0565b5b5f61304a858286016123d7565b925050602061305b85828601612a08565b9150509250929050565b7f4e487b71000000000000000000000000000000000000000000000000000000005f52602260045260245ffd5b5f60028204905060018216806130a957607f821691505b6020821081036130bc576130bb613065565b5b50919050565b7f4e487b71000000000000000000000000000000000000000000000000000000005f52603260045260245ffd5b7f4f6e6c79207468652061737369676e656420636f6d70616e792063616e20636f5f8201527f6d706c65746520746865207461736b2e00000000000000000000000000000000602082015250565b5f613149603083612621565b9150613154826130ef565b604082019050919050565b5f6020820190508181035f8301526131768161313d565b9050919050565b7f4e487b71000000000000000000000000000000000000000000000000000000005f52601160045260245ffd5b5f6131b4826123b8565b91507fffffffffffffffffffffffffffffffffffffffffffffffffffffffffffffffff82036131e6576131e561317d565b5b600182019050919050565b7f4f6e6c7920746865206576656e74206f776e65722063616e20616464206d6f6e5f8201527f65792e0000000000000000000000000000000000000000000000000000000000602082015250565b5f61324b602383612621565b9150613256826131f1565b604082019050919050565b5f6020820190508181035f8301526132788161323f565b9050919050565b5f613289826123b8565b9150613294836123b8565b92508282019050808211156132ac576132ab61317d565b5b92915050565b5f819050815f5260205f209050919050565b5f6020601f8301049050919050565b5f82821b905092915050565b5f6008830261330e7fffffffffffffffffffffffffffffffffffffffffffffffffffffffffffffffff826132d3565b61331886836132d3565b95508019841693508086168417925050509392505050565b5f61334a613345613340846123b8565b612bfe565b6123b8565b9050919050565b5f819050919050565b61336383613330565b61337761336f82613351565b8484546132df565b825550505050565b5f90565b61338b61337f565b61339681848461335a565b505050565b5b818110156133b9576133ae5f82613383565b60018101905061339c565b5050565b601f8211156133fe576133cf816132b2565b6133d8846132c4565b810160208510156133e7578190505b6133fb6133f3856132c4565b83018261339b565b50505b505050565b5f82821c905092915050565b5f61341e5f1984600802613403565b1980831691505092915050565b5f613436838361340f565b9150826002028217905092915050565b61344f8261247e565b67ffffffffffffffff8111156134685761346761281f565b5b6134728254613092565b61347d8282856133bd565b5f60209050601f8311600181146134ae575f841561349c578287015190505b6134a6858261342b565b86555061350d565b601f1984166134bc866132b2565b5f5b828110156134e3578489015182556001820191506020850194506020810190506134be565b8683101561350057848901516134fc601f89168261340f565b8355505b6001600288020188555050505b505050505050565b7f4f6e6c7920746865206576656e74206f776e65722063616e2061737369676e205f8201527f636f6d70616e6965732e00000000000000000000000000000000000000000000602082015250565b5f61356f602a83612621565b915061357a82613515565b604082019050919050565b5f6020820190508181035f83015261359c81613563565b9050919050565b7f43616e6e6f742061737369676e206120636f6d70616e7920746f206120636f6d5f8201527f706c65746564207461736b2e0000000000000000000000000000000000000000602082015250565b5f6135fd602c83612621565b9150613608826135a3565b604082019050919050565b5f6020820190508181035f83015261362a816135f1565b9050919050565b7f436f6d70616e79206973206e6f7420617070726f76656420666f7220746869735f8201527f206576656e742e00000000000000000000000000000000000000000000000000602082015250565b5f61368b602783612621565b915061369682613631565b604082019050919050565b5f6020820190508181035f8301526136b88161367f565b9050919050565b7f4e487b71000000000000000000000000000000000000000000000000000000005f52601260045260245ffd5b5f6136f6826123b8565b9150613701836123b8565b925082613711576137106136bf565b5b828204905092915050565b7f4f6e6c7920746865206576656e74206f776e65722063616e20637265617465205f8201527f7461736b732e0000000000000000000000000000000000000000000000000000602082015250565b5f613776602683612621565b91506137818261371c565b604082019050919050565b5f6020820190508181035f8301526137a38161376a565b9050919050565b7f4e6f7420656e6f756768206d6f6e657920696e2074686520636173682062616e5f8201527f6b2e000000000000000000000000000000000000000000000000000000000000602082015250565b5f613804602283612621565b915061380f826137aa565b604082019050919050565b5f6020820190508181035f830152613831816137f8565b9050919050565b7f4f6e6c7920746865206576656e74206f776e65722063616e2061646420636f6d5f8201527f70616e6965732e00000000000000000000000000000000000000000000000000602082015250565b5f613892602783612621565b915061389d82613838565b604082019050919050565b5f6020820190508181035f8301526138bf81613886565b9050919050565b7f4f6e6c7920746865206576656e74206f776e65722063616e2066696e616c697a5f8201527f6520746865206576656e742e0000000000000000000000000000000000000000602082015250565b5f613920602c83612621565b915061392b826138c6565b604082019050919050565b5f6020820190508181035f83015261394d81613914565b9050919050565b7f4576656e74206461746520686173206e6f7420706173736564207965742e00005f82015250565b5f613988601e83612621565b915061399382613954565b602082019050919050565b5f6020820190508181035f8301526139b58161397c565b9050919050565b5f6139c6826123b8565b91506139d1836123b8565b92508282039050818111156139e9576139e861317d565b5b92915050565b7f436f6d70616e7920616c72656164792072657175657374656420746f206a6f695f8201527f6e2e000000000000000000000000000000000000000000000000000000000000602082015250565b5f613a49602283612621565b9150613a54826139ef565b604082019050919050565b5f6020820190508181035f830152613a7681613a3d565b9050919050565b7f4576656e7420697320736f6c64206f75742e00000000000000000000000000005f82015250565b5f613ab1601283612621565b9150613abc82613a7d565b602082019050919050565b5f6020820190508181035f830152613ade81613aa5565b9050919050565b7f54686973207365617420697320616c72656164792074616b656e2e00000000005f82015250565b5f613b19601b83612621565b9150613b2482613ae5565b602082019050919050565b5f6020820190508181035f830152613b4681613b0d565b9050919050565b7f496e76616c69642073656174206e756d6265722e0000000000000000000000005f82015250565b5f613b81601483612621565b9150613b8c82613b4d565b602082019050919050565b5f6020820190508181035f830152613bae81613b75565b9050919050565b7f496e636f7272656374207469636b65742070726963652e0000000000000000005f82015250565b5f613be9601783612621565b9150613bf482613bb5565b602082019050919050565b5f6020820190508181035f830152613c1681613bdd565b9050919050565b5f8154613c2981613092565b613c338186612621565b9450600182165f8114613c4d5760018114613c6357613c95565b60ff198316865281151560200286019350613c95565b613c6c856132b2565b5f5b83811015613c8d57815481890152600182019150602081019050613c6e565b808801955050505b50505092915050565b5f60a082019050613cb15f830188612678565b8181036020830152613cc38187613c1d565b90508181036040830152613cd78186613c1d565b9050613ce66060830185612669565b613cf36080830184612669565b9695505050505050565b5f81519050613d0b816123c1565b92915050565b5f60208284031215613d2657613d256123b0565b5b5f613d3384828501613cfd565b91505092915050565b7f5461736b206d75737420626520636f6d706c6574656420746f206265207261745f8201527f65642e0000000000000000000000000000000000000000000000000000000000602082015250565b5f613d96602383612621565b9150613da182613d3c565b604082019050919050565b5f6020820190508181035f830152613dc381613d8a565b9050919050565b7f457865637574696e6720636f6d70616e792063616e6e6f7420726174652074685f8201527f656972206f776e207461736b2e00000000000000000000000000000000000000602082015250565b5f613e24602d83612621565b9150613e2f82613dca565b604082019050919050565b5f6020820190508181035f830152613e5181613e18565b9050919050565b7f4f6e6c7920636f6d70616e69657320696e20746865206576656e742063616e205f8201527f72617465207461736b732e000000000000000000000000000000000000000000602082015250565b5f613eb2602b83612621565b9150613ebd82613e58565b604082019050919050565b5f6020820190508181035f830152613edf81613ea6565b9050919050565b7f596f757220636f6d70616e792068617320616c726561647920726174656420745f8201527f686973207461736b2e0000000000000000000000000000000000000000000000602082015250565b5f613f40602983612621565b9150613f4b82613ee6565b604082019050919050565b5f6020820190508181035f830152613f6d81613f34565b9050919050565b7f4f6e6c7920746865206576656e74206f776e65722063616e20617070726f76655f8201527f20636f6d70616e6965732e000000000000000000000000000000000000000000602082015250565b5f613fce602b83612621565b9150613fd982613f74565b604082019050919050565b5f6020820190508181035f830152613ffb81613fc2565b9050919050565b7f436f6d70616e79206e6f7420666f756e642e00000000000000000000000000005f82015250565b5f614036601283612621565b915061404182614002565b602082019050919050565b5f6020820190508181035f8301526140638161402a565b905091905056fea264697066735822122052df6217e85e7fa413505ef5579bd3e76a4f38fe9a887dd2a5b0f8804cc09c1464736f6c63430008140033",
  "immutableReferences": {},
  "source": "// SPDX-License-Identifier: MIT\npragma solidity ^0.8.20;\n\nimport \"@openzeppelin/contracts/token/ERC721/ERC721.sol\";\nimport \"./TicketNFT.sol\";\n\ncontract EventManager {\n    struct Task {\n        string name;\n        string details;\n        uint256 reward;\n        uint8 minRating;\n        bool completed;\n        address assignedCompany;\n        address[] raters;\n        uint8[] ratings;\n    }\n\n    struct Company {\n        address companyAddress;\n        string name;\n        bool approved;\n    }\n\n    struct Event {\n        string name;\n        string details;\n        uint256 date;\n        uint256 cashBank;\n        uint256 ticketPrice;\n        address owner;\n        Task[] tasks;\n        Company[] companies;\n        uint256 totalTickets;\n        uint256 ticketsSold;\n        mapping(uint256 => bool) seatTaken;\n    }\n\n    mapping(uint => Event) public events;\n    uint public eventCount;\n    TicketNFT public ticketNFT;\n\n    constructor(address _ticketNFT) {\n        ticketNFT = TicketNFT(_ticketNFT);\n    }\n\n    function createEvent(\n        string memory _name, \n        string memory _details, \n        uint256 _date, \n        uint256 _ticketPrice,\n        uint256 _totalTickets\n    ) public {\n        eventCount++;\n        Event storage newEvent = events[eventCount];\n        newEvent.name = _name;\n        newEvent.details = _details;\n        newEvent.date = _date;\n        newEvent.ticketPrice = _ticketPrice;\n        newEvent.totalTickets = _totalTickets;\n        newEvent.ticketsSold = 0;\n        newEvent.owner = msg.sender;\n        newEvent.cashBank = 0;\n    }\n\n    function addMoneyToCashBank(uint _eventId) public payable {\n        Event storage eventInstance = events[_eventId];\n        require(eventInstance.owner == msg.sender, \"Only the event owner can add money.\");\n        eventInstance.cashBank += msg.value;\n    }\n\n    function createTask(\n        uint _eventId, \n        string memory _name, \n        string memory _details, \n        uint256 _reward, \n        uint8 _minRating\n    ) public {\n        Event storage eventInstance = events[_eventId];\n        require(eventInstance.owner == msg.sender, \"Only the event owner can create tasks.\");\n        require(eventInstance.cashBank >= _reward, \"Not enough money in the cash bank.\");\n        Task memory newTask = Task({\n            name: _name,\n            details: _details,\n            reward: _reward,\n            minRating: _minRating,\n            completed: false,\n            assignedCompany: address(0),\n            raters: new address[](0),\n            ratings: new uint8[](0)\n        });\n        eventInstance.tasks.push(newTask);\n    }\n\n    function getAllTasks(uint _eventId) public view returns (Task[] memory) {\n        Event storage eventInstance = events[_eventId];\n        return eventInstance.tasks;\n    }\n\n    function addCompany(uint _eventId, address _companyAddress, string memory _name) public {\n        Event storage eventInstance = events[_eventId];\n        require(eventInstance.owner == msg.sender, \"Only the event owner can add companies.\");\n        eventInstance.companies.push(Company({\n            companyAddress: _companyAddress,\n            name: _name,\n            approved: true\n        }));\n    }\n\n    function requestToJoin(uint _eventId, string memory _name) public {\n        Event storage eventInstance = events[_eventId];\n        for (uint i = 0; i < eventInstance.companies.length; i++) {\n            require(eventInstance.companies[i].companyAddress != msg.sender, \"Company already requested to join.\");\n        }\n        eventInstance.companies.push(Company({\n            companyAddress: msg.sender,\n            name: _name,\n            approved: false\n        }));\n    }\n\n    function approveCompany(uint _eventId, address _companyAddress) public {\n        Event storage eventInstance = events[_eventId];\n        require(eventInstance.owner == msg.sender, \"Only the event owner can approve companies.\");\n        for (uint i = 0; i < eventInstance.companies.length; i++) {\n            if (eventInstance.companies[i].companyAddress == _companyAddress) {\n                eventInstance.companies[i].approved = true;\n                return;\n            }\n        }\n        revert(\"Company not found.\");\n    }\n\n    function getAllCompanies(uint _eventId) public view returns (Company[] memory) {\n        Event storage eventInstance = events[_eventId];\n        return eventInstance.companies;\n    }\n\n    function assignCompanyToTask(uint _eventId, uint _taskId, address _companyAddress) public {\n        Event storage eventInstance = events[_eventId];\n        require(eventInstance.owner == msg.sender, \"Only the event owner can assign companies.\");\n        require(!eventInstance.tasks[_taskId].completed, \"Cannot assign a company to a completed task.\");\n        bool companyApproved = false;\n        for (uint i = 0; i < eventInstance.companies.length; i++) {\n            if (eventInstance.companies[i].companyAddress == _companyAddress && eventInstance.companies[i].approved) {\n                companyApproved = true;\n                break;\n            }\n        }\n        require(companyApproved, \"Company is not approved for this event.\");\n        \n        eventInstance.tasks[_taskId].assignedCompany = _companyAddress;\n    }\n\n    function purchaseTicket(\n        uint _eventId,\n        uint256 _seat\n    ) public payable {\n        Event storage eventInstance = events[_eventId];\n        require(eventInstance.ticketsSold < eventInstance.totalTickets, \"Event is sold out.\");\n        require(!eventInstance.seatTaken[_seat], \"This seat is already taken.\");\n        require(_seat < eventInstance.totalTickets && _seat >= 0, \"Invalid seat number.\");\n        require(msg.value == eventInstance.ticketPrice, \"Incorrect ticket price.\");\n\n        ticketNFT.mint(\n            msg.sender, \n            eventInstance.name, \n            eventInstance.details, \n            eventInstance.date, \n            _seat\n        );\n        eventInstance.ticketsSold++;\n        eventInstance.cashBank += msg.value;\n        eventInstance.seatTaken[_seat] = true;\n    }\n\n    function getSeatAvailability(uint _eventId) public view returns (bool[] memory) {\n        Event storage eventInstance = events[_eventId];\n        bool[] memory availability = new bool[](eventInstance.totalTickets);\n        \n        for (uint256 i = 0; i < eventInstance.totalTickets; i++) {\n            availability[i] = !eventInstance.seatTaken[i];\n        }\n        \n        return availability;\n    }\n\n    function completeTask(uint _eventId, uint _taskId) public {\n        Event storage eventInstance = events[_eventId];\n        require(eventInstance.tasks[_taskId].assignedCompany == msg.sender, \"Only the assigned company can complete the task.\");\n        eventInstance.tasks[_taskId].completed = true;\n    }\n\n    function rateTask(uint _eventId, uint _taskId, uint8 _rating) public {\n        Event storage eventInstance = events[_eventId];\n        require(eventInstance.tasks[_taskId].completed, \"Task must be completed to be rated.\");\n        require(eventInstance.tasks[_taskId].assignedCompany != msg.sender, \"Executing company cannot rate their own task.\");\n        bool isCompanyInEvent = false;\n        for (uint i = 0; i < eventInstance.companies.length; i++) {\n            if (eventInstance.companies[i].companyAddress == msg.sender) {\n                isCompanyInEvent = true;\n                break;\n            }\n        }\n        require(isCompanyInEvent, \"Only companies in the event can rate tasks.\");\n        bool thisCompanyAlreadyRated = false;\n        for (uint i = 0; i < eventInstance.tasks[_taskId].raters.length; i++) {\n            if (eventInstance.tasks[_taskId].raters[i] == msg.sender) {\n                thisCompanyAlreadyRated = true;\n                break;\n            }\n        }\n        require(!thisCompanyAlreadyRated, \"Your company has already rated this task.\");\n        eventInstance.tasks[_taskId].raters.push(msg.sender);\n        eventInstance.tasks[_taskId].ratings.push(_rating);\n    }\n\n    function finalizeEvent(uint _eventId) public {\n        Event storage eventInstance = events[_eventId];\n        require(eventInstance.owner == msg.sender, \"Only the event owner can finalize the event.\");\n        require(block.timestamp >= eventInstance.date, \"Event date has not passed yet.\");\n\n        for (uint i = 0; i < eventInstance.tasks.length; i++) {\n            Task storage task = eventInstance.tasks[i];\n            if (task.completed) {\n                uint8 averageRating = calculateAverageRating(_eventId, i);\n                if (averageRating >= task.minRating) {\n                    payable(task.assignedCompany).transfer(task.reward);\n                    eventInstance.cashBank -= task.reward;\n                }\n            }\n        }\n\n        payable(eventInstance.owner).transfer(eventInstance.cashBank);\n    }\n\n    function calculateAverageRating(uint _eventId, uint _taskId) public view returns (uint8) {\n        Event storage eventInstance = events[_eventId];\n        uint256 numOfRatings = eventInstance.tasks[_taskId].ratings.length;\n        uint256 ratingSum = 0;\n\n        for (uint i = 0; i < numOfRatings; i++) {\n            ratingSum += eventInstance.tasks[_taskId].ratings[i];\n        }\n\n        return uint8(ratingSum / numOfRatings);\n    }\n}",
  "sourcePath": "/Users/itaybiton/Desktop/DappTruffle/EventCoin/contracts/EventManager.sol",
  "compiler": {
    "name": "solc",
    "version": "0.8.20+commit.a1b79de6.Emscripten.clang"
  },
  "schemaVersion": "3.4.16",
  "updatedAt": "2024-08-24T07:24:21.657Z",
  "devdoc": {
    "kind": "dev",
    "methods": {},
    "version": 1
  },
  "userdoc": {
    "kind": "user",
    "methods": {},
    "version": 1
  }
}