{
  "contractName": "EventManager",
  "abi": [
    {
      "inputs": [],
      "name": "eventCount",
      "outputs": [
        {
          "internalType": "uint256",
          "name": "",
          "type": "uint256"
        }
      ],
      "stateMutability": "view",
      "type": "function"
    },
    {
      "inputs": [
        {
          "internalType": "uint256",
          "name": "",
          "type": "uint256"
        }
      ],
      "name": "events",
      "outputs": [
        {
          "internalType": "string",
          "name": "name",
          "type": "string"
        },
        {
          "internalType": "address",
          "name": "creator",
          "type": "address"
        },
        {
          "internalType": "uint256",
          "name": "budget",
          "type": "uint256"
        },
        {
          "internalType": "uint256",
          "name": "endTime",
          "type": "uint256"
        }
      ],
      "stateMutability": "view",
      "type": "function"
    },
    {
      "inputs": [
        {
          "internalType": "string",
          "name": "_name",
          "type": "string"
        },
        {
          "internalType": "uint256",
          "name": "_budget",
          "type": "uint256"
        },
        {
          "internalType": "uint256",
          "name": "_endTime",
          "type": "uint256"
        }
      ],
      "name": "createEvent",
      "outputs": [],
      "stateMutability": "nonpayable",
      "type": "function"
    },
    {
      "inputs": [
        {
          "internalType": "uint256",
          "name": "_eventId",
          "type": "uint256"
        }
      ],
      "name": "joinEvent",
      "outputs": [],
      "stateMutability": "nonpayable",
      "type": "function"
    },
    {
      "inputs": [
        {
          "internalType": "uint256",
          "name": "_eventId",
          "type": "uint256"
        },
        {
          "internalType": "uint256",
          "name": "_taskId",
          "type": "uint256"
        },
        {
          "internalType": "uint256",
          "name": "_rating",
          "type": "uint256"
        }
      ],
      "name": "completeTask",
      "outputs": [],
      "stateMutability": "nonpayable",
      "type": "function"
    },
    {
      "inputs": [
        {
          "internalType": "uint256",
          "name": "_eventId",
          "type": "uint256"
        }
      ],
      "name": "purchaseTicket",
      "outputs": [],
      "stateMutability": "payable",
      "type": "function"
    }
  ],
  "bytecode": "0x608060405234801561000f575f80fd5b506106608061001d5f395ff3fe608060405260043610610054575f3560e01c80630b7914301461005857806338d361e21461009757806371be2e4a146100bf5780639e9580f6146100e9578063b75f982014610111578063b948348c14610139575b5f80fd5b348015610063575f80fd5b5061007e6004803603810190610079919061027f565b610155565b60405161008e9493929190610382565b60405180910390f35b3480156100a2575f80fd5b506100bd60048036038101906100b8919061027f565b610225565b005b3480156100ca575f80fd5b506100d3610228565b6040516100e091906103cc565b60405180910390f35b3480156100f4575f80fd5b5061010f600480360381019061010a9190610511565b61022e565b005b34801561011c575f80fd5b506101376004803603810190610132919061057d565b610233565b005b610153600480360381019061014e919061027f565b610238565b005b5f602052805f5260405f205f91509050805f018054610173906105fa565b80601f016020809104026020016040519081016040528092919081815260200182805461019f906105fa565b80156101ea5780601f106101c1576101008083540402835291602001916101ea565b820191905f5260205f20905b8154815290600101906020018083116101cd57829003601f168201915b505050505090806001015f9054906101000a900473ffffffffffffffffffffffffffffffffffffffff16908060020154908060040154905084565b50565b60015481565b505050565b505050565b50565b5f604051905090565b5f80fd5b5f80fd5b5f819050919050565b61025e8161024c565b8114610268575f80fd5b50565b5f8135905061027981610255565b92915050565b5f6020828403121561029457610293610244565b5b5f6102a18482850161026b565b91505092915050565b5f81519050919050565b5f82825260208201905092915050565b5f5b838110156102e15780820151818401526020810190506102c6565b5f8484015250505050565b5f601f19601f8301169050919050565b5f610306826102aa565b61031081856102b4565b93506103208185602086016102c4565b610329816102ec565b840191505092915050565b5f73ffffffffffffffffffffffffffffffffffffffff82169050919050565b5f61035d82610334565b9050919050565b61036d81610353565b82525050565b61037c8161024c565b82525050565b5f6080820190508181035f83015261039a81876102fc565b90506103a96020830186610364565b6103b66040830185610373565b6103c36060830184610373565b95945050505050565b5f6020820190506103df5f830184610373565b92915050565b5f80fd5b5f80fd5b7f4e487b71000000000000000000000000000000000000000000000000000000005f52604160045260245ffd5b610423826102ec565b810181811067ffffffffffffffff82111715610442576104416103ed565b5b80604052505050565b5f61045461023b565b9050610460828261041a565b919050565b5f67ffffffffffffffff82111561047f5761047e6103ed565b5b610488826102ec565b9050602081019050919050565b828183375f83830152505050565b5f6104b56104b084610465565b61044b565b9050828152602081018484840111156104d1576104d06103e9565b5b6104dc848285610495565b509392505050565b5f82601f8301126104f8576104f76103e5565b5b81356105088482602086016104a3565b91505092915050565b5f805f6060848603121561052857610527610244565b5b5f84013567ffffffffffffffff81111561054557610544610248565b5b610551868287016104e4565b93505060206105628682870161026b565b92505060406105738682870161026b565b9150509250925092565b5f805f6060848603121561059457610593610244565b5b5f6105a18682870161026b565b93505060206105b28682870161026b565b92505060406105c38682870161026b565b9150509250925092565b7f4e487b71000000000000000000000000000000000000000000000000000000005f52602260045260245ffd5b5f600282049050600182168061061157607f821691505b602082108103610624576106236105cd565b5b5091905056fea26469706673582212205208b31ac7e0f015d0d6fecf8ef56d64319156847075dbf3522dbd64401b81df64736f6c63430008150033",
  "immutableReferences": {},
  "source": "// SPDX-License-Identifier: MIT\npragma solidity ^0.8.0;\n\nimport \"@openzeppelin/contracts/token/ERC721/ERC721.sol\";\nimport \"@openzeppelin/contracts/token/ERC20/ERC20.sol\";\n\ncontract EventManager {\n    struct Task {\n        string description;\n        bool completed;\n        uint rating; // 0 to 5\n    }\n\n    struct Company {\n        address companyAddress;\n        Task[] tasks;\n    }\n\n    struct Event {\n        string name;\n        address creator;\n        uint budget;\n        Company[] companies;\n        uint endTime;\n    }\n\n    mapping(uint => Event) public events;\n    uint public eventCount;\n\n    // Add more functions to handle the event logic\n\n    function createEvent(string memory _name, uint _budget, uint _endTime) public {\n        // Event creation logic\n    }\n\n    function joinEvent(uint _eventId) public {\n        // Logic for companies to join the event\n    }\n\n    function completeTask(uint _eventId, uint _taskId, uint _rating) public {\n        // Task completion logic\n    }\n\n    function purchaseTicket(uint _eventId) public payable {\n        // NFT ticket purchase logic\n    }\n\n    // Additional functions for managing tasks, rewards, and NFTs\n}",
  "sourcePath": "/Users/itaybiton/Desktop/DappTruffle/EventCoin/contracts/EventManager.sol",
  "compiler": {
    "name": "solc",
    "version": "0.8.21+commit.d9974bed.Emscripten.clang"
  },
  "schemaVersion": "3.4.16",
  "updatedAt": "2024-08-21T09:50:47.826Z",
  "devdoc": {
    "kind": "dev",
    "methods": {},
    "version": 1
  },
  "userdoc": {
    "kind": "user",
    "methods": {},
    "version": 1
  }
}