{
  "contractName": "TicketNFT",
  "abi": [
    {
      "inputs": [
        {
          "internalType": "address",
          "name": "_initialOwner",
          "type": "address"
        }
      ],
      "stateMutability": "nonpayable",
      "type": "constructor"
    },
    {
      "inputs": [
        {
          "internalType": "address",
          "name": "sender",
          "type": "address"
        },
        {
          "internalType": "uint256",
          "name": "tokenId",
          "type": "uint256"
        },
        {
          "internalType": "address",
          "name": "owner",
          "type": "address"
        }
      ],
      "name": "ERC721IncorrectOwner",
      "type": "error"
    },
    {
      "inputs": [
        {
          "internalType": "address",
          "name": "operator",
          "type": "address"
        },
        {
          "internalType": "uint256",
          "name": "tokenId",
          "type": "uint256"
        }
      ],
      "name": "ERC721InsufficientApproval",
      "type": "error"
    },
    {
      "inputs": [
        {
          "internalType": "address",
          "name": "approver",
          "type": "address"
        }
      ],
      "name": "ERC721InvalidApprover",
      "type": "error"
    },
    {
      "inputs": [
        {
          "internalType": "address",
          "name": "operator",
          "type": "address"
        }
      ],
      "name": "ERC721InvalidOperator",
      "type": "error"
    },
    {
      "inputs": [
        {
          "internalType": "address",
          "name": "owner",
          "type": "address"
        }
      ],
      "name": "ERC721InvalidOwner",
      "type": "error"
    },
    {
      "inputs": [
        {
          "internalType": "address",
          "name": "receiver",
          "type": "address"
        }
      ],
      "name": "ERC721InvalidReceiver",
      "type": "error"
    },
    {
      "inputs": [
        {
          "internalType": "address",
          "name": "sender",
          "type": "address"
        }
      ],
      "name": "ERC721InvalidSender",
      "type": "error"
    },
    {
      "inputs": [
        {
          "internalType": "uint256",
          "name": "tokenId",
          "type": "uint256"
        }
      ],
      "name": "ERC721NonexistentToken",
      "type": "error"
    },
    {
      "inputs": [
        {
          "internalType": "address",
          "name": "owner",
          "type": "address"
        }
      ],
      "name": "OwnableInvalidOwner",
      "type": "error"
    },
    {
      "inputs": [
        {
          "internalType": "address",
          "name": "account",
          "type": "address"
        }
      ],
      "name": "OwnableUnauthorizedAccount",
      "type": "error"
    },
    {
      "anonymous": false,
      "inputs": [
        {
          "indexed": true,
          "internalType": "address",
          "name": "owner",
          "type": "address"
        },
        {
          "indexed": true,
          "internalType": "address",
          "name": "approved",
          "type": "address"
        },
        {
          "indexed": true,
          "internalType": "uint256",
          "name": "tokenId",
          "type": "uint256"
        }
      ],
      "name": "Approval",
      "type": "event"
    },
    {
      "anonymous": false,
      "inputs": [
        {
          "indexed": true,
          "internalType": "address",
          "name": "owner",
          "type": "address"
        },
        {
          "indexed": true,
          "internalType": "address",
          "name": "operator",
          "type": "address"
        },
        {
          "indexed": false,
          "internalType": "bool",
          "name": "approved",
          "type": "bool"
        }
      ],
      "name": "ApprovalForAll",
      "type": "event"
    },
    {
      "anonymous": false,
      "inputs": [
        {
          "indexed": false,
          "internalType": "uint256",
          "name": "_fromTokenId",
          "type": "uint256"
        },
        {
          "indexed": false,
          "internalType": "uint256",
          "name": "_toTokenId",
          "type": "uint256"
        }
      ],
      "name": "BatchMetadataUpdate",
      "type": "event"
    },
    {
      "anonymous": false,
      "inputs": [
        {
          "indexed": false,
          "internalType": "uint256",
          "name": "_tokenId",
          "type": "uint256"
        }
      ],
      "name": "MetadataUpdate",
      "type": "event"
    },
    {
      "anonymous": false,
      "inputs": [
        {
          "indexed": true,
          "internalType": "address",
          "name": "previousOwner",
          "type": "address"
        },
        {
          "indexed": true,
          "internalType": "address",
          "name": "newOwner",
          "type": "address"
        }
      ],
      "name": "OwnershipTransferred",
      "type": "event"
    },
    {
      "anonymous": false,
      "inputs": [
        {
          "indexed": true,
          "internalType": "address",
          "name": "from",
          "type": "address"
        },
        {
          "indexed": true,
          "internalType": "address",
          "name": "to",
          "type": "address"
        },
        {
          "indexed": true,
          "internalType": "uint256",
          "name": "tokenId",
          "type": "uint256"
        }
      ],
      "name": "Transfer",
      "type": "event"
    },
    {
      "inputs": [
        {
          "internalType": "address",
          "name": "to",
          "type": "address"
        },
        {
          "internalType": "uint256",
          "name": "tokenId",
          "type": "uint256"
        }
      ],
      "name": "approve",
      "outputs": [],
      "stateMutability": "nonpayable",
      "type": "function"
    },
    {
      "inputs": [
        {
          "internalType": "address",
          "name": "owner",
          "type": "address"
        }
      ],
      "name": "balanceOf",
      "outputs": [
        {
          "internalType": "uint256",
          "name": "",
          "type": "uint256"
        }
      ],
      "stateMutability": "view",
      "type": "function"
    },
    {
      "inputs": [
        {
          "internalType": "uint256",
          "name": "tokenId",
          "type": "uint256"
        }
      ],
      "name": "getApproved",
      "outputs": [
        {
          "internalType": "address",
          "name": "",
          "type": "address"
        }
      ],
      "stateMutability": "view",
      "type": "function"
    },
    {
      "inputs": [
        {
          "internalType": "address",
          "name": "owner",
          "type": "address"
        },
        {
          "internalType": "address",
          "name": "operator",
          "type": "address"
        }
      ],
      "name": "isApprovedForAll",
      "outputs": [
        {
          "internalType": "bool",
          "name": "",
          "type": "bool"
        }
      ],
      "stateMutability": "view",
      "type": "function"
    },
    {
      "inputs": [],
      "name": "name",
      "outputs": [
        {
          "internalType": "string",
          "name": "",
          "type": "string"
        }
      ],
      "stateMutability": "view",
      "type": "function"
    },
    {
      "inputs": [],
      "name": "nextTokenId",
      "outputs": [
        {
          "internalType": "uint256",
          "name": "",
          "type": "uint256"
        }
      ],
      "stateMutability": "view",
      "type": "function"
    },
    {
      "inputs": [],
      "name": "owner",
      "outputs": [
        {
          "internalType": "address",
          "name": "",
          "type": "address"
        }
      ],
      "stateMutability": "view",
      "type": "function"
    },
    {
      "inputs": [
        {
          "internalType": "uint256",
          "name": "tokenId",
          "type": "uint256"
        }
      ],
      "name": "ownerOf",
      "outputs": [
        {
          "internalType": "address",
          "name": "",
          "type": "address"
        }
      ],
      "stateMutability": "view",
      "type": "function"
    },
    {
      "inputs": [],
      "name": "renounceOwnership",
      "outputs": [],
      "stateMutability": "nonpayable",
      "type": "function"
    },
    {
      "inputs": [
        {
          "internalType": "address",
          "name": "from",
          "type": "address"
        },
        {
          "internalType": "address",
          "name": "to",
          "type": "address"
        },
        {
          "internalType": "uint256",
          "name": "tokenId",
          "type": "uint256"
        }
      ],
      "name": "safeTransferFrom",
      "outputs": [],
      "stateMutability": "nonpayable",
      "type": "function"
    },
    {
      "inputs": [
        {
          "internalType": "address",
          "name": "from",
          "type": "address"
        },
        {
          "internalType": "address",
          "name": "to",
          "type": "address"
        },
        {
          "internalType": "uint256",
          "name": "tokenId",
          "type": "uint256"
        },
        {
          "internalType": "bytes",
          "name": "data",
          "type": "bytes"
        }
      ],
      "name": "safeTransferFrom",
      "outputs": [],
      "stateMutability": "nonpayable",
      "type": "function"
    },
    {
      "inputs": [
        {
          "internalType": "address",
          "name": "operator",
          "type": "address"
        },
        {
          "internalType": "bool",
          "name": "approved",
          "type": "bool"
        }
      ],
      "name": "setApprovalForAll",
      "outputs": [],
      "stateMutability": "nonpayable",
      "type": "function"
    },
    {
      "inputs": [
        {
          "internalType": "bytes4",
          "name": "interfaceId",
          "type": "bytes4"
        }
      ],
      "name": "supportsInterface",
      "outputs": [
        {
          "internalType": "bool",
          "name": "",
          "type": "bool"
        }
      ],
      "stateMutability": "view",
      "type": "function"
    },
    {
      "inputs": [],
      "name": "symbol",
      "outputs": [
        {
          "internalType": "string",
          "name": "",
          "type": "string"
        }
      ],
      "stateMutability": "view",
      "type": "function"
    },
    {
      "inputs": [
        {
          "internalType": "uint256",
          "name": "",
          "type": "uint256"
        }
      ],
      "name": "ticketDetails",
      "outputs": [
        {
          "internalType": "string",
          "name": "eventName",
          "type": "string"
        },
        {
          "internalType": "string",
          "name": "eventDetails",
          "type": "string"
        },
        {
          "internalType": "uint256",
          "name": "eventDate",
          "type": "uint256"
        },
        {
          "internalType": "uint256",
          "name": "seat",
          "type": "uint256"
        }
      ],
      "stateMutability": "view",
      "type": "function"
    },
    {
      "inputs": [
        {
          "internalType": "uint256",
          "name": "tokenId",
          "type": "uint256"
        }
      ],
      "name": "tokenURI",
      "outputs": [
        {
          "internalType": "string",
          "name": "",
          "type": "string"
        }
      ],
      "stateMutability": "view",
      "type": "function"
    },
    {
      "inputs": [
        {
          "internalType": "address",
          "name": "from",
          "type": "address"
        },
        {
          "internalType": "address",
          "name": "to",
          "type": "address"
        },
        {
          "internalType": "uint256",
          "name": "tokenId",
          "type": "uint256"
        }
      ],
      "name": "transferFrom",
      "outputs": [],
      "stateMutability": "nonpayable",
      "type": "function"
    },
    {
      "inputs": [
        {
          "internalType": "address",
          "name": "newOwner",
          "type": "address"
        }
      ],
      "name": "transferOwnership",
      "outputs": [],
      "stateMutability": "nonpayable",
      "type": "function"
    },
    {
      "inputs": [
        {
          "internalType": "address",
          "name": "to",
          "type": "address"
        },
        {
          "internalType": "string",
          "name": "_eventName",
          "type": "string"
        },
        {
          "internalType": "string",
          "name": "_eventDetails",
          "type": "string"
        },
        {
          "internalType": "uint256",
          "name": "_eventDate",
          "type": "uint256"
        },
        {
          "internalType": "uint256",
          "name": "_seat",
          "type": "uint256"
        }
      ],
      "name": "mint",
      "outputs": [
        {
          "internalType": "uint256",
          "name": "",
          "type": "uint256"
        }
      ],
      "stateMutability": "nonpayable",
      "type": "function"
    }
  ],
  "bytecode": "0x608060405234801562000010575f80fd5b506040516200340e3803806200340e83398181016040528101906200003691906200027c565b806040518060400160405280600c81526020017f4576656e74205469636b657400000000000000000000000000000000000000008152506040518060400160405280600481526020017f45544b5400000000000000000000000000000000000000000000000000000000815250815f9081620000b3919062000510565b508060019081620000c5919062000510565b5050505f73ffffffffffffffffffffffffffffffffffffffff168173ffffffffffffffffffffffffffffffffffffffff16036200013b575f6040517f1e4fbdf700000000000000000000000000000000000000000000000000000000815260040162000132919062000605565b60405180910390fd5b6200014c816200015460201b60201c565b505062000620565b5f60075f9054906101000a900473ffffffffffffffffffffffffffffffffffffffff1690508160075f6101000a81548173ffffffffffffffffffffffffffffffffffffffff021916908373ffffffffffffffffffffffffffffffffffffffff1602179055508173ffffffffffffffffffffffffffffffffffffffff168173ffffffffffffffffffffffffffffffffffffffff167f8be0079c531659141344cd1fd0a4f28419497f9722a3daafe3b4186f6b6457e060405160405180910390a35050565b5f80fd5b5f73ffffffffffffffffffffffffffffffffffffffff82169050919050565b5f62000246826200021b565b9050919050565b62000258816200023a565b811462000263575f80fd5b50565b5f8151905062000276816200024d565b92915050565b5f6020828403121562000294576200029362000217565b5b5f620002a38482850162000266565b91505092915050565b5f81519050919050565b7f4e487b71000000000000000000000000000000000000000000000000000000005f52604160045260245ffd5b7f4e487b71000000000000000000000000000000000000000000000000000000005f52602260045260245ffd5b5f60028204905060018216806200032857607f821691505b6020821081036200033e576200033d620002e3565b5b50919050565b5f819050815f5260205f209050919050565b5f6020601f8301049050919050565b5f82821b905092915050565b5f60088302620003a27fffffffffffffffffffffffffffffffffffffffffffffffffffffffffffffffff8262000365565b620003ae868362000365565b95508019841693508086168417925050509392505050565b5f819050919050565b5f819050919050565b5f620003f8620003f2620003ec84620003c6565b620003cf565b620003c6565b9050919050565b5f819050919050565b6200041383620003d8565b6200042b6200042282620003ff565b84845462000371565b825550505050565b5f90565b6200044162000433565b6200044e81848462000408565b505050565b5b818110156200047557620004695f8262000437565b60018101905062000454565b5050565b601f821115620004c4576200048e8162000344565b620004998462000356565b81016020851015620004a9578190505b620004c1620004b88562000356565b83018262000453565b50505b505050565b5f82821c905092915050565b5f620004e65f1984600802620004c9565b1980831691505092915050565b5f620005008383620004d5565b9150826002028217905092915050565b6200051b82620002ac565b67ffffffffffffffff811115620005375762000536620002b6565b5b62000543825462000310565b6200055082828562000479565b5f60209050601f83116001811462000586575f841562000571578287015190505b6200057d8582620004f3565b865550620005ec565b601f198416620005968662000344565b5f5b82811015620005bf5784890151825560018201915060208501945060208101905062000598565b86831015620005df5784890151620005db601f891682620004d5565b8355505b6001600288020188555050505b505050505050565b620005ff816200023a565b82525050565b5f6020820190506200061a5f830184620005f4565b92915050565b612de0806200062e5f395ff3fe608060405234801561000f575f80fd5b506004361061011f575f3560e01c806370a08231116100ab578063a22cb4651161006f578063a22cb4651461031c578063b88d4fde14610338578063c87b56dd14610354578063e985e9c514610384578063f2fde38b146103b45761011f565b806370a0823114610288578063715018a6146102b857806375794a3c146102c25780638da5cb5b146102e057806395d89b41146102fe5761011f565b8063095ea7b3116100f2578063095ea7b3146101d457806323b872dd146101f057806329867dac1461020c57806342842e0e1461023c5780636352211e146102585761011f565b806301ffc9a714610123578063033fab351461015357806306fdde0314610186578063081812fc146101a4575b5f80fd5b61013d60048036038101906101389190611e47565b6103d0565b60405161014a9190611e8c565b60405180910390f35b61016d60048036038101906101689190611ed8565b610430565b60405161017d9493929190611f9c565b60405180910390f35b61018e610568565b60405161019b9190611fed565b60405180910390f35b6101be60048036038101906101b99190611ed8565b6105f7565b6040516101cb919061204c565b60405180910390f35b6101ee60048036038101906101e9919061208f565b610612565b005b61020a600480360381019061020591906120cd565b610628565b005b61022660048036038101906102219190612249565b610727565b60405161023391906122f8565b60405180910390f35b610256600480360381019061025191906120cd565b6107f1565b005b610272600480360381019061026d9190611ed8565b610810565b60405161027f919061204c565b60405180910390f35b6102a2600480360381019061029d9190612311565b610821565b6040516102af91906122f8565b60405180910390f35b6102c06108d7565b005b6102ca6108ea565b6040516102d791906122f8565b60405180910390f35b6102e86108f0565b6040516102f5919061204c565b60405180910390f35b610306610918565b6040516103139190611fed565b60405180910390f35b61033660048036038101906103319190612366565b6109a8565b005b610352600480360381019061034d9190612442565b6109be565b005b61036e60048036038101906103699190611ed8565b6109db565b60405161037b9190611fed565b60405180910390f35b61039e600480360381019061039991906124c2565b610ae6565b6040516103ab9190611e8c565b60405180910390f35b6103ce60048036038101906103c99190612311565b610b74565b005b5f634906490660e01b7bffffffffffffffffffffffffffffffffffffffffffffffffffffffff1916827bffffffffffffffffffffffffffffffffffffffffffffffffffffffff19161480610429575061042882610bf8565b5b9050919050565b6009602052805f5260405f205f91509050805f01805461044f9061252d565b80601f016020809104026020016040519081016040528092919081815260200182805461047b9061252d565b80156104c65780601f1061049d576101008083540402835291602001916104c6565b820191905f5260205f20905b8154815290600101906020018083116104a957829003601f168201915b5050505050908060010180546104db9061252d565b80601f01602080910402602001604051908101604052809291908181526020018280546105079061252d565b80156105525780601f1061052957610100808354040283529160200191610552565b820191905f5260205f20905b81548152906001019060200180831161053557829003601f168201915b5050505050908060020154908060030154905084565b60605f80546105769061252d565b80601f01602080910402602001604051908101604052809291908181526020018280546105a29061252d565b80156105ed5780601f106105c4576101008083540402835291602001916105ed565b820191905f5260205f20905b8154815290600101906020018083116105d057829003601f168201915b5050505050905090565b5f61060182610cd9565b5061060b82610d5f565b9050919050565b610624828261061f610d98565b610d9f565b5050565b5f73ffffffffffffffffffffffffffffffffffffffff168273ffffffffffffffffffffffffffffffffffffffff1603610698575f6040517f64a0ae9200000000000000000000000000000000000000000000000000000000815260040161068f919061204c565b60405180910390fd5b5f6106ab83836106a6610d98565b610db1565b90508373ffffffffffffffffffffffffffffffffffffffff168173ffffffffffffffffffffffffffffffffffffffff1614610721578382826040517f64283d7b0000000000000000000000000000000000000000000000000000000081526004016107189392919061255d565b60405180910390fd5b50505050565b5f610730610fbc565b5f60085490506107408782611043565b60405180608001604052808781526020018681526020018581526020018481525060095f8381526020019081526020015f205f820151815f019081610785919061272f565b50602082015181600101908161079b919061272f565b5060408201518160020155606082015181600301559050505f6107c087878787611060565b90506107cc82826110a2565b60085f8154809291906107de9061282b565b9190505550819250505095945050505050565b61080b83838360405180602001604052805f8152506109be565b505050565b5f61081a82610cd9565b9050919050565b5f8073ffffffffffffffffffffffffffffffffffffffff168273ffffffffffffffffffffffffffffffffffffffff1603610892575f6040517f89c62b64000000000000000000000000000000000000000000000000000000008152600401610889919061204c565b60405180910390fd5b60035f8373ffffffffffffffffffffffffffffffffffffffff1673ffffffffffffffffffffffffffffffffffffffff1681526020019081526020015f20549050919050565b6108df610fbc565b6108e85f6110fc565b565b60085481565b5f60075f9054906101000a900473ffffffffffffffffffffffffffffffffffffffff16905090565b6060600180546109279061252d565b80601f01602080910402602001604051908101604052809291908181526020018280546109539061252d565b801561099e5780601f106109755761010080835404028352916020019161099e565b820191905f5260205f20905b81548152906001019060200180831161098157829003601f168201915b5050505050905090565b6109ba6109b3610d98565b83836111bf565b5050565b6109c9848484610628565b6109d584848484611328565b50505050565b60606109e682610cd9565b505f60065f8481526020019081526020015f208054610a049061252d565b80601f0160208091040260200160405190810160405280929190818152602001828054610a309061252d565b8015610a7b5780601f10610a5257610100808354040283529160200191610a7b565b820191905f5260205f20905b815481529060010190602001808311610a5e57829003601f168201915b505050505090505f610a8b6114da565b90505f815103610a9f578192505050610ae1565b5f82511115610ad3578082604051602001610abb9291906128ac565b60405160208183030381529060405292505050610ae1565b610adc846114f0565b925050505b919050565b5f60055f8473ffffffffffffffffffffffffffffffffffffffff1673ffffffffffffffffffffffffffffffffffffffff1681526020019081526020015f205f8373ffffffffffffffffffffffffffffffffffffffff1673ffffffffffffffffffffffffffffffffffffffff1681526020019081526020015f205f9054906101000a900460ff16905092915050565b610b7c610fbc565b5f73ffffffffffffffffffffffffffffffffffffffff168173ffffffffffffffffffffffffffffffffffffffff1603610bec575f6040517f1e4fbdf7000000000000000000000000000000000000000000000000000000008152600401610be3919061204c565b60405180910390fd5b610bf5816110fc565b50565b5f7f80ac58cd000000000000000000000000000000000000000000000000000000007bffffffffffffffffffffffffffffffffffffffffffffffffffffffff1916827bffffffffffffffffffffffffffffffffffffffffffffffffffffffff19161480610cc257507f5b5e139f000000000000000000000000000000000000000000000000000000007bffffffffffffffffffffffffffffffffffffffffffffffffffffffff1916827bffffffffffffffffffffffffffffffffffffffffffffffffffffffff1916145b80610cd25750610cd182611556565b5b9050919050565b5f80610ce4836115bf565b90505f73ffffffffffffffffffffffffffffffffffffffff168173ffffffffffffffffffffffffffffffffffffffff1603610d5657826040517f7e273289000000000000000000000000000000000000000000000000000000008152600401610d4d91906122f8565b60405180910390fd5b80915050919050565b5f60045f8381526020019081526020015f205f9054906101000a900473ffffffffffffffffffffffffffffffffffffffff169050919050565b5f33905090565b610dac83838360016115f8565b505050565b5f80610dbc846115bf565b90505f73ffffffffffffffffffffffffffffffffffffffff168373ffffffffffffffffffffffffffffffffffffffff1614610dfd57610dfc8184866117b7565b5b5f73ffffffffffffffffffffffffffffffffffffffff168173ffffffffffffffffffffffffffffffffffffffff1614610e8857610e3c5f855f806115f8565b600160035f8373ffffffffffffffffffffffffffffffffffffffff1673ffffffffffffffffffffffffffffffffffffffff1681526020019081526020015f205f82825403925050819055505b5f73ffffffffffffffffffffffffffffffffffffffff168573ffffffffffffffffffffffffffffffffffffffff1614610f0757600160035f8773ffffffffffffffffffffffffffffffffffffffff1673ffffffffffffffffffffffffffffffffffffffff1681526020019081526020015f205f82825401925050819055505b8460025f8681526020019081526020015f205f6101000a81548173ffffffffffffffffffffffffffffffffffffffff021916908373ffffffffffffffffffffffffffffffffffffffff160217905550838573ffffffffffffffffffffffffffffffffffffffff168273ffffffffffffffffffffffffffffffffffffffff167fddf252ad1be2c89b69c2b068fc378daa952ba7f163c4a11628f55a4df523b3ef60405160405180910390a4809150509392505050565b610fc4610d98565b73ffffffffffffffffffffffffffffffffffffffff16610fe26108f0565b73ffffffffffffffffffffffffffffffffffffffff161461104157611005610d98565b6040517f118cdaa7000000000000000000000000000000000000000000000000000000008152600401611038919061204c565b60405180910390fd5b565b61105c828260405180602001604052805f81525061187a565b5050565b6060848461106d85611895565b61107685611895565b6040516020016110899493929190612ad5565b6040516020818303038152906040529050949350505050565b8060065f8481526020019081526020015f2090816110c0919061272f565b507ff8e1a15aba9398e019f0b49df1a4fde98ee17ae345cb5f6b5e2c27f5033e8ce7826040516110f091906122f8565b60405180910390a15050565b5f60075f9054906101000a900473ffffffffffffffffffffffffffffffffffffffff1690508160075f6101000a81548173ffffffffffffffffffffffffffffffffffffffff021916908373ffffffffffffffffffffffffffffffffffffffff1602179055508173ffffffffffffffffffffffffffffffffffffffff168173ffffffffffffffffffffffffffffffffffffffff167f8be0079c531659141344cd1fd0a4f28419497f9722a3daafe3b4186f6b6457e060405160405180910390a35050565b5f73ffffffffffffffffffffffffffffffffffffffff168273ffffffffffffffffffffffffffffffffffffffff160361122f57816040517f5b08ba18000000000000000000000000000000000000000000000000000000008152600401611226919061204c565b60405180910390fd5b8060055f8573ffffffffffffffffffffffffffffffffffffffff1673ffffffffffffffffffffffffffffffffffffffff1681526020019081526020015f205f8473ffffffffffffffffffffffffffffffffffffffff1673ffffffffffffffffffffffffffffffffffffffff1681526020019081526020015f205f6101000a81548160ff0219169083151502179055508173ffffffffffffffffffffffffffffffffffffffff168373ffffffffffffffffffffffffffffffffffffffff167f17307eab39ab6107e8899845ad3d59bd9653f200f220920489ca2b5937696c318360405161131b9190611e8c565b60405180910390a3505050565b5f8373ffffffffffffffffffffffffffffffffffffffff163b11156114d4578273ffffffffffffffffffffffffffffffffffffffff1663150b7a0261136b610d98565b8685856040518563ffffffff1660e01b815260040161138d9493929190612bbc565b6020604051808303815f875af19250505080156113c857506040513d601f19601f820116820180604052508101906113c59190612c1a565b60015b611449573d805f81146113f6576040519150601f19603f3d011682016040523d82523d5f602084013e6113fb565b606091505b505f81510361144157836040517f64a0ae92000000000000000000000000000000000000000000000000000000008152600401611438919061204c565b60405180910390fd5b805181602001fd5b63150b7a0260e01b7bffffffffffffffffffffffffffffffffffffffffffffffffffffffff1916817bffffffffffffffffffffffffffffffffffffffffffffffffffffffff1916146114d257836040517f64a0ae920000000000000000000000000000000000000000000000000000000081526004016114c9919061204c565b60405180910390fd5b505b50505050565b606060405180602001604052805f815250905090565b60606114fb82610cd9565b505f6115056114da565b90505f8151116115235760405180602001604052805f81525061154e565b8061152d84611a13565b60405160200161153e9291906128ac565b6040516020818303038152906040525b915050919050565b5f7f01ffc9a7000000000000000000000000000000000000000000000000000000007bffffffffffffffffffffffffffffffffffffffffffffffffffffffff1916827bffffffffffffffffffffffffffffffffffffffffffffffffffffffff1916149050919050565b5f60025f8381526020019081526020015f205f9054906101000a900473ffffffffffffffffffffffffffffffffffffffff169050919050565b808061163057505f73ffffffffffffffffffffffffffffffffffffffff168273ffffffffffffffffffffffffffffffffffffffff1614155b15611762575f61163f84610cd9565b90505f73ffffffffffffffffffffffffffffffffffffffff168373ffffffffffffffffffffffffffffffffffffffff16141580156116a957508273ffffffffffffffffffffffffffffffffffffffff168173ffffffffffffffffffffffffffffffffffffffff1614155b80156116bc57506116ba8184610ae6565b155b156116fe57826040517fa9fbf51f0000000000000000000000000000000000000000000000000000000081526004016116f5919061204c565b60405180910390fd5b811561176057838573ffffffffffffffffffffffffffffffffffffffff168273ffffffffffffffffffffffffffffffffffffffff167f8c5be1e5ebec7d5bd14f71427d1e84f3dd0314c0f7b2291e5b200ac8c7c3b92560405160405180910390a45b505b8360045f8581526020019081526020015f205f6101000a81548173ffffffffffffffffffffffffffffffffffffffff021916908373ffffffffffffffffffffffffffffffffffffffff16021790555050505050565b6117c2838383611add565b611875575f73ffffffffffffffffffffffffffffffffffffffff168373ffffffffffffffffffffffffffffffffffffffff160361183657806040517f7e27328900000000000000000000000000000000000000000000000000000000815260040161182d91906122f8565b60405180910390fd5b81816040517f177e802f00000000000000000000000000000000000000000000000000000000815260040161186c929190612c45565b60405180910390fd5b505050565b6118848383611b9d565b6118905f848484611328565b505050565b60605f82036118db576040518060400160405280600181526020017f30000000000000000000000000000000000000000000000000000000000000008152509050611a0e565b5f8290505f5b5f821461190a5780806118f39061282b565b915050600a826119039190612c99565b91506118e1565b5f8167ffffffffffffffff81111561192557611924612125565b5b6040519080825280601f01601f1916602001820160405280156119575781602001600182028036833780820191505090505b5090505f8290505b5f8614611a06576001816119739190612cc9565b90505f600a80886119849190612c99565b61198e9190612cfc565b876119999190612cc9565b60306119a59190612d49565b90505f8160f81b9050808484815181106119c2576119c1612d7d565b5b60200101907effffffffffffffffffffffffffffffffffffffffffffffffffffffffffffff191690815f1a905350600a886119fd9190612c99565b9750505061195f565b819450505050505b919050565b60605f6001611a2184611c90565b0190505f8167ffffffffffffffff811115611a3f57611a3e612125565b5b6040519080825280601f01601f191660200182016040528015611a715781602001600182028036833780820191505090505b5090505f82602001820190505b600115611ad2578080600190039150507f3031323334353637383961626364656600000000000000000000000000000000600a86061a8153600a8581611ac757611ac6612c6c565b5b0494505f8503611a7e575b819350505050919050565b5f8073ffffffffffffffffffffffffffffffffffffffff168373ffffffffffffffffffffffffffffffffffffffff1614158015611b9457508273ffffffffffffffffffffffffffffffffffffffff168473ffffffffffffffffffffffffffffffffffffffff161480611b555750611b548484610ae6565b5b80611b9357508273ffffffffffffffffffffffffffffffffffffffff16611b7b83610d5f565b73ffffffffffffffffffffffffffffffffffffffff16145b5b90509392505050565b5f73ffffffffffffffffffffffffffffffffffffffff168273ffffffffffffffffffffffffffffffffffffffff1603611c0d575f6040517f64a0ae92000000000000000000000000000000000000000000000000000000008152600401611c04919061204c565b60405180910390fd5b5f611c1983835f610db1565b90505f73ffffffffffffffffffffffffffffffffffffffff168173ffffffffffffffffffffffffffffffffffffffff1614611c8b575f6040517f73c6ac6e000000000000000000000000000000000000000000000000000000008152600401611c82919061204c565b60405180910390fd5b505050565b5f805f90507a184f03e93ff9f4daa797ed6e38ed64bf6a1f0100000000000000008310611cec577a184f03e93ff9f4daa797ed6e38ed64bf6a1f0100000000000000008381611ce257611ce1612c6c565b5b0492506040810190505b6d04ee2d6d415b85acef81000000008310611d29576d04ee2d6d415b85acef81000000008381611d1f57611d1e612c6c565b5b0492506020810190505b662386f26fc100008310611d5857662386f26fc100008381611d4e57611d4d612c6c565b5b0492506010810190505b6305f5e1008310611d81576305f5e1008381611d7757611d76612c6c565b5b0492506008810190505b6127108310611da6576127108381611d9c57611d9b612c6c565b5b0492506004810190505b60648310611dc95760648381611dbf57611dbe612c6c565b5b0492506002810190505b600a8310611dd8576001810190505b80915050919050565b5f604051905090565b5f80fd5b5f80fd5b5f7fffffffff0000000000000000000000000000000000000000000000000000000082169050919050565b611e2681611df2565b8114611e30575f80fd5b50565b5f81359050611e4181611e1d565b92915050565b5f60208284031215611e5c57611e5b611dea565b5b5f611e6984828501611e33565b91505092915050565b5f8115159050919050565b611e8681611e72565b82525050565b5f602082019050611e9f5f830184611e7d565b92915050565b5f819050919050565b611eb781611ea5565b8114611ec1575f80fd5b50565b5f81359050611ed281611eae565b92915050565b5f60208284031215611eed57611eec611dea565b5b5f611efa84828501611ec4565b91505092915050565b5f81519050919050565b5f82825260208201905092915050565b5f5b83811015611f3a578082015181840152602081019050611f1f565b5f8484015250505050565b5f601f19601f8301169050919050565b5f611f5f82611f03565b611f698185611f0d565b9350611f79818560208601611f1d565b611f8281611f45565b840191505092915050565b611f9681611ea5565b82525050565b5f6080820190508181035f830152611fb48187611f55565b90508181036020830152611fc88186611f55565b9050611fd76040830185611f8d565b611fe46060830184611f8d565b95945050505050565b5f6020820190508181035f8301526120058184611f55565b905092915050565b5f73ffffffffffffffffffffffffffffffffffffffff82169050919050565b5f6120368261200d565b9050919050565b6120468161202c565b82525050565b5f60208201905061205f5f83018461203d565b92915050565b61206e8161202c565b8114612078575f80fd5b50565b5f8135905061208981612065565b92915050565b5f80604083850312156120a5576120a4611dea565b5b5f6120b28582860161207b565b92505060206120c385828601611ec4565b9150509250929050565b5f805f606084860312156120e4576120e3611dea565b5b5f6120f18682870161207b565b93505060206121028682870161207b565b925050604061211386828701611ec4565b9150509250925092565b5f80fd5b5f80fd5b7f4e487b71000000000000000000000000000000000000000000000000000000005f52604160045260245ffd5b61215b82611f45565b810181811067ffffffffffffffff8211171561217a57612179612125565b5b80604052505050565b5f61218c611de1565b90506121988282612152565b919050565b5f67ffffffffffffffff8211156121b7576121b6612125565b5b6121c082611f45565b9050602081019050919050565b828183375f83830152505050565b5f6121ed6121e88461219d565b612183565b90508281526020810184848401111561220957612208612121565b5b6122148482856121cd565b509392505050565b5f82601f8301126122305761222f61211d565b5b81356122408482602086016121db565b91505092915050565b5f805f805f60a0868803121561226257612261611dea565b5b5f61226f8882890161207b565b955050602086013567ffffffffffffffff8111156122905761228f611dee565b5b61229c8882890161221c565b945050604086013567ffffffffffffffff8111156122bd576122bc611dee565b5b6122c98882890161221c565b93505060606122da88828901611ec4565b92505060806122eb88828901611ec4565b9150509295509295909350565b5f60208201905061230b5f830184611f8d565b92915050565b5f6020828403121561232657612325611dea565b5b5f6123338482850161207b565b91505092915050565b61234581611e72565b811461234f575f80fd5b50565b5f813590506123608161233c565b92915050565b5f806040838503121561237c5761237b611dea565b5b5f6123898582860161207b565b925050602061239a85828601612352565b9150509250929050565b5f67ffffffffffffffff8211156123be576123bd612125565b5b6123c782611f45565b9050602081019050919050565b5f6123e66123e1846123a4565b612183565b90508281526020810184848401111561240257612401612121565b5b61240d8482856121cd565b509392505050565b5f82601f8301126124295761242861211d565b5b81356124398482602086016123d4565b91505092915050565b5f805f806080858703121561245a57612459611dea565b5b5f6124678782880161207b565b94505060206124788782880161207b565b935050604061248987828801611ec4565b925050606085013567ffffffffffffffff8111156124aa576124a9611dee565b5b6124b687828801612415565b91505092959194509250565b5f80604083850312156124d8576124d7611dea565b5b5f6124e58582860161207b565b92505060206124f68582860161207b565b9150509250929050565b7f4e487b71000000000000000000000000000000000000000000000000000000005f52602260045260245ffd5b5f600282049050600182168061254457607f821691505b60208210810361255757612556612500565b5b50919050565b5f6060820190506125705f83018661203d565b61257d6020830185611f8d565b61258a604083018461203d565b949350505050565b5f819050815f5260205f209050919050565b5f6020601f8301049050919050565b5f82821b905092915050565b5f600883026125ee7fffffffffffffffffffffffffffffffffffffffffffffffffffffffffffffffff826125b3565b6125f886836125b3565b95508019841693508086168417925050509392505050565b5f819050919050565b5f61263361262e61262984611ea5565b612610565b611ea5565b9050919050565b5f819050919050565b61264c83612619565b6126606126588261263a565b8484546125bf565b825550505050565b5f90565b612674612668565b61267f818484612643565b505050565b5b818110156126a2576126975f8261266c565b600181019050612685565b5050565b601f8211156126e7576126b881612592565b6126c1846125a4565b810160208510156126d0578190505b6126e46126dc856125a4565b830182612684565b50505b505050565b5f82821c905092915050565b5f6127075f19846008026126ec565b1980831691505092915050565b5f61271f83836126f8565b9150826002028217905092915050565b61273882611f03565b67ffffffffffffffff81111561275157612750612125565b5b61275b825461252d565b6127668282856126a6565b5f60209050601f831160018114612797575f8415612785578287015190505b61278f8582612714565b8655506127f6565b601f1984166127a586612592565b5f5b828110156127cc578489015182556001820191506020850194506020810190506127a7565b868310156127e957848901516127e5601f8916826126f8565b8355505b6001600288020188555050505b505050505050565b7f4e487b71000000000000000000000000000000000000000000000000000000005f52601160045260245ffd5b5f61283582611ea5565b91507fffffffffffffffffffffffffffffffffffffffffffffffffffffffffffffffff8203612867576128666127fe565b5b600182019050919050565b5f81905092915050565b5f61288682611f03565b6128908185612872565b93506128a0818560208601611f1d565b80840191505092915050565b5f6128b7828561287c565b91506128c3828461287c565b91508190509392505050565b7f7b226e616d65223a2200000000000000000000000000000000000000000000005f82015250565b5f612903600983612872565b915061290e826128cf565b600982019050919050565b7f222c0000000000000000000000000000000000000000000000000000000000005f82015250565b5f61294d600283612872565b915061295882612919565b600282019050919050565b7f226465736372697074696f6e223a2200000000000000000000000000000000005f82015250565b5f612997600f83612872565b91506129a282612963565b600f82019050919050565b7f2264617465223a000000000000000000000000000000000000000000000000005f82015250565b5f6129e1600783612872565b91506129ec826129ad565b600782019050919050565b7f2c000000000000000000000000000000000000000000000000000000000000005f82015250565b5f612a2b600183612872565b9150612a36826129f7565b600182019050919050565b7f2273656174223a000000000000000000000000000000000000000000000000005f82015250565b5f612a75600783612872565b9150612a8082612a41565b600782019050919050565b7f7d000000000000000000000000000000000000000000000000000000000000005f82015250565b5f612abf600183612872565b9150612aca82612a8b565b600182019050919050565b5f612adf826128f7565b9150612aeb828761287c565b9150612af682612941565b9150612b018261298b565b9150612b0d828661287c565b9150612b1882612941565b9150612b23826129d5565b9150612b2f828561287c565b9150612b3a82612a1f565b9150612b4582612a69565b9150612b51828461287c565b9150612b5c82612ab3565b915081905095945050505050565b5f81519050919050565b5f82825260208201905092915050565b5f612b8e82612b6a565b612b988185612b74565b9350612ba8818560208601611f1d565b612bb181611f45565b840191505092915050565b5f608082019050612bcf5f83018761203d565b612bdc602083018661203d565b612be96040830185611f8d565b8181036060830152612bfb8184612b84565b905095945050505050565b5f81519050612c1481611e1d565b92915050565b5f60208284031215612c2f57612c2e611dea565b5b5f612c3c84828501612c06565b91505092915050565b5f604082019050612c585f83018561203d565b612c656020830184611f8d565b9392505050565b7f4e487b71000000000000000000000000000000000000000000000000000000005f52601260045260245ffd5b5f612ca382611ea5565b9150612cae83611ea5565b925082612cbe57612cbd612c6c565b5b828204905092915050565b5f612cd382611ea5565b9150612cde83611ea5565b9250828203905081811115612cf657612cf56127fe565b5b92915050565b5f612d0682611ea5565b9150612d1183611ea5565b9250828202612d1f81611ea5565b91508282048414831517612d3657612d356127fe565b5b5092915050565b5f60ff82169050919050565b5f612d5382612d3d565b9150612d5e83612d3d565b9250828201905060ff811115612d7757612d766127fe565b5b92915050565b7f4e487b71000000000000000000000000000000000000000000000000000000005f52603260045260245ffdfea26469706673582212205e66cb34911797fdc95cf5b8923ab1d0d51fd1ff85ac71ffe1f334c3b95dc94764736f6c63430008150033",
  "immutableReferences": {},
  "source": "// SPDX-License-Identifier: MIT\npragma solidity ^0.8.0;\n\nimport \"@openzeppelin/contracts/token/ERC721/extensions/ERC721URIStorage.sol\";\nimport \"@openzeppelin/contracts/access/Ownable.sol\";\n\ncontract TicketNFT is ERC721URIStorage, Ownable {\n    uint256 public nextTokenId;\n\n    struct TicketDetails {\n        string eventName;\n        string eventDetails;\n        uint256 eventDate;\n        uint256 seat;\n    }\n\n    mapping(uint256 => TicketDetails) public ticketDetails;\n\n    constructor(address _initialOwner) ERC721(\"Event Ticket\", \"ETKT\") Ownable(_initialOwner) {}\n\n    function mint(\n        address to,\n        string memory _eventName,\n        string memory _eventDetails,\n        uint256 _eventDate,\n        uint256 _seat\n    ) external onlyOwner returns (uint256) {\n        uint256 tokenId = nextTokenId;\n        _safeMint(to, tokenId);\n        ticketDetails[tokenId] = TicketDetails({\n            eventName: _eventName,\n            eventDetails: _eventDetails,\n            eventDate: _eventDate,\n            seat: _seat\n        });\n\n        // Generate tokenURI\n        string memory tokenURI = _generateTokenURI(\n            _eventName,\n            _eventDetails,\n            _eventDate,\n            _seat\n        );\n        _setTokenURI(tokenId, tokenURI);\n        nextTokenId++;\n        return tokenId;\n    }\n\n    function _generateTokenURI(\n        string memory _eventName,\n        string memory _eventDetails,\n        uint256 _eventDate,\n        uint256 _seat\n    ) internal pure returns (string memory) {\n        return string(abi.encodePacked(\n            '{\"name\":\"', _eventName, '\",',\n            '\"description\":\"', _eventDetails, '\",',\n            '\"date\":', uint2str(_eventDate), ',',\n            '\"seat\":', uint2str(_seat), '}'\n        ));\n    }\n\n    function uint2str(uint256 _i) internal pure returns (string memory) {\n        if (_i == 0) {\n            return \"0\";\n        }\n        uint256 j = _i;\n        uint256 len;\n        while (j != 0) {\n            len++;\n            j /= 10;\n        }\n        bytes memory bstr = new bytes(len);\n        uint256 k = len;\n        while (_i != 0) {\n            k = k - 1;\n            uint8 temp = (48 + uint8(_i - _i / 10 * 10));\n            bytes1 b1 = bytes1(temp);\n            bstr[k] = b1;\n            _i /= 10;\n        }\n        return string(bstr);\n    }\n}",
  "sourcePath": "/Users/itaybiton/Desktop/DappTruffle/EventCoin/contracts/TicketNFT.sol",
  "compiler": {
    "name": "solc",
    "version": "0.8.21+commit.d9974bed.Emscripten.clang"
  },
  "schemaVersion": "3.4.16",
  "updatedAt": "2024-08-22T15:33:18.080Z",
  "devdoc": {
    "errors": {
      "ERC721IncorrectOwner(address,uint256,address)": [
        {
          "details": "Indicates an error related to the ownership over a particular token. Used in transfers.",
          "params": {
            "owner": "Address of the current owner of a token.",
            "sender": "Address whose tokens are being transferred.",
            "tokenId": "Identifier number of a token."
          }
        }
      ],
      "ERC721InsufficientApproval(address,uint256)": [
        {
          "details": "Indicates a failure with the `operator`s approval. Used in transfers.",
          "params": {
            "operator": "Address that may be allowed to operate on tokens without being their owner.",
            "tokenId": "Identifier number of a token."
          }
        }
      ],
      "ERC721InvalidApprover(address)": [
        {
          "details": "Indicates a failure with the `approver` of a token to be approved. Used in approvals.",
          "params": {
            "approver": "Address initiating an approval operation."
          }
        }
      ],
      "ERC721InvalidOperator(address)": [
        {
          "details": "Indicates a failure with the `operator` to be approved. Used in approvals.",
          "params": {
            "operator": "Address that may be allowed to operate on tokens without being their owner."
          }
        }
      ],
      "ERC721InvalidOwner(address)": [
        {
          "details": "Indicates that an address can't be an owner. For example, `address(0)` is a forbidden owner in EIP-20. Used in balance queries.",
          "params": {
            "owner": "Address of the current owner of a token."
          }
        }
      ],
      "ERC721InvalidReceiver(address)": [
        {
          "details": "Indicates a failure with the token `receiver`. Used in transfers.",
          "params": {
            "receiver": "Address to which tokens are being transferred."
          }
        }
      ],
      "ERC721InvalidSender(address)": [
        {
          "details": "Indicates a failure with the token `sender`. Used in transfers.",
          "params": {
            "sender": "Address whose tokens are being transferred."
          }
        }
      ],
      "ERC721NonexistentToken(uint256)": [
        {
          "details": "Indicates a `tokenId` whose `owner` is the zero address.",
          "params": {
            "tokenId": "Identifier number of a token."
          }
        }
      ],
      "OwnableInvalidOwner(address)": [
        {
          "details": "The owner is not a valid owner account. (eg. `address(0)`)"
        }
      ],
      "OwnableUnauthorizedAccount(address)": [
        {
          "details": "The caller account is not authorized to perform an operation."
        }
      ]
    },
    "events": {
      "Approval(address,address,uint256)": {
        "details": "Emitted when `owner` enables `approved` to manage the `tokenId` token."
      },
      "ApprovalForAll(address,address,bool)": {
        "details": "Emitted when `owner` enables or disables (`approved`) `operator` to manage all of its assets."
      },
      "BatchMetadataUpdate(uint256,uint256)": {
        "details": "This event emits when the metadata of a range of tokens is changed. So that the third-party platforms such as NFT market could timely update the images and related attributes of the NFTs."
      },
      "MetadataUpdate(uint256)": {
        "details": "This event emits when the metadata of a token is changed. So that the third-party platforms such as NFT market could timely update the images and related attributes of the NFT."
      },
      "Transfer(address,address,uint256)": {
        "details": "Emitted when `tokenId` token is transferred from `from` to `to`."
      }
    },
    "kind": "dev",
    "methods": {
      "approve(address,uint256)": {
        "details": "See {IERC721-approve}."
      },
      "balanceOf(address)": {
        "details": "See {IERC721-balanceOf}."
      },
      "getApproved(uint256)": {
        "details": "See {IERC721-getApproved}."
      },
      "isApprovedForAll(address,address)": {
        "details": "See {IERC721-isApprovedForAll}."
      },
      "name()": {
        "details": "See {IERC721Metadata-name}."
      },
      "owner()": {
        "details": "Returns the address of the current owner."
      },
      "ownerOf(uint256)": {
        "details": "See {IERC721-ownerOf}."
      },
      "renounceOwnership()": {
        "details": "Leaves the contract without owner. It will not be possible to call `onlyOwner` functions. Can only be called by the current owner. NOTE: Renouncing ownership will leave the contract without an owner, thereby disabling any functionality that is only available to the owner."
      },
      "safeTransferFrom(address,address,uint256)": {
        "details": "See {IERC721-safeTransferFrom}."
      },
      "safeTransferFrom(address,address,uint256,bytes)": {
        "details": "See {IERC721-safeTransferFrom}."
      },
      "setApprovalForAll(address,bool)": {
        "details": "See {IERC721-setApprovalForAll}."
      },
      "supportsInterface(bytes4)": {
        "details": "See {IERC165-supportsInterface}"
      },
      "symbol()": {
        "details": "See {IERC721Metadata-symbol}."
      },
      "tokenURI(uint256)": {
        "details": "See {IERC721Metadata-tokenURI}."
      },
      "transferFrom(address,address,uint256)": {
        "details": "See {IERC721-transferFrom}."
      },
      "transferOwnership(address)": {
        "details": "Transfers ownership of the contract to a new account (`newOwner`). Can only be called by the current owner."
      }
    },
    "version": 1
  },
  "userdoc": {
    "kind": "user",
    "methods": {},
    "version": 1
  }
}